{
  "_format": "hh-sol-artifact-1",
  "contractName": "SwapExamples",
  "sourceName": "contracts/SingleSwap.sol",
  "abi": [
    {
      "inputs": [
        {
          "internalType": "contract ISwapRouter",
          "name": "_swapRouter",
          "type": "address"
        }
      ],
      "stateMutability": "nonpayable",
      "type": "constructor"
    },
    {
      "inputs": [],
      "name": "TETHER",
      "outputs": [
        {
          "internalType": "address",
          "name": "",
          "type": "address"
        }
      ],
      "stateMutability": "view",
      "type": "function"
    },
    {
      "inputs": [],
      "name": "USDC",
      "outputs": [
        {
          "internalType": "address",
          "name": "",
          "type": "address"
        }
      ],
      "stateMutability": "view",
      "type": "function"
    },
    {
      "inputs": [],
      "name": "WETH9",
      "outputs": [
        {
          "internalType": "address",
          "name": "",
          "type": "address"
        }
      ],
      "stateMutability": "view",
      "type": "function"
    },
    {
      "inputs": [],
      "name": "poolFee",
      "outputs": [
        {
          "internalType": "uint24",
          "name": "",
          "type": "uint24"
        }
      ],
      "stateMutability": "view",
      "type": "function"
    },
    {
      "inputs": [
        {
          "internalType": "uint256",
          "name": "amountIn",
          "type": "uint256"
        }
      ],
      "name": "swapExactInputSingle",
      "outputs": [
        {
          "internalType": "uint256",
          "name": "amountOut",
          "type": "uint256"
        }
      ],
      "stateMutability": "nonpayable",
      "type": "function"
    },
    {
      "inputs": [
        {
          "internalType": "uint256",
          "name": "amountOut",
          "type": "uint256"
        },
        {
          "internalType": "uint256",
          "name": "amountInMaximum",
          "type": "uint256"
        }
      ],
      "name": "swapExactOutputSingle",
      "outputs": [
        {
          "internalType": "uint256",
          "name": "amountIn",
          "type": "uint256"
        }
      ],
      "stateMutability": "nonpayable",
      "type": "function"
    },
    {
      "inputs": [],
      "name": "swapRouter",
      "outputs": [
        {
          "internalType": "contract ISwapRouter",
          "name": "",
          "type": "address"
        }
      ],
      "stateMutability": "view",
      "type": "function"
    }
  ],
  "bytecode": "0x60a060405234801561001057600080fd5b50604051610a4b380380610a4b83398101604081905261002f91610044565b60601b6001600160601b031916608052610072565b600060208284031215610055578081fd5b81516001600160a01b038116811461006b578182fd5b9392505050565b60805160601c6109a36100a86000398061015a52806101f452806102bc528061031a52806103b1528061046452506109a36000f3fe608060405234801561001057600080fd5b506004361061007d5760003560e01c806378e7e3d11161005b57806378e7e3d1146100d557806389a30271146100dd578063c31c9c07146100e5578063c4b69a18146100ed5761007d565b8063089fe6aa146100825780634aa4a4fc146100a057806373bd43ad146100b5575b600080fd5b61008a610100565b604051610097919061097d565b60405180910390f35b6100a8610106565b6040516100979190610954565b6100c86100c336600461089f565b61011e565b604051610097919061098d565b6100a861028a565b6100a86102a2565b6100a86102ba565b6100c86100fb3660046108cf565b6102de565b6101f481565b73c02aaa39b223fe8d0a0e5c4f27ead9083c756cc281565b6000610140730165878a594ca255338adfa4d48449f69242eb8f3330856104b2565b61017f730165878a594ca255338adfa4d48449f69242eb8f7f00000000000000000000000000000000000000000000000000000000000000008461060a565b6040805161010081018252730165878a594ca255338adfa4d48449f69242eb8f815273a513e6e4b8f2a923d98304ec87f64353c4d5c85360208201526101f48183015233606082015260c84201608082015260a08101849052600160c0820152600a60e0820152905163414bf38960e01b81527f00000000000000000000000000000000000000000000000000000000000000006001600160a01b03169063414bf38990610231908490600401610968565b602060405180830381600087803b15801561024b57600080fd5b505af115801561025f573d6000803e3d6000fd5b505050506040513d601f19601f8201168201806040525081019061028391906108b7565b9392505050565b730165878a594ca255338adfa4d48449f69242eb8f81565b73a513e6e4b8f2a923d98304ec87f64353c4d5c85381565b7f000000000000000000000000000000000000000000000000000000000000000081565b6000610300730165878a594ca255338adfa4d48449f69242eb8f3330856104b2565b61033f730165878a594ca255338adfa4d48449f69242eb8f7f00000000000000000000000000000000000000000000000000000000000000008461060a565b6040805161010081018252730165878a594ca255338adfa4d48449f69242eb8f815273c02aaa39b223fe8d0a0e5c4f27ead9083c756cc260208201526101f48183015233606082015242608082015260a0810185905260c08101849052600060e08201529051631b67c43360e31b81527f00000000000000000000000000000000000000000000000000000000000000006001600160a01b03169063db3e2198906103ee908490600401610968565b602060405180830381600087803b15801561040857600080fd5b505af115801561041c573d6000803e3d6000fd5b505050506040513d601f19601f8201168201806040525081019061044091906108b7565b9150828210156104ab5761048a730165878a594ca255338adfa4d48449f69242eb8f7f0000000000000000000000000000000000000000000000000000000000000000600061060a565b6104ab730165878a594ca255338adfa4d48449f69242eb8f33848603610758565b5092915050565b604080516001600160a01b0385811660248301528481166044830152606480830185905283518084039091018152608490920183526020820180516001600160e01b03166323b872dd60e01b178152925182516000948594938a169392918291908083835b602083106105365780518252601f199092019160209182019101610517565b6001836020036101000a0380198251168184511680821785525050505050509050019150506000604051808303816000865af19150503d8060008114610598576040519150601f19603f3d011682016040523d82523d6000602084013e61059d565b606091505b50915091508180156105cb5750805115806105cb57508080602001905160208110156105c857600080fd5b50515b610602576040805162461bcd60e51b815260206004820152600360248201526229aa2360e91b604482015290519081900360640190fd5b505050505050565b604080516001600160a01b038481166024830152604480830185905283518084039091018152606490920183526020820180516001600160e01b031663095ea7b360e01b1781529251825160009485949389169392918291908083835b602083106106865780518252601f199092019160209182019101610667565b6001836020036101000a0380198251168184511680821785525050505050509050019150506000604051808303816000865af19150503d80600081146106e8576040519150601f19603f3d011682016040523d82523d6000602084013e6106ed565b606091505b509150915081801561071b57508051158061071b575080806020019051602081101561071857600080fd5b50515b610751576040805162461bcd60e51b8152602060048201526002602482015261534160f01b604482015290519081900360640190fd5b5050505050565b604080516001600160a01b038481166024830152604480830185905283518084039091018152606490920183526020820180516001600160e01b031663a9059cbb60e01b1781529251825160009485949389169392918291908083835b602083106107d45780518252601f1990920191602091820191016107b5565b6001836020036101000a0380198251168184511680821785525050505050509050019150506000604051808303816000865af19150503d8060008114610836576040519150601f19603f3d011682016040523d82523d6000602084013e61083b565b606091505b5091509150818015610869575080511580610869575080806020019051602081101561086657600080fd5b50515b610751576040805162461bcd60e51b815260206004820152600260248201526114d560f21b604482015290519081900360640190fd5b6000602082840312156108b0578081fd5b5035919050565b6000602082840312156108c8578081fd5b5051919050565b600080604083850312156108e1578081fd5b50508035926020909101359150565b6001600160a01b0380825116835280602083015116602084015262ffffff60408301511660408401528060608301511660608401526080820151608084015260a082015160a084015260c082015160c08401528060e08301511660e0840152505050565b6001600160a01b0391909116815260200190565b610100810161097782846108f0565b92915050565b62ffffff91909116815260200190565b9081526020019056fea164736f6c6343000706000a",
  "linkReferences": {},
  "deployedLinkReferences": {}
}