{"contracts/v3-periphery/libraries/NFTDescriptor.sol":{"NFTDescriptor":{"abi":[{"inputs":[{"components":[{"internalType":"uint256","name":"tokenId","type":"uint256"},{"internalType":"address","name":"quoteTokenAddress","type":"address"},{"internalType":"address","name":"baseTokenAddress","type":"address"},{"internalType":"string","name":"quoteTokenSymbol","type":"string"},{"internalType":"string","name":"baseTokenSymbol","type":"string"},{"internalType":"uint8","name":"quoteTokenDecimals","type":"uint8"},{"internalType":"uint8","name":"baseTokenDecimals","type":"uint8"},{"internalType":"bool","name":"flipRatio","type":"bool"},{"internalType":"int24","name":"tickLower","type":"int24"},{"internalType":"int24","name":"tickUpper","type":"int24"},{"internalType":"int24","name":"tickCurrent","type":"int24"},{"internalType":"int24","name":"tickSpacing","type":"int24"},{"internalType":"uint24","name":"fee","type":"uint24"},{"internalType":"address","name":"poolAddress","type":"address"}],"internalType":"struct NFTDescriptor.ConstructTokenURIParams","name":"params","type":"tuple"}],"name":"constructTokenURI","outputs":[{"internalType":"string","name":"","type":"string"}],"stateMutability":"pure","type":"function"}],"evm":{"bytecode":{"linkReferences":{},"object":"615fdd610026600b82828239805160001a60731461001957fe5b30600052607381538281f3fe73000000000000000000000000000000000000000030146080604052600436106100355760003560e01c8063c49917d71461003a575b600080fd5b61004d610048366004613f08565b610063565b60405161005a919061464a565b60405180910390f35b6060600061007e83610079856101800151610170565b6103d1565b905060006100b2610092856060015161048c565b61009f866080015161048c565b6100ad876101a00151610644565b61065a565b905060006101006100c6866000015161068c565b6100d3876080015161048c565b6100e08860200151610644565b6100ed8960400151610644565b6100fb8a6101800151610170565b610767565b905060006101156101108761079d565b6109d8565b90506101458484848460405160200161013194939291906142c5565b6040516020818303038152906040526109d8565b6040516020016101559190614605565b6040516020818303038152906040529450505050505b919050565b606062ffffff82166101b6575060408051808201909152600281527f3025000000000000000000000000000000000000000000000000000000000000602082015261016b565b816000805b62ffffff8316156102065760ff8116156101d7576001016101f0565b600a62ffffff84160662ffffff166000146101f0576001015b600190910190600a62ffffff84160492506101bb565b61020e613e02565b60006005841061030357600060046102298660ff8716610b5d565b1015610236576001610239565b60005b60ff908116915061024d9085166001610b5d565b610258866005610b5d565b106102845761027f61026e60ff86166001610b5d565b610279876005610b5d565b90610b5d565b610287565b60005b60ff8516608085018190529092506102a6906001906102799085610bba565b60ff90811660a085015260808401516102cd9183916102c791166001610b5d565b90610bba565b60ff90811660408501526102f59082906102c7906102ee9088166001610bba565b8590610bba565b60ff16602084015250610373565b61030e600585610b5d565b60026080840181905290915061032c90600190610279908490610bba565b60ff90811660a084015261034e906103479085166002610bba565b8290610bba565b60ff1660208301819052610363906002610b5d565b60ff166040830152600160c08301525b6103926103838560ff8616610b5d565b62ffffff891690600a0a610c14565b8252600160e0830152600484116103aa5760006103b5565b6103b5846004610b5d565b60ff1660608301526103c682610c7b565b979650505050505050565b6060816103e1846060015161048c565b6103ee856080015161048c565b6104278660e00151156104065786610120015161040d565b8661010001515b8761016001518860c001518960a001518a60e00151610ea7565b6104608760e001511561043f57876101000151610446565b8761012001515b8861016001518960c001518a60a001518b60e00151610ea7565b6040516020016104749594939291906143ec565b60405160208183030381529060405290505b92915050565b6060816000805b82518160ff1610156104f057828160ff16815181106104ae57fe5b6020910101517fff0000000000000000000000000000000000000000000000000000000000000016601160f91b14156104e8576001909101905b600101610493565b5060ff81161561063c5760008160ff1683510167ffffffffffffffff8111801561051957600080fd5b506040519080825280601f01601f191660200182016040528015610544576020820181803683370190505b5090506000805b84518160ff16101561062f57848160ff168151811061056657fe5b6020910101517fff0000000000000000000000000000000000000000000000000000000000000016601160f91b14156105e4577f5c000000000000000000000000000000000000000000000000000000000000008383806001019450815181106105cc57fe5b60200101906001600160f81b031916908160001a9053505b848160ff16815181106105f357fe5b602001015160f81c60f81b83838060010194508151811061061057fe5b60200101906001600160f81b031916908160001a90535060010161054b565b508194505050505061016b565b509192915050565b60606104866001600160a01b0383166014610fd1565b6060838383866040516020016106739493929190614179565b60405160208183030381529060405290505b9392505050565b6060816106b157506040805180820190915260018152600360fc1b602082015261016b565b8160005b81156106c957600101600a820491506106b5565b60008167ffffffffffffffff811180156106e257600080fd5b506040519080825280601f01601f19166020018201604052801561070d576020820181803683370190505b50859350905060001982015b831561075e57600a840660300160f81b8282806001900393508151811061073c57fe5b60200101906001600160f81b031916908160001a905350600a84049350610719565b50949350505050565b606083858484896040516020016107829594939291906144ed565b60405160208183030381529060405290505b95945050505050565b60606000604051806102a001604052806107ba8560200151610644565b81526020016107cc8560400151610644565b8152602001846101a001516001600160a01b031681526020018460600151815260200184608001518152602001610807856101800151610170565b815260200184610100015160020b815260200184610120015160020b815260200184610160015160020b8152602001610850856101000151866101200151876101400151611159565b60000b81526020018460000151815260200161087a85602001516001600160a01b03166088611190565b815260200161089785604001516001600160a01b03166088611190565b81526020016108b485602001516001600160a01b03166000611190565b81526020016108d185604001516001600160a01b03166000611190565b81526020016109046108f686602001516001600160a01b03166010886000015161119f565b600060ff60106101126111bf565b815260200161093761092986604001516001600160a01b03166010886000015161119f565b600060ff60646101e46111bf565b815260200161095c6108f686602001516001600160a01b03166020886000015161119f565b815260200161098161092986604001516001600160a01b03166020886000015161119f565b81526020016109a66108f686602001516001600160a01b03166030886000015161119f565b81526020016109cb61092986604001516001600160a01b03166030886000015161119f565b9052905061068581611207565b60608151600014156109f9575060408051602081019091526000815261016b565b600060405180606001604052806040815260200161526b60409139905060006003845160020181610a2657fe5b04600402905060008160200167ffffffffffffffff81118015610a4857600080fd5b506040519080825280601f01601f191660200182016040528015610a73576020820181803683370190505b509050818152600183018586518101602084015b81831015610ae15760039283018051603f601282901c811687015160f890811b8552600c83901c8216880151811b6001860152600683901c8216880151811b60028601529116860151901b93820193909352600401610a87565b600389510660018114610afb5760028114610b2757610b4f565b7f3d3d000000000000000000000000000000000000000000000000000000000000600119830152610b4f565b7f3d000000000000000000000000000000000000000000000000000000000000006000198301525b509398975050505050505050565b600082821115610bb4576040805162461bcd60e51b815260206004820152601e60248201527f536166654d6174683a207375627472616374696f6e206f766572666c6f770000604482015290519081900360640190fd5b50900390565b600082820183811015610685576040805162461bcd60e51b815260206004820152601b60248201527f536166654d6174683a206164646974696f6e206f766572666c6f770000000000604482015290519081900360640190fd5b6000808211610c6a576040805162461bcd60e51b815260206004820152601a60248201527f536166654d6174683a206469766973696f6e206279207a65726f000000000000604482015290519081900360640190fd5b818381610c7357fe5b049392505050565b60606000826020015160ff1667ffffffffffffffff81118015610c9d57600080fd5b506040519080825280601f01601f191660200182016040528015610cc8576020820181803683370190505b5090508260e0015115610d1e577f250000000000000000000000000000000000000000000000000000000000000081600183510381518110610d0657fe5b60200101906001600160f81b031916908160001a9053505b8260c0015115610d7b57600360fc1b81600081518110610d3a57fe5b60200101906001600160f81b031916908160001a905350601760f91b81600181518110610d6357fe5b60200101906001600160f81b031916908160001a9053505b608083015160ff165b60a0840151610d979060ff166001610bba565b811015610dce57603060f81b828281518110610daf57fe5b60200101906001600160f81b031916908160001a905350600101610d84565b505b825115610486576000836060015160ff16118015610dfb5750826060015160ff16836040015160ff16145b15610e3e5760408301805160ff600019820181169092528251601760f91b92849216908110610e2657fe5b60200101906001600160f81b031916908160001a9053505b8251610e5090603090600a9006610bba565b60f81b818460400180518091906001900360ff1660ff1681525060ff1681518110610e7757fe5b60200101906001600160f81b031916908160001a905350600a8360000181815181610e9e57fe5b04905250610dd0565b606084600281900b620d89e71981610ebb57fe5b050260020b8660020b1415610f15578115610ef1576040518060400160405280600381526020016209a82b60eb1b815250610f0e565b6040518060400160405280600381526020016226a4a760e91b8152505b9050610794565b84600281900b620d89e881610f2657fe5b050260020b8660020b1415610f7c578115610f5c576040518060400160405280600381526020016226a4a760e91b815250610f0e565b5060408051808201909152600381526209a82b60eb1b6020820152610794565b6000610f8787611496565b90508215610fbe57610fbb78010000000000000000000000000000000000000000000000006001600160a01b038316610c14565b90505b610fc98186866117e4565b915050610794565b606060008260020260020167ffffffffffffffff81118015610ff257600080fd5b506040519080825280601f01601f19166020018201604052801561101d576020820181803683370190505b509050600360fc1b8160008151811061103257fe5b60200101906001600160f81b031916908160001a9053507f78000000000000000000000000000000000000000000000000000000000000008160018151811061107757fe5b60200101906001600160f81b031916908160001a905350600160028402015b6001811115611105577f303132333435363738396162636465660000000000000000000000000000000085600f16601081106110ce57fe5b1a60f81b8282815181106110de57fe5b60200101906001600160f81b031916908160001a90535060049490941c9360001901611096565b508315610685576040805162461bcd60e51b815260206004820181905260248201527f537472696e67733a20686578206c656e67746820696e73756666696369656e74604482015290519081900360640190fd5b60008360020b8260020b12156111725750600019610685565b8260020b8260020b131561118857506001610685565b506000610685565b606061068583831c60036119b2565b600060ff826111ae8686611a79565b02816111b657fe5b06949350505050565b60606111fd6111f8846102c76111d5888a610b5d565b6111f26111e2888a610b5d565b6111ec8d8d610b5d565b90611a80565b90610c14565b61068c565b9695505050505050565b606061121282611ad9565b61122e836000015184602001518560600151866080015161218d565b611245846060015185608001518660a001516124b8565b6112638560c001518660e00151876101000151886101200151612608565b61128361127487610140015161068c565b8760c001518860e0015161295b565b6112968761014001518860400151612d8c565b6040516020018087805190602001908083835b602083106112c85780518252601f1990920191602091820191016112a9565b51815160209384036101000a600019018019909216911617905289519190930192890191508083835b602083106113105780518252601f1990920191602091820191016112f1565b51815160209384036101000a600019018019909216911617905288519190930192880191508083835b602083106113585780518252601f199092019160209182019101611339565b51815160209384036101000a600019018019909216911617905287519190930192870191508083835b602083106113a05780518252601f199092019160209182019101611381565b51815160209384036101000a600019018019909216911617905286519190930192860191508083835b602083106113e85780518252601f1990920191602091820191016113c9565b51815160209384036101000a600019018019909216911617905285519190930192850191508083835b602083106114305780518252601f199092019160209182019101611411565b5181516020939093036101000a60001901801990911692169190911790527f3c2f7376673e000000000000000000000000000000000000000000000000000092019182525060408051808303601919018152600690920190529998505050505050505050565b60008060008360020b126114ad578260020b6114b5565b8260020b6000035b9050620d89e881111561150f576040805162461bcd60e51b815260206004820152600160248201527f5400000000000000000000000000000000000000000000000000000000000000604482015290519081900360640190fd5b60006001821661152357600160801b611535565b6ffffcb933bd6fad37aa2d162d1a5940015b70ffffffffffffffffffffffffffffffffff1690506002821615611569576ffff97272373d413259a46990580e213a0260801c5b6004821615611588576ffff2e50f5f656932ef12357cf3c7fdcc0260801c5b60088216156115a7576fffe5caca7e10e4e61c3624eaa0941cd00260801c5b60108216156115c6576fffcb9843d60f6159c9db58835c9266440260801c5b60208216156115e5576fff973b41fa98c081472e6896dfb254c00260801c5b6040821615611604576fff2ea16466c96a3843ec78b326b528610260801c5b6080821615611623576ffe5dee046a99a2a811c461f1969c30530260801c5b610100821615611643576ffcbe86c7900a88aedcffc83b479aa3a40260801c5b610200821615611663576ff987a7253ac413176f2b074cf7815e540260801c5b610400821615611683576ff3392b0822b70005940c7a398e4b70f30260801c5b6108008216156116a3576fe7159475a2c29b7443b29c7fa6e889d90260801c5b6110008216156116c3576fd097f3bdfd2022b8845ad8f792aa58250260801c5b6120008216156116e3576fa9f746462d870fdf8a65dc1f90e061e50260801c5b614000821615611703576f70d869a156d2a1b890bb3df62baf32f70260801c5b618000821615611723576f31be135f97d08fd981231505542fcfa60260801c5b62010000821615611744576f09aa508b5b7a84e1c677de54f3e99bc90260801c5b62020000821615611764576e5d6af8dedb81196699c329225ee6040260801c5b62040000821615611783576d2216e584f5fa1ea926041bedfe980260801c5b620800008216156117a0576b048a170391f7dc42444e8fa20260801c5b60008460020b13156117bb5780600019816117b757fe5b0490505b6401000000008106156117cf5760016117d2565b60005b60ff16602082901c0192505050919050565b606060006117f3858585612e04565b9050600061180b828368010000000000000000612f06565b90506c010000000000000000000000008210801561184c576118458272047bf19673df52e37f2410011d100000000000600160801b612f06565b9150611861565b61185e82620186a0600160801b612f06565b91505b8160005b811561187957600101600a82049150611865565b6000190160008061188a8684612fb5565b91509150801561189b576001909201915b6118a3613e02565b8515611910576118c26118ba602b60ff8716610b5d565b600790610bba565b60ff9081166020830152600260808301526118e8906001906102c790602b908816610b5d565b60ff90811660a0830152602082015161190391166001610b5d565b60ff166040820152611987565b60098460ff16106119595761192960ff85166004610b5d565b60ff166020820181905260056080830152611945906001610b5d565b60ff1660a082015260046040820152611987565b6006602082015260056040820181905261197e906001906102c79060ff881690610b5d565b60ff1660608201525b82815285151560c0820152600060e08201526119a281610c7b565b9c9b505050505050505050505050565b606060008260020267ffffffffffffffff811180156119d057600080fd5b506040519080825280601f01601f1916602001820160405280156119fb576020820181803683370190505b5080519091505b8015611a71577f303132333435363738396162636465660000000000000000000000000000000085600f1660108110611a3757fe5b1a60f81b826001830381518110611a4a57fe5b60200101906001600160f81b031916908160001a90535060049490941c9360001901611a02565b509392505050565b1c60ff1690565b600082611a8f57506000610486565b82820282848281611a9c57fe5b04146106855760405162461bcd60e51b815260040180806020018281038252602181526020018061548a6021913960400191505060405180910390fd5b6060611b6e82610160015160405160200180806150446081913960810182805190602001908083835b60208310611b215780518252601f199092019160209182019101611b02565b6001836020036101000a038019825116818451168082178552505050505050905001806813979f1e17b9bb339f60b91b8152506009019150506040516020818303038152906040526109d8565b611cda836101e001518461020001518561018001516040516020018080614b816063913960630184805190602001908083835b60208310611bc05780518252601f199092019160209182019101611ba1565b51815160209384036101000a600019018019909216911617905265272063793d2760d01b919093019081528551600690910192860191508083835b60208310611c1a5780518252601f199092019160209182019101611bfb565b51815160209384036101000a60001901801990921691161790527f2720723d273132307078272066696c6c3d272300000000000000000000000000919093019081528451601390910192850191508083835b60208310611c8b5780518252601f199092019160209182019101611c6c565b6001836020036101000a038019825116818451168082178552505050505050905001806813979f1e17b9bb339f60b91b81525060090193505050506040516020818303038152906040526109d8565b611d2b846102200151856102400151866101a001516040516020018080614b8160639139606301848051906020019080838360208310611bc05780518252601f199092019160209182019101611ba1565b611e4a856102600151866102800151876101c001516040516020018080614b816063913960630184805190602001908083835b60208310611d7d5780518252601f199092019160209182019101611d5e565b51815160209384036101000a600019018019909216911617905265272063793d2760d01b919093019081528551600690910192860191508083835b60208310611dd75780518252601f199092019160209182019101611db8565b51815160001960209485036101000a019081169019919091161790527f2720723d273130307078272066696c6c3d272300000000000000000000000000939091019283528451601390930192908501915080838360208310611c8b5780518252601f199092019160209182019101611c6c565b6101608601516040516020018060566148fc8239605601602c6152ab82397f3c646566733e0000000000000000000000000000000000000000000000000000602c820152603201604b614ff98239604b0186805190602001908083835b60208310611ec65780518252601f199092019160209182019101611ea7565b6001836020036101000a03801982511681845116808217855250505050505090500180615b31603e9139603e0185805190602001908083835b60208310611f1e5780518252601f199092019160209182019101611eff565b6001836020036101000a038019825116818451168082178552505050505050905001806150c5603e9139603e0184805190602001908083835b60208310611f765780518252601f199092019160209182019101611f57565b5181516020939093036101000a60001901801990911692169190911790527f22202f3e00000000000000000000000000000000000000000000000000000000920191825250600401603b6147f48239603b0183805190602001908083835b60208310611ff35780518252601f199092019160209182019101611fd4565b6001836020036101000a03801982511681845116808217855250505050505090500180614c4160999139609901607f6156e28239607f016088615aa982396088016041614cda8239604101605d615c698239605d01607261578e8239607201604961475d823960490160be614f3b823960be016071614a0d8239607101607561562582396075016066614d1b823960660160a46152d7823960a4016085615b6f82397f3c6720636c69702d706174683d2275726c2823636f726e65727329223e00000060858201527f3c726563742066696c6c3d22000000000000000000000000000000000000000060a2820152825160ae9091019060208401908083835b602083106121115780518252601f1990920191602091820191016120f2565b6001836020036101000a03801982511681845116808217855250505050505090500180614d8160319139603101604e6147a68239604e01605d614be48239605d01604161522a8239604101605261510382396052016075615bf48239607501955050505050506040516020818303038152906040529050919050565b60608382858488878a896040516020018080615d4c60259139602501607d614ebe8239607d0189805190602001908083835b602083106121de5780518252601f1990920191602091820191016121bf565b51815160209384036101000a600019018019909216911617905264010714051160dd1b919093019081528a516005909101928b0191508083835b602083106122375780518252601f199092019160209182019101612218565b6001836020036101000a03801982511681845116808217855250505050505090500180614db2607991396079016086615cc6823960860187805190602001908083835b602083106122995780518252601f19909201916020918201910161227a565b51815160209384036101000a600019018019909216911617905264010714051160dd1b919093019081528851600590910192890191508083835b602083106122f25780518252601f1990920191602091820191016122d3565b6001836020036101000a0380198251168184511680821785525050505050509050018061498860859139608501607b6159178239607b0185805190602001908083835b602083106123545780518252601f199092019160209182019101612335565b51815160209384036101000a600019018019909216911617905264010714051160dd1b919093019081528651600590910192870191508083835b602083106123ad5780518252601f19909201916020918201910161238e565b6001836020036101000a03801982511681845116808217855250505050505090500180614ad2605d9139605d0160a3615582823960a30183805190602001908083835b6020831061240f5780518252601f1990920191602091820191016123f0565b51815160209384036101000a600019018019909216911617905264010714051160dd1b919093019081528451600590910192850191508083835b602083106124685780518252601f199092019160209182019101612449565b6001836020036101000a038019825116818451168082178552505050505050905001806146d2608b9139608b01985050505050505050506040516020818303038152906040529050949350505050565b6060838383604051602001808061482f60cd913960cd0184805190602001908083835b602083106124fa5780518252601f1990920191602091820191016124db565b6001836020036101000a03801982511681845116808217855250505050505090500180602f60f81b81525060010183805190602001908083835b602083106125535780518252601f199092019160209182019101612534565b6001836020036101000a03801982511681845116808217855250505050505090500180615ef56077913960770182805190602001908083835b602083106125ab5780518252601f19909201916020918201910161258c565b5181516020939093036101000a60001901801990911692169190911790526a1e17ba32bc3a1f1e17b39f60a91b920191825250600b016073615d958239607301935050505060405160208183030381529060405290509392505050565b606060008260000b60011461269a578260000b6000191461265e576040518060400160405280600581526020017f236e6f6e65000000000000000000000000000000000000000000000000000000815250612695565b6040518060400160405280600a81526020017f23666164652d646f776e000000000000000000000000000000000000000000008152505b6126d1565b6040518060400160405280600881526020017f23666164652d75700000000000000000000000000000000000000000000000008152505b905060006126e0878787613026565b9050818183836126ef88613274565b60405160200180807f3c67206d61736b3d2275726c2800000000000000000000000000000000000000815250600d0186805190602001908083835b602083106127495780518252601f19909201916020918201910161272a565b5181516020939093036101000a600019018019909116921691909117905261149160f11b920191825250600201607761537b823960770185805190602001908083835b602083106127ab5780518252601f19909201916020918201910161278c565b6001836020036101000a03801982511681845116808217855250505050505090500180614a7e60549139605401807f3c2f673e3c67206d61736b3d2275726c2800000000000000000000000000000081525060110184805190602001908083835b6020831061282b5780518252601f19909201916020918201910161280c565b5181516020939093036101000a600019018019909116921691909117905261149160f11b92019182525060020160296153f2823960290160456154458239604501807f3c7061746820643d22000000000000000000000000000000000000000000000081525060090183805190602001908083835b602083106128bf5780518252601f1990920191602091820191016128a0565b6001836020036101000a0380198251168184511680821785525050505050509050018061569a6048913960480182805190602001908083835b602083106129175780518252601f1990920191602091820191016128f8565b6001836020036101000a0380198251168184511680821785525050505050509050019550505050505060405160208183030381529060405292505050949350505050565b6060600061296884613748565b9050600061297584613748565b865183518251929350600490910191600a91820191016000806129988a8a613852565b915091506129ab8560040160070261068c565b8b6129bb8660040160070261068c565b896129cb8760040160070261068c565b8a87876040516020018080615761602d9139602d01806c1e3932b1ba103bb4b23a341e9160991b815250600d0189805190602001908083835b60208310612a235780518252601f199092019160209182019101612a04565b6001836020036101000a03801982511681845116808217855250505050505090500180615155603d9139603d01608d615e088239608d0188805190602001908083835b60208310612a855780518252601f199092019160209182019101612a66565b5181516020939093036101000a60001901801990911692169190911790526a1e17ba32bc3a1f1e17b39f60a91b920191825250600b01602d615fa48239602d01806c1e3932b1ba103bb4b23a341e9160991b815250600d0187805190602001908083835b60208310612b085780518252601f199092019160209182019101612ae9565b6001836020036101000a03801982511681845116808217855250505050505090500180615155603d9139603d016093614e2b823960930186805190602001908083835b60208310612b6a5780518252601f199092019160209182019101612b4b565b5181516020939093036101000a60001901801990911692169190911790526a1e17ba32bc3a1f1e17b39f60a91b920191825250600b01602d614b2f8239602d01806c1e3932b1ba103bb4b23a341e9160991b815250600d0185805190602001908083835b60208310612bed5780518252601f199092019160209182019101612bce565b6001836020036101000a03801982511681845116808217855250505050505090500180615155603d9139603d016093615992823960930184805190602001908083835b60208310612c4f5780518252601f199092019160209182019101612c30565b6001836020036101000a03801982511681845116808217855250505050505090500180615f6c603891396038016060615e958239606001606461551e82396064016025614b5c823960250183805190602001908083835b60208310612cc55780518252601f199092019160209182019101612ca6565b51815160209384036101000a60001901801990921691161790527f70782c2000000000000000000000000000000000000000000000000000000000919093019081528451600490910192850191508083835b60208310612d365780518252601f199092019160209182019101612d17565b6001836020036101000a0380198251168184511680821785525050505050509050018061495260369139603601985050505050505050506040516020818303038152906040529750505050505050509392505050565b6060612d988383613c83565b15612dee5760405160200180608d61588a8239608d0160736154ab823960730160716151b98239607101608a6158008239608a016084615a25823960840190506040516020818303038152906040529050610486565b5060408051602081019091526000815292915050565b600080612e1f612e1a60ff868116908616613ce6565b613d4b565b9050600081118015612e32575060128111155b15612ef3578260ff168460ff161115612e9c57612e66612e53826002610c14565b6001600160a01b03871690600a0a611a80565b91506002810660011415612e9757612e94827003298b075b4b6a5240945790619b37fd4a600160801b612f06565b91505b612eee565b612ebd612eaa826002610c14565b6001600160a01b03871690600a0a610c14565b91506002810660011415612eee57612eeb82600160801b7003298b075b4b6a5240945790619b37fd4a612f06565b91505b611a71565b50506001600160a01b0390921692915050565b6000808060001985870986860292508281109083900303905080612f3c5760008411612f3157600080fd5b508290049050610685565b808411612f4857600080fd5b6000848688096000868103871696879004966002600389028118808a02820302808a02820302808a02820302808a02820302808a02820302808a02909103029181900381900460010186841190950394909402919094039290920491909117919091029150509392505050565b600080600060058460ff161115612fdd57612fda8560ff600419870116600a0a610c14565b94505b60006004600a8706119050612ff386600a610c14565b95508015613002578560010195505b85620186a0141561301857600a86049550600191505b5084925090505b9250929050565b606060008260020b85850360020b8161303b57fe5b05905060048160020b13613086576040518060400160405280601a81526020017f4d312031433431203431203130352031303520313435203134350000000000008152509150611a71565b60088160020b136130ce576040518060400160405280601981526020017f4d312031433333203439203937203131332031343520313435000000000000008152509150611a71565b60108160020b13613116576040518060400160405280601981526020017f4d312031433333203537203839203131332031343520313435000000000000008152509150611a71565b60208160020b1361315e576040518060400160405280601981526020017f4d312031433235203635203831203132312031343520313435000000000000008152509150611a71565b60408160020b136131a6576040518060400160405280601981526020017f4d312031433137203733203733203132392031343520313435000000000000008152509150611a71565b60808160020b136131ee576040518060400160405280601881526020017f4d312031433920383120363520313337203134352031343500000000000000008152509150611a71565b6101008160020b13613237576040518060400160405280601a81526020017f4d31203143312038392035372e352031343520313435203134350000000000008152509150611a71565b505060408051808201909152601881527f4d3120314331203937203439203134352031343520313435000000000000000060208201529392505050565b604080518082018252600281527f37330000000000000000000000000000000000000000000000000000000000006020808301919091528251808401845260038082527f313930000000000000000000000000000000000000000000000000000000000082840152845180860186528181527f32313700000000000000000000000000000000000000000000000000000000008185015285518087019096529085527f3333340000000000000000000000000000000000000000000000000000000000928501929092526060939091906001600087900b148061335b57508560000b600019145b15613552578560000b600019146133725781613374565b835b8660000b600019146133865781613388565b835b8760000b6000191461339a578361339c565b855b8860000b600019146133ae57836133b0565b855b60405160200180806b1e31b4b931b6329031bc1e9160a11b815250600c0185805190602001908083835b602083106133f95780518252601f1990920191602091820191016133da565b51815160209384036101000a600019018019909216911617905267383c111031bc9e9160c11b919093019081528651600890910192870191508083835b602083106134555780518252601f199092019160209182019101613436565b6001836020036101000a038019825116818451168082178552505050505050905001806151926027913960270183805190602001908083835b602083106134ad5780518252601f19909201916020918201910161348e565b51815160209384036101000a600019018019909216911617905267383c111031bc9e9160c11b919093019081528451600890910192850191508083835b602083106135095780518252601f1990920191602091820191016134ea565b6001836020036101000a0380198251168184511680821785525050505050509050018061541b602a9139602a01945050505050604051602081830303815290604052945061373f565b8383838360405160200180806b1e31b4b931b6329031bc1e9160a11b815250600c0185805190602001908083835b6020831061359f5780518252601f199092019160209182019101613580565b51815160209384036101000a600019018019909216911617905267383c111031bc9e9160c11b919093019081528651600890910192870191508083835b602083106135fb5780518252601f1990920191602091820191016135dc565b51815160209384036101000a60001901801990921691161790527f70782220723d22347078222066696c6c3d22776869746522202f3e0000000000919093019081526b1e31b4b931b6329031bc1e9160a11b601b8201528551602790910192860191508083835b602083106136815780518252601f199092019160209182019101613662565b51815160209384036101000a600019018019909216911617905267383c111031bc9e9160c11b919093019081528451600890910192850191508083835b602083106136dd5780518252601f1990920191602091820191016136be565b6001836020036101000a038019825116818451168082178552505050505050905001807f70782220723d22347078222066696c6c3d22776869746522202f3e0000000000815250601b0194505050505060405160208183030381529060405294505b50505050919050565b6060600060405180602001604052806000815250905060008360020b121561378e5782600019029250604051806040016040528060018152602001602d60f81b81525090505b8061379b8460020b61068c565b6040516020018083805190602001908083835b602083106137cd5780518252601f1990920191602091820191016137ae565b51815160209384036101000a600019018019909216911617905285519190930192850191508083835b602083106138155780518252601f1990920191602091820191016137f6565b6001836020036101000a03801982511681845116808217855250505050505090500192505050604051602081830303815290604052915050919050565b60608060006002858501810b0590506201e847198160020b12156138ca57604051806040016040528060018152602001600760fb1b8152506040518060400160405280600181526020017f3700000000000000000000000000000000000000000000000000000000000000815250925092505061301f565b620124f7198160020b121561393357604051806040016040528060018152602001600760fb1b8152506040518060400160405280600481526020017f31302e3500000000000000000000000000000000000000000000000000000000815250925092505061301f565b6161a7198160020b121561399b57604051806040016040528060018152602001600760fb1b8152506040518060400160405280600581526020017f31342e3235000000000000000000000000000000000000000000000000000000815250925092505061301f565b611387198160020b1215613a04576040518060400160405280600281526020017f313000000000000000000000000000000000000000000000000000000000000081525060405180604001604052806002815260200161062760f31b815250925092505061301f565b60008160020b1215613a6b576040518060400160405280600281526020017f313100000000000000000000000000000000000000000000000000000000000081525060405180604001604052806002815260200161323160f01b815250925092505061301f565b6113888160020b1215613aee576040518060400160405280600281526020017f31330000000000000000000000000000000000000000000000000000000000008152506040518060400160405280600281526020017f3233000000000000000000000000000000000000000000000000000000000000815250925092505061301f565b6161a88160020b1215613b71576040518060400160405280600281526020017f31350000000000000000000000000000000000000000000000000000000000008152506040518060400160405280600281526020017f3235000000000000000000000000000000000000000000000000000000000000815250925092505061301f565b620124f88160020b1215613bda5760405180604001604052806002815260200161062760f31b8152506040518060400160405280600281526020017f3236000000000000000000000000000000000000000000000000000000000000815250925092505061301f565b6201e8488160020b1215613c285760405180604001604052806002815260200161323160f01b81525060405180604001604052806002815260200161323760f01b815250925092505061301f565b6040518060400160405280600281526020017f323400000000000000000000000000000000000000000000000000000000000081525060405180604001604052806002815260200161323760f01b815250925092505061301f565b6040805160208082018590526bffffffffffffffffffffffff19606085901b16828401528251603481840301815260549092019092528051910120600090613cca84613d62565b60020260010160ff1660001981613cdd57fe5b04119392505050565b6000818303818312801590613cfb5750838113155b80613d105750600083128015613d1057508381135b6106855760405162461bcd60e51b8152600401808060200182810382526024815260200180615d716024913960400191505060405180910390fd5b600080821215613d5e5781600003610486565b5090565b6000808211613d7057600080fd5b600160801b8210613d8357608091821c91015b680100000000000000008210613d9b57604091821c91015b6401000000008210613daf57602091821c91015b620100008210613dc157601091821c91015b6101008210613dd257600891821c91015b60108210613de257600491821c91015b60048210613df257600291821c91015b6002821061016b57600101919050565b6040805161010081018252600080825260208201819052918101829052606081018290526080810182905260a0810182905260c0810182905260e081019190915290565b80356001600160a01b038116811461016b57600080fd5b8035801515811461016b57600080fd5b8035600281900b811461016b57600080fd5b600082601f830112613e8f578081fd5b813567ffffffffffffffff811115613ea357fe5b613eb6601f8201601f191660200161467d565b818152846020838601011115613eca578283fd5b816020850160208301379081016020019190915292915050565b803562ffffff8116811461016b57600080fd5b803560ff8116811461016b57600080fd5b600060208284031215613f19578081fd5b813567ffffffffffffffff80821115613f30578283fd5b81840191506101c0808387031215613f46578384fd5b613f4f8161467d565b905082358152613f6160208401613e46565b6020820152613f7260408401613e46565b6040820152606083013582811115613f88578485fd5b613f9487828601613e7f565b606083015250608083013582811115613fab578485fd5b613fb787828601613e7f565b608083015250613fc960a08401613ef7565b60a0820152613fda60c08401613ef7565b60c0820152613feb60e08401613e5d565b60e08201526101009150614000828401613e6d565b828201526101209150614014828401613e6d565b828201526101409150614028828401613e6d565b82820152610160915061403c828401613e6d565b828201526101809150614050828401613ee4565b828201526101a09150614064828401613e46565b91810191909152949350505050565b600081516140858185602086016146a1565b9290920192915050565b7fe29aa0efb88f20444953434c41494d45523a204475652064696c6967656e636581527f20697320696d7065726174697665207768656e20617373657373696e6720746860208201527f6973204e46542e204d616b65207375726520746f6b656e20616464726573736560408201527f73206d617463682074686520657870656374656420746f6b656e732c2061732060608201527f746f6b656e2073796d626f6c73206d617920626520696d6974617465642e00006080820152609e0190565b7f5c6e5c6e00000000000000000000000000000000000000000000000000000000815260040190565b60007f54686973204e465420726570726573656e74732061206c69717569646974792082527f706f736974696f6e20696e206120556e69737761702056332000000000000000602083015285516141d7816039850160208a016146a1565b602d60f81b60399184019182015285516141f881603a840160208a016146a1565b7f20706f6f6c2e2000000000000000000000000000000000000000000000000000603a92909101918201527f546865206f776e6572206f662074686973204e46542063616e206d6f6469667960418201527f206f722072656465656d2074686520706f736974696f6e2e5c6e00000000000060618201527f5c6e506f6f6c20416464726573733a2000000000000000000000000000000000607b82015284516142a881608b8401602089016146a1565b612e3760f11b608b92909101918201526103c6608d820185614073565b60007f7b226e616d65223a220000000000000000000000000000000000000000000000825285516142fd816009850160208a016146a1565b7f222c20226465736372697074696f6e223a220000000000000000000000000000600991840191820152855161433a81601b840160208a016146a1565b855191019061435081601b8401602089016146a1565b7f222c2022696d616765223a202200000000000000000000000000000000000000601b92909101918201527f646174613a696d6167652f7376672b786d6c3b6261736536342c000000000000602882015283516143b48160428401602088016146a1565b7f227d000000000000000000000000000000000000000000000000000000000000604292909101918201526044019695505050505050565b60007f556e6973776170202d20000000000000000000000000000000000000000000008252865161442481600a850160208b016146a1565b80830190507f202d20000000000000000000000000000000000000000000000000000000000080600a830152875161446381600d850160208c016146a1565b602f60f81b600d9390910192830152865161448581600e850160208b016146a1565b600e92019182015284516144a08160118401602089016146a1565b7f3c3e0000000000000000000000000000000000000000000000000000000000006011929091019182015283516144de8160138401602088016146a1565b01601301979650505050505050565b60007f20416464726573733a2000000000000000000000000000000000000000000000808352875161452681600a860160208c016146a1565b612e3760f11b600a91850191820152875161454881600c840160208c016146a1565b01600c810191909152855190614565826016830160208a016146a1565b8181019150507f5c6e46656520546965723a200000000000000000000000000000000000000000601682015284516145a48160228401602089016146a1565b7f5c6e546f6b656e2049443a2000000000000000000000000000000000000000006022929091019182015283516145e281602e8401602088016146a1565b6145f86145f3602e83850101614150565b61408f565b9998505050505050505050565b60007f646174613a6170706c69636174696f6e2f6a736f6e3b6261736536342c0000008252825161463d81601d8501602087016146a1565b91909101601d0192915050565b60006020825282518060208401526146698160408501602087016146a1565b601f01601f19169190910160400192915050565b60405181810167ffffffffffffffff8111828210171561469957fe5b604052919050565b60005b838110156146bc5781810151838201526020016146a4565b838111156146cb576000848401525b5050505056fe203c616e696d6174652061646469746976653d2273756d22206174747269627574654e616d653d2273746172744f6666736574222066726f6d3d2230252220746f3d22313030252220626567696e3d22307322206475723d223330732220726570656174436f756e743d22696e646566696e69746522202f3e3c2f74657874506174683e3c2f746578743e3c73746f70206f66667365743d222e39222073746f702d636f6c6f723d227768697465222073746f702d6f7061636974793d223022202f3e3c2f6c696e6561724772616469656e743e3c72656374207374796c653d2266696c7465723a2075726c28236631292220783d223070782220793d22307078222077696474683d22323930707822206865696768743d22353030707822202f3e3c6665496d61676520726573756c743d2270332220786c696e6b3a687265663d22646174613a696d6167652f7376672b786d6c3b6261736536342c3c67206d61736b3d2275726c2823666164652d73796d626f6c29223e3c726563742066696c6c3d226e6f6e652220783d223070782220793d22307078222077696474683d22323930707822206865696768743d22323030707822202f3e203c7465787420793d22373070782220783d2233327078222066696c6c3d2277686974652220666f6e742d66616d696c793d2227436f7572696572204e6577272c206d6f6e6f73706163652220666f6e742d7765696768743d223230302220666f6e742d73697a653d2233367078223e3c7376672077696474683d2232393022206865696768743d22353030222076696577426f783d2230203020323930203530302220786d6c6e733d22687474703a2f2f7777772e77332e6f72672f323030302f7376672270782c2030707829222063783d22307078222063793d223070782220723d22347078222066696c6c3d227768697465222f3e3c2f673e203c616e696d6174652061646469746976653d2273756d22206174747269627574654e616d653d2273746172744f6666736574222066726f6d3d2230252220746f3d22313030252220626567696e3d22307322206475723d223330732220726570656174436f756e743d22696e646566696e69746522202f3e203c2f74657874506174683e3c6d61736b2069643d22666164652d757022206d61736b436f6e74656e74556e6974733d226f626a656374426f756e64696e67426f78223e3c726563742077696474683d223122206865696768743d2231222066696c6c3d2275726c2823677261642d75702922202f3e3c2f6d61736b3e22207374726f6b653d227267626128302c302c302c302e332922207374726f6b652d77696474683d2233327078222066696c6c3d226e6f6e6522207374726f6b652d6c696e656361703d22726f756e6422202f3e203c616e696d6174652061646469746976653d2273756d22206174747269627574654e616d653d2273746172744f6666736574222066726f6d3d2230252220746f3d22313030252220626567696e3d22307322206475723d2233307322203c67207374796c653d227472616e73666f726d3a7472616e736c61746528323970782c20343434707829223e3c636972636c65207374796c653d227472616e73666f726d3a7472616e736c6174653364283c7376672077696474683d2732393027206865696768743d27353030272076696577426f783d2730203020323930203530302720786d6c6e733d27687474703a2f2f7777772e77332e6f72672f323030302f737667273e3c636972636c652063783d27203c67207374796c653d2266696c7465723a75726c2823746f702d726567696f6e2d626c7572293b207472616e73666f726d3a7363616c6528312e35293b207472616e73666f726d2d6f726967696e3a63656e74657220746f703b223e22202f3e3c6665426c656e64206d6f64653d226f7665726c61792220696e3d2270302220696e323d22703122202f3e3c6665426c656e64206d6f64653d226578636c7573696f6e2220696e323d22703222202f3e3c6665426c656e64206d6f64653d226f7665726c61792220696e323d2270332220726573756c743d22626c656e644f757422202f3e3c6665476175737369616e426c7572203c706174682069643d226d696e696d61702220643d224d3233342034343443323334203435372e393439203234322e323120343633203235332034363322202f3e3c6d61736b2069643d226e6f6e6522206d61736b436f6e74656e74556e6974733d226f626a656374426f756e64696e67426f78223e3c726563742077696474683d223122206865696768743d2231222066696c6c3d22776869746522202f3e3c2f6d61736b3e2220783d223070782220793d22307078222077696474683d22323930707822206865696768743d22353030707822202f3e203c616e696d6174652061646469746976653d2273756d22206174747269627574654e616d653d2273746172744f6666736574222066726f6d3d2230252220746f3d22313030252220626567696e3d22307322206475723d223330732220726570656174436f756e743d22696e646566696e69746522202f3e3c7465787420783d22313270782220793d22313770782220666f6e742d66616d696c793d2227436f7572696572204e6577272c206d6f6e6f73706163652220666f6e742d73697a653d2231327078222066696c6c3d227768697465223e3c747370616e2066696c6c3d2272676261283235352c3235352c3235352c302e3629223e4d696e205469636b3a203c2f747370616e3e3c74657874506174682073746172744f66667365743d222d31303025222066696c6c3d2277686974652220666f6e742d66616d696c793d2227436f7572696572204e6577272c206d6f6e6f73706163652220666f6e742d73697a653d22313070782220786c696e6b3a687265663d2223746578742d706174682d61223e3c6c696e6561724772616469656e742069643d22677261642d646f776e222078313d2230222078323d2231222079313d2230222079323d2231223e3c73746f70206f66667365743d22302e30222073746f702d636f6c6f723d227768697465222073746f702d6f7061636974793d223122202f3e3c73746f70206f66667365743d22302e39222073746f702d636f6c6f723d227768697465222073746f702d6f7061636974793d223022202f3e3c2f6c696e6561724772616469656e743e3c66696c7465722069643d226631223e3c6665496d61676520726573756c743d2270302220786c696e6b3a687265663d22646174613a696d6167652f7376672b786d6c3b6261736536342c3c7376672077696474683d2732393027206865696768743d27353030272076696577426f783d2730203020323930203530302720786d6c6e733d27687474703a2f2f7777772e77332e6f72672f323030302f737667273e3c726563742077696474683d27323930707827206865696768743d273530307078272066696c6c3d2723222f3e3c6665496d61676520726573756c743d2270322220786c696e6b3a687265663d22646174613a696d6167652f7376672b786d6c3b6261736536342c3c656c6c697073652063783d22353025222063793d22307078222072783d223138307078222072793d223132307078222066696c6c3d222330303022206f7061636974793d22302e383522202f3e3c2f673e707822206865696768743d2232367078222072783d22387078222072793d22387078222066696c6c3d227267626128302c302c302c302e362922202f3e70782220723d22347078222066696c6c3d22776869746522202f3e3c636972636c652063783d2231312e333437384c32342031324c31342e343334312031322e363532324c32322e333932332031384c31332e373831392031332e373831394c31382032322e333932334c31322e363532322031342e343334314c31322032344c31312e333437382031342e343334314c362032322e33393c726563742066696c6c3d226e6f6e652220783d223070782220793d22307078222077696474683d22323930707822206865696768743d22353030707822202f3e4142434445464748494a4b4c4d4e4f505152535455565758595a6162636465666768696a6b6c6d6e6f707172737475767778797a303132333435363738392b2f20786d6c6e733a786c696e6b3d27687474703a2f2f7777772e77332e6f72672f313939392f786c696e6b273e3c6c696e6561724772616469656e742069643d22677261642d73796d626f6c223e3c73746f70206f66667365743d22302e37222073746f702d636f6c6f723d227768697465222073746f702d6f7061636974793d223122202f3e3c73746f70206f66667365743d222e3935222073746f702d636f6c6f723d227768697465222073746f702d6f7061636974793d223022202f3e3c2f6c696e6561724772616469656e743e207374796c653d227472616e73666f726d3a7472616e736c61746528373270782c313839707829223e3c7265637420783d222d313670782220793d222d31367078222077696474683d22313830707822206865696768743d223138307078222066696c6c3d226e6f6e6522202f3e3c7061746820643d22207374796c653d227472616e73666f726d3a7472616e736c61746528373270782c313839707829223e70782220723d2232347078222066696c6c3d226e6f6e6522207374726f6b653d22776869746522202f3e3c7265637420783d222d313670782220793d222d31367078222077696474683d22313830707822206865696768743d223138307078222066696c6c3d226e6f6e6522202f3e536166654d6174683a206d756c7469706c69636174696f6e206f766572666c6f773c673e3c70617468207374796c653d227472616e73666f726d3a7472616e736c617465283670782c367078292220643d224d313220304c31322e3635323220392e35363538374c313820312e363037374c31332e373831392031302e323138314c32322e3339323320364c31342e34333431203c70617468207374726f6b652d6c696e656361703d22726f756e642220643d224d38203943382e30303030342032322e393439342031362e32303939203238203237203238222066696c6c3d226e6f6e6522207374726f6b653d22776869746522202f3e20726570656174436f756e743d22696e646566696e69746522202f3e3c2f74657874506174683e3c74657874506174682073746172744f66667365743d222d353025222066696c6c3d2277686974652220666f6e742d66616d696c793d2227436f7572696572204e6577272c206d6f6e6f73706163652220666f6e742d73697a653d22313070782220786c696e6b3a687265663d2223746578742d706174682d61223e3c6d61736b2069643d22666164652d646f776e22206d61736b436f6e74656e74556e6974733d226f626a656374426f756e64696e67426f78223e3c726563742077696474683d223122206865696768743d2231222066696c6c3d2275726c2823677261642d646f776e2922202f3e3c2f6d61736b3e22207374726f6b653d2272676261283235352c3235352c3235352c3129222066696c6c3d226e6f6e6522207374726f6b652d6c696e656361703d22726f756e6422202f3e3c2f673e696e3d22626c656e644f75742220737464446576696174696f6e3d22343222202f3e3c2f66696c7465723e203c636c6970506174682069643d22636f726e657273223e3c726563742077696474683d2232393022206865696768743d22353030222072783d223432222072793d22343222202f3e3c2f636c6970506174683e203c67207374796c653d227472616e73666f726d3a7472616e736c61746528323970782c20333834707829223e3c6c696e6561724772616469656e742069643d22677261642d7570222078313d2231222078323d2230222079313d2231222079323d2230223e3c73746f70206f66667365743d22302e30222073746f702d636f6c6f723d227768697465222073746f702d6f7061636974793d223122202f3e32334c31302e323138312031332e373831394c312e363037372031384c392e35363538372031322e363532324c302031324c392e35363538372031312e333437384c312e3630373720364c31302e323138312031302e323138314c3620312e363037374c31312e3334373820392e35363538374c313220305a222066696c6c3d22776869746522202f3e3c67207374796c653d227472616e73666f726d3a7472616e736c6174652832323670782c20333932707829223e3c726563742077696474683d223336707822206865696768743d2233367078222072783d22387078222072793d22387078222066696c6c3d226e6f6e6522207374726f6b653d2272676261283235352c3235352c3235352c302e322922202f3e3c74657874506174682073746172744f66667365743d22353025222066696c6c3d2277686974652220666f6e742d66616d696c793d2227436f7572696572204e6577272c206d6f6e6f73706163652220666f6e742d73697a653d22313070782220786c696e6b3a687265663d2223746578742d706174682d61223e3c7465787420783d22313270782220793d22313770782220666f6e742d66616d696c793d2227436f7572696572204e6577272c206d6f6e6f73706163652220666f6e742d73697a653d2231327078222066696c6c3d227768697465223e3c747370616e2066696c6c3d2272676261283235352c3235352c3235352c302e3629223e4d6178205469636b3a203c2f747370616e3e3c616e696d6174655472616e73666f726d206174747269627574654e616d653d227472616e73666f726d2220747970653d22726f74617465222066726f6d3d22302031382031382220746f3d2233363020313820313822206475723d223130732220726570656174436f756e743d22696e646566696e697465222f3e3c2f673e3c2f673e3c706174682069643d22746578742d706174682d612220643d224d34302031322048323530204132382032382030203020312032373820343020563436302041323820323820302030203120323530203438382048343020413238203238203020302031203132203436302056343020413238203238203020302031203430203132207a22202f3e222f3e3c6665496d61676520726573756c743d2270312220786c696e6b3a687265663d22646174613a696d6167652f7376672b786d6c3b6261736536342c3c6d61736b2069643d22666164652d73796d626f6c22206d61736b436f6e74656e74556e6974733d227573657253706163654f6e557365223e3c726563742077696474683d22323930707822206865696768743d223230307078222066696c6c3d2275726c2823677261642d73796d626f6c2922202f3e3c2f6d61736b3e3c2f646566733e3c7265637420783d22302220793d2230222077696474683d2232393022206865696768743d22353030222072783d223432222072793d223432222066696c6c3d227267626128302c302c302c302922207374726f6b653d2272676261283235352c3235352c3235352c302e322922202f3e3c2f673e3c66696c7465722069643d22746f702d726567696f6e2d626c7572223e3c6665476175737369616e426c757220696e3d22536f75726365477261706869632220737464446576696174696f6e3d22323422202f3e3c2f66696c7465723e3c2f74657874506174683e203c74657874506174682073746172744f66667365743d223025222066696c6c3d2277686974652220666f6e742d66616d696c793d2227436f7572696572204e6577272c206d6f6e6f73706163652220666f6e742d73697a653d22313070782220786c696e6b3a687265663d2223746578742d706174682d61223e3c7465787420746578742d72656e646572696e673d226f7074696d697a655370656564223e5369676e6564536166654d6174683a207375627472616374696f6e206f766572666c6f773c7265637420783d2231362220793d223136222077696474683d2232353822206865696768743d22343638222072783d223236222072793d223236222066696c6c3d227267626128302c302c302c302922207374726f6b653d2272676261283235352c3235352c3235352c302e322922202f3e3c7465787420783d22313270782220793d22313770782220666f6e742d66616d696c793d2227436f7572696572204e6577272c206d6f6e6f73706163652220666f6e742d73697a653d2231327078222066696c6c3d227768697465223e3c747370616e2066696c6c3d2272676261283235352c3235352c3235352c302e3629223e49443a203c2f747370616e3e3c726563742077696474683d223336707822206865696768743d2233367078222072783d22387078222072793d22387078222066696c6c3d226e6f6e6522207374726f6b653d2272676261283235352c3235352c3235352c302e322922202f3e3c2f746578743e3c7465787420793d2231313570782220783d2233327078222066696c6c3d2277686974652220666f6e742d66616d696c793d2227436f7572696572204e6577272c206d6f6e6f73706163652220666f6e742d7765696768743d223230302220666f6e742d73697a653d2233367078223e3c2f746578743e3c2f673e3c67207374796c653d227472616e73666f726d3a7472616e736c6174652832323670782c20343333707829223e203c67207374796c653d227472616e73666f726d3a7472616e736c61746528323970782c20343134707829223ea164736f6c6343000706000a","opcodes":"PUSH2 0x5FDD PUSH2 0x26 PUSH1 0xB DUP3 DUP3 DUP3 CODECOPY DUP1 MLOAD PUSH1 0x0 BYTE PUSH1 0x73 EQ PUSH2 0x19 JUMPI INVALID JUMPDEST ADDRESS PUSH1 0x0 MSTORE PUSH1 0x73 DUP2 MSTORE8 DUP3 DUP2 RETURN INVALID PUSH20 0x0 ADDRESS EQ PUSH1 0x80 PUSH1 0x40 MSTORE PUSH1 0x4 CALLDATASIZE LT PUSH2 0x35 JUMPI PUSH1 0x0 CALLDATALOAD PUSH1 0xE0 SHR DUP1 PUSH4 0xC49917D7 EQ PUSH2 0x3A JUMPI JUMPDEST PUSH1 0x0 DUP1 REVERT JUMPDEST PUSH2 0x4D PUSH2 0x48 CALLDATASIZE PUSH1 0x4 PUSH2 0x3F08 JUMP JUMPDEST PUSH2 0x63 JUMP JUMPDEST PUSH1 0x40 MLOAD PUSH2 0x5A SWAP2 SWAP1 PUSH2 0x464A JUMP JUMPDEST PUSH1 0x40 MLOAD DUP1 SWAP2 SUB SWAP1 RETURN JUMPDEST PUSH1 0x60 PUSH1 0x0 PUSH2 0x7E DUP4 PUSH2 0x79 DUP6 PUSH2 0x180 ADD MLOAD PUSH2 0x170 JUMP JUMPDEST PUSH2 0x3D1 JUMP JUMPDEST SWAP1 POP PUSH1 0x0 PUSH2 0xB2 PUSH2 0x92 DUP6 PUSH1 0x60 ADD MLOAD PUSH2 0x48C JUMP JUMPDEST PUSH2 0x9F DUP7 PUSH1 0x80 ADD MLOAD PUSH2 0x48C JUMP JUMPDEST PUSH2 0xAD DUP8 PUSH2 0x1A0 ADD MLOAD PUSH2 0x644 JUMP JUMPDEST PUSH2 0x65A JUMP JUMPDEST SWAP1 POP PUSH1 0x0 PUSH2 0x100 PUSH2 0xC6 DUP7 PUSH1 0x0 ADD MLOAD PUSH2 0x68C JUMP JUMPDEST PUSH2 0xD3 DUP8 PUSH1 0x80 ADD MLOAD PUSH2 0x48C JUMP JUMPDEST PUSH2 0xE0 DUP9 PUSH1 0x20 ADD MLOAD PUSH2 0x644 JUMP JUMPDEST PUSH2 0xED DUP10 PUSH1 0x40 ADD MLOAD PUSH2 0x644 JUMP JUMPDEST PUSH2 0xFB DUP11 PUSH2 0x180 ADD MLOAD PUSH2 0x170 JUMP JUMPDEST PUSH2 0x767 JUMP JUMPDEST SWAP1 POP PUSH1 0x0 PUSH2 0x115 PUSH2 0x110 DUP8 PUSH2 0x79D JUMP JUMPDEST PUSH2 0x9D8 JUMP JUMPDEST SWAP1 POP PUSH2 0x145 DUP5 DUP5 DUP5 DUP5 PUSH1 0x40 MLOAD PUSH1 0x20 ADD PUSH2 0x131 SWAP5 SWAP4 SWAP3 SWAP2 SWAP1 PUSH2 0x42C5 JUMP JUMPDEST PUSH1 0x40 MLOAD PUSH1 0x20 DUP2 DUP4 SUB SUB DUP2 MSTORE SWAP1 PUSH1 0x40 MSTORE PUSH2 0x9D8 JUMP JUMPDEST PUSH1 0x40 MLOAD PUSH1 0x20 ADD PUSH2 0x155 SWAP2 SWAP1 PUSH2 0x4605 JUMP JUMPDEST PUSH1 0x40 MLOAD PUSH1 0x20 DUP2 DUP4 SUB SUB DUP2 MSTORE SWAP1 PUSH1 0x40 MSTORE SWAP5 POP POP POP POP POP JUMPDEST SWAP2 SWAP1 POP JUMP JUMPDEST PUSH1 0x60 PUSH3 0xFFFFFF DUP3 AND PUSH2 0x1B6 JUMPI POP PUSH1 0x40 DUP1 MLOAD DUP1 DUP3 ADD SWAP1 SWAP2 MSTORE PUSH1 0x2 DUP2 MSTORE PUSH32 0x3025000000000000000000000000000000000000000000000000000000000000 PUSH1 0x20 DUP3 ADD MSTORE PUSH2 0x16B JUMP JUMPDEST DUP2 PUSH1 0x0 DUP1 JUMPDEST PUSH3 0xFFFFFF DUP4 AND ISZERO PUSH2 0x206 JUMPI PUSH1 0xFF DUP2 AND ISZERO PUSH2 0x1D7 JUMPI PUSH1 0x1 ADD PUSH2 0x1F0 JUMP JUMPDEST PUSH1 0xA PUSH3 0xFFFFFF DUP5 AND MOD PUSH3 0xFFFFFF AND PUSH1 0x0 EQ PUSH2 0x1F0 JUMPI PUSH1 0x1 ADD JUMPDEST PUSH1 0x1 SWAP1 SWAP2 ADD SWAP1 PUSH1 0xA PUSH3 0xFFFFFF DUP5 AND DIV SWAP3 POP PUSH2 0x1BB JUMP JUMPDEST PUSH2 0x20E PUSH2 0x3E02 JUMP JUMPDEST PUSH1 0x0 PUSH1 0x5 DUP5 LT PUSH2 0x303 JUMPI PUSH1 0x0 PUSH1 0x4 PUSH2 0x229 DUP7 PUSH1 0xFF DUP8 AND PUSH2 0xB5D JUMP JUMPDEST LT ISZERO PUSH2 0x236 JUMPI PUSH1 0x1 PUSH2 0x239 JUMP JUMPDEST PUSH1 0x0 JUMPDEST PUSH1 0xFF SWAP1 DUP2 AND SWAP2 POP PUSH2 0x24D SWAP1 DUP6 AND PUSH1 0x1 PUSH2 0xB5D JUMP JUMPDEST PUSH2 0x258 DUP7 PUSH1 0x5 PUSH2 0xB5D JUMP JUMPDEST LT PUSH2 0x284 JUMPI PUSH2 0x27F PUSH2 0x26E PUSH1 0xFF DUP7 AND PUSH1 0x1 PUSH2 0xB5D JUMP JUMPDEST PUSH2 0x279 DUP8 PUSH1 0x5 PUSH2 0xB5D JUMP JUMPDEST SWAP1 PUSH2 0xB5D JUMP JUMPDEST PUSH2 0x287 JUMP JUMPDEST PUSH1 0x0 JUMPDEST PUSH1 0xFF DUP6 AND PUSH1 0x80 DUP6 ADD DUP2 SWAP1 MSTORE SWAP1 SWAP3 POP PUSH2 0x2A6 SWAP1 PUSH1 0x1 SWAP1 PUSH2 0x279 SWAP1 DUP6 PUSH2 0xBBA JUMP JUMPDEST PUSH1 0xFF SWAP1 DUP2 AND PUSH1 0xA0 DUP6 ADD MSTORE PUSH1 0x80 DUP5 ADD MLOAD PUSH2 0x2CD SWAP2 DUP4 SWAP2 PUSH2 0x2C7 SWAP2 AND PUSH1 0x1 PUSH2 0xB5D JUMP JUMPDEST SWAP1 PUSH2 0xBBA JUMP JUMPDEST PUSH1 0xFF SWAP1 DUP2 AND PUSH1 0x40 DUP6 ADD MSTORE PUSH2 0x2F5 SWAP1 DUP3 SWAP1 PUSH2 0x2C7 SWAP1 PUSH2 0x2EE SWAP1 DUP9 AND PUSH1 0x1 PUSH2 0xBBA JUMP JUMPDEST DUP6 SWAP1 PUSH2 0xBBA JUMP JUMPDEST PUSH1 0xFF AND PUSH1 0x20 DUP5 ADD MSTORE POP PUSH2 0x373 JUMP JUMPDEST PUSH2 0x30E PUSH1 0x5 DUP6 PUSH2 0xB5D JUMP JUMPDEST PUSH1 0x2 PUSH1 0x80 DUP5 ADD DUP2 SWAP1 MSTORE SWAP1 SWAP2 POP PUSH2 0x32C SWAP1 PUSH1 0x1 SWAP1 PUSH2 0x279 SWAP1 DUP5 SWAP1 PUSH2 0xBBA JUMP JUMPDEST PUSH1 0xFF SWAP1 DUP2 AND PUSH1 0xA0 DUP5 ADD MSTORE PUSH2 0x34E SWAP1 PUSH2 0x347 SWAP1 DUP6 AND PUSH1 0x2 PUSH2 0xBBA JUMP JUMPDEST DUP3 SWAP1 PUSH2 0xBBA JUMP JUMPDEST PUSH1 0xFF AND PUSH1 0x20 DUP4 ADD DUP2 SWAP1 MSTORE PUSH2 0x363 SWAP1 PUSH1 0x2 PUSH2 0xB5D JUMP JUMPDEST PUSH1 0xFF AND PUSH1 0x40 DUP4 ADD MSTORE PUSH1 0x1 PUSH1 0xC0 DUP4 ADD MSTORE JUMPDEST PUSH2 0x392 PUSH2 0x383 DUP6 PUSH1 0xFF DUP7 AND PUSH2 0xB5D JUMP JUMPDEST PUSH3 0xFFFFFF DUP10 AND SWAP1 PUSH1 0xA EXP PUSH2 0xC14 JUMP JUMPDEST DUP3 MSTORE PUSH1 0x1 PUSH1 0xE0 DUP4 ADD MSTORE PUSH1 0x4 DUP5 GT PUSH2 0x3AA JUMPI PUSH1 0x0 PUSH2 0x3B5 JUMP JUMPDEST PUSH2 0x3B5 DUP5 PUSH1 0x4 PUSH2 0xB5D JUMP JUMPDEST PUSH1 0xFF AND PUSH1 0x60 DUP4 ADD MSTORE PUSH2 0x3C6 DUP3 PUSH2 0xC7B JUMP JUMPDEST SWAP8 SWAP7 POP POP POP POP POP POP POP JUMP JUMPDEST PUSH1 0x60 DUP2 PUSH2 0x3E1 DUP5 PUSH1 0x60 ADD MLOAD PUSH2 0x48C JUMP JUMPDEST PUSH2 0x3EE DUP6 PUSH1 0x80 ADD MLOAD PUSH2 0x48C JUMP JUMPDEST PUSH2 0x427 DUP7 PUSH1 0xE0 ADD MLOAD ISZERO PUSH2 0x406 JUMPI DUP7 PUSH2 0x120 ADD MLOAD PUSH2 0x40D JUMP JUMPDEST DUP7 PUSH2 0x100 ADD MLOAD JUMPDEST DUP8 PUSH2 0x160 ADD MLOAD DUP9 PUSH1 0xC0 ADD MLOAD DUP10 PUSH1 0xA0 ADD MLOAD DUP11 PUSH1 0xE0 ADD MLOAD PUSH2 0xEA7 JUMP JUMPDEST PUSH2 0x460 DUP8 PUSH1 0xE0 ADD MLOAD ISZERO PUSH2 0x43F JUMPI DUP8 PUSH2 0x100 ADD MLOAD PUSH2 0x446 JUMP JUMPDEST DUP8 PUSH2 0x120 ADD MLOAD JUMPDEST DUP9 PUSH2 0x160 ADD MLOAD DUP10 PUSH1 0xC0 ADD MLOAD DUP11 PUSH1 0xA0 ADD MLOAD DUP12 PUSH1 0xE0 ADD MLOAD PUSH2 0xEA7 JUMP JUMPDEST PUSH1 0x40 MLOAD PUSH1 0x20 ADD PUSH2 0x474 SWAP6 SWAP5 SWAP4 SWAP3 SWAP2 SWAP1 PUSH2 0x43EC JUMP JUMPDEST PUSH1 0x40 MLOAD PUSH1 0x20 DUP2 DUP4 SUB SUB DUP2 MSTORE SWAP1 PUSH1 0x40 MSTORE SWAP1 POP JUMPDEST SWAP3 SWAP2 POP POP JUMP JUMPDEST PUSH1 0x60 DUP2 PUSH1 0x0 DUP1 JUMPDEST DUP3 MLOAD DUP2 PUSH1 0xFF AND LT ISZERO PUSH2 0x4F0 JUMPI DUP3 DUP2 PUSH1 0xFF AND DUP2 MLOAD DUP2 LT PUSH2 0x4AE JUMPI INVALID JUMPDEST PUSH1 0x20 SWAP2 ADD ADD MLOAD PUSH32 0xFF00000000000000000000000000000000000000000000000000000000000000 AND PUSH1 0x11 PUSH1 0xF9 SHL EQ ISZERO PUSH2 0x4E8 JUMPI PUSH1 0x1 SWAP1 SWAP2 ADD SWAP1 JUMPDEST PUSH1 0x1 ADD PUSH2 0x493 JUMP JUMPDEST POP PUSH1 0xFF DUP2 AND ISZERO PUSH2 0x63C JUMPI PUSH1 0x0 DUP2 PUSH1 0xFF AND DUP4 MLOAD ADD PUSH8 0xFFFFFFFFFFFFFFFF DUP2 GT DUP1 ISZERO PUSH2 0x519 JUMPI PUSH1 0x0 DUP1 REVERT JUMPDEST POP PUSH1 0x40 MLOAD SWAP1 DUP1 DUP3 MSTORE DUP1 PUSH1 0x1F ADD PUSH1 0x1F NOT AND PUSH1 0x20 ADD DUP3 ADD PUSH1 0x40 MSTORE DUP1 ISZERO PUSH2 0x544 JUMPI PUSH1 0x20 DUP3 ADD DUP2 DUP1 CALLDATASIZE DUP4 CALLDATACOPY ADD SWAP1 POP JUMPDEST POP SWAP1 POP PUSH1 0x0 DUP1 JUMPDEST DUP5 MLOAD DUP2 PUSH1 0xFF AND LT ISZERO PUSH2 0x62F JUMPI DUP5 DUP2 PUSH1 0xFF AND DUP2 MLOAD DUP2 LT PUSH2 0x566 JUMPI INVALID JUMPDEST PUSH1 0x20 SWAP2 ADD ADD MLOAD PUSH32 0xFF00000000000000000000000000000000000000000000000000000000000000 AND PUSH1 0x11 PUSH1 0xF9 SHL EQ ISZERO PUSH2 0x5E4 JUMPI PUSH32 0x5C00000000000000000000000000000000000000000000000000000000000000 DUP4 DUP4 DUP1 PUSH1 0x1 ADD SWAP5 POP DUP2 MLOAD DUP2 LT PUSH2 0x5CC JUMPI INVALID JUMPDEST PUSH1 0x20 ADD ADD SWAP1 PUSH1 0x1 PUSH1 0x1 PUSH1 0xF8 SHL SUB NOT AND SWAP1 DUP2 PUSH1 0x0 BYTE SWAP1 MSTORE8 POP JUMPDEST DUP5 DUP2 PUSH1 0xFF AND DUP2 MLOAD DUP2 LT PUSH2 0x5F3 JUMPI INVALID JUMPDEST PUSH1 0x20 ADD ADD MLOAD PUSH1 0xF8 SHR PUSH1 0xF8 SHL DUP4 DUP4 DUP1 PUSH1 0x1 ADD SWAP5 POP DUP2 MLOAD DUP2 LT PUSH2 0x610 JUMPI INVALID JUMPDEST PUSH1 0x20 ADD ADD SWAP1 PUSH1 0x1 PUSH1 0x1 PUSH1 0xF8 SHL SUB NOT AND SWAP1 DUP2 PUSH1 0x0 BYTE SWAP1 MSTORE8 POP PUSH1 0x1 ADD PUSH2 0x54B JUMP JUMPDEST POP DUP2 SWAP5 POP POP POP POP POP PUSH2 0x16B JUMP JUMPDEST POP SWAP2 SWAP3 SWAP2 POP POP JUMP JUMPDEST PUSH1 0x60 PUSH2 0x486 PUSH1 0x1 PUSH1 0x1 PUSH1 0xA0 SHL SUB DUP4 AND PUSH1 0x14 PUSH2 0xFD1 JUMP JUMPDEST PUSH1 0x60 DUP4 DUP4 DUP4 DUP7 PUSH1 0x40 MLOAD PUSH1 0x20 ADD PUSH2 0x673 SWAP5 SWAP4 SWAP3 SWAP2 SWAP1 PUSH2 0x4179 JUMP JUMPDEST PUSH1 0x40 MLOAD PUSH1 0x20 DUP2 DUP4 SUB SUB DUP2 MSTORE SWAP1 PUSH1 0x40 MSTORE SWAP1 POP JUMPDEST SWAP4 SWAP3 POP POP POP JUMP JUMPDEST PUSH1 0x60 DUP2 PUSH2 0x6B1 JUMPI POP PUSH1 0x40 DUP1 MLOAD DUP1 DUP3 ADD SWAP1 SWAP2 MSTORE PUSH1 0x1 DUP2 MSTORE PUSH1 0x3 PUSH1 0xFC SHL PUSH1 0x20 DUP3 ADD MSTORE PUSH2 0x16B JUMP JUMPDEST DUP2 PUSH1 0x0 JUMPDEST DUP2 ISZERO PUSH2 0x6C9 JUMPI PUSH1 0x1 ADD PUSH1 0xA DUP3 DIV SWAP2 POP PUSH2 0x6B5 JUMP JUMPDEST PUSH1 0x0 DUP2 PUSH8 0xFFFFFFFFFFFFFFFF DUP2 GT DUP1 ISZERO PUSH2 0x6E2 JUMPI PUSH1 0x0 DUP1 REVERT JUMPDEST POP PUSH1 0x40 MLOAD SWAP1 DUP1 DUP3 MSTORE DUP1 PUSH1 0x1F ADD PUSH1 0x1F NOT AND PUSH1 0x20 ADD DUP3 ADD PUSH1 0x40 MSTORE DUP1 ISZERO PUSH2 0x70D JUMPI PUSH1 0x20 DUP3 ADD DUP2 DUP1 CALLDATASIZE DUP4 CALLDATACOPY ADD SWAP1 POP JUMPDEST POP DUP6 SWAP4 POP SWAP1 POP PUSH1 0x0 NOT DUP3 ADD JUMPDEST DUP4 ISZERO PUSH2 0x75E JUMPI PUSH1 0xA DUP5 MOD PUSH1 0x30 ADD PUSH1 0xF8 SHL DUP3 DUP3 DUP1 PUSH1 0x1 SWAP1 SUB SWAP4 POP DUP2 MLOAD DUP2 LT PUSH2 0x73C JUMPI INVALID JUMPDEST PUSH1 0x20 ADD ADD SWAP1 PUSH1 0x1 PUSH1 0x1 PUSH1 0xF8 SHL SUB NOT AND SWAP1 DUP2 PUSH1 0x0 BYTE SWAP1 MSTORE8 POP PUSH1 0xA DUP5 DIV SWAP4 POP PUSH2 0x719 JUMP JUMPDEST POP SWAP5 SWAP4 POP POP POP POP JUMP JUMPDEST PUSH1 0x60 DUP4 DUP6 DUP5 DUP5 DUP10 PUSH1 0x40 MLOAD PUSH1 0x20 ADD PUSH2 0x782 SWAP6 SWAP5 SWAP4 SWAP3 SWAP2 SWAP1 PUSH2 0x44ED JUMP JUMPDEST PUSH1 0x40 MLOAD PUSH1 0x20 DUP2 DUP4 SUB SUB DUP2 MSTORE SWAP1 PUSH1 0x40 MSTORE SWAP1 POP JUMPDEST SWAP6 SWAP5 POP POP POP POP POP JUMP JUMPDEST PUSH1 0x60 PUSH1 0x0 PUSH1 0x40 MLOAD DUP1 PUSH2 0x2A0 ADD PUSH1 0x40 MSTORE DUP1 PUSH2 0x7BA DUP6 PUSH1 0x20 ADD MLOAD PUSH2 0x644 JUMP JUMPDEST DUP2 MSTORE PUSH1 0x20 ADD PUSH2 0x7CC DUP6 PUSH1 0x40 ADD MLOAD PUSH2 0x644 JUMP JUMPDEST DUP2 MSTORE PUSH1 0x20 ADD DUP5 PUSH2 0x1A0 ADD MLOAD PUSH1 0x1 PUSH1 0x1 PUSH1 0xA0 SHL SUB AND DUP2 MSTORE PUSH1 0x20 ADD DUP5 PUSH1 0x60 ADD MLOAD DUP2 MSTORE PUSH1 0x20 ADD DUP5 PUSH1 0x80 ADD MLOAD DUP2 MSTORE PUSH1 0x20 ADD PUSH2 0x807 DUP6 PUSH2 0x180 ADD MLOAD PUSH2 0x170 JUMP JUMPDEST DUP2 MSTORE PUSH1 0x20 ADD DUP5 PUSH2 0x100 ADD MLOAD PUSH1 0x2 SIGNEXTEND DUP2 MSTORE PUSH1 0x20 ADD DUP5 PUSH2 0x120 ADD MLOAD PUSH1 0x2 SIGNEXTEND DUP2 MSTORE PUSH1 0x20 ADD DUP5 PUSH2 0x160 ADD MLOAD PUSH1 0x2 SIGNEXTEND DUP2 MSTORE PUSH1 0x20 ADD PUSH2 0x850 DUP6 PUSH2 0x100 ADD MLOAD DUP7 PUSH2 0x120 ADD MLOAD DUP8 PUSH2 0x140 ADD MLOAD PUSH2 0x1159 JUMP JUMPDEST PUSH1 0x0 SIGNEXTEND DUP2 MSTORE PUSH1 0x20 ADD DUP5 PUSH1 0x0 ADD MLOAD DUP2 MSTORE PUSH1 0x20 ADD PUSH2 0x87A DUP6 PUSH1 0x20 ADD MLOAD PUSH1 0x1 PUSH1 0x1 PUSH1 0xA0 SHL SUB AND PUSH1 0x88 PUSH2 0x1190 JUMP JUMPDEST DUP2 MSTORE PUSH1 0x20 ADD PUSH2 0x897 DUP6 PUSH1 0x40 ADD MLOAD PUSH1 0x1 PUSH1 0x1 PUSH1 0xA0 SHL SUB AND PUSH1 0x88 PUSH2 0x1190 JUMP JUMPDEST DUP2 MSTORE PUSH1 0x20 ADD PUSH2 0x8B4 DUP6 PUSH1 0x20 ADD MLOAD PUSH1 0x1 PUSH1 0x1 PUSH1 0xA0 SHL SUB AND PUSH1 0x0 PUSH2 0x1190 JUMP JUMPDEST DUP2 MSTORE PUSH1 0x20 ADD PUSH2 0x8D1 DUP6 PUSH1 0x40 ADD MLOAD PUSH1 0x1 PUSH1 0x1 PUSH1 0xA0 SHL SUB AND PUSH1 0x0 PUSH2 0x1190 JUMP JUMPDEST DUP2 MSTORE PUSH1 0x20 ADD PUSH2 0x904 PUSH2 0x8F6 DUP7 PUSH1 0x20 ADD MLOAD PUSH1 0x1 PUSH1 0x1 PUSH1 0xA0 SHL SUB AND PUSH1 0x10 DUP9 PUSH1 0x0 ADD MLOAD PUSH2 0x119F JUMP JUMPDEST PUSH1 0x0 PUSH1 0xFF PUSH1 0x10 PUSH2 0x112 PUSH2 0x11BF JUMP JUMPDEST DUP2 MSTORE PUSH1 0x20 ADD PUSH2 0x937 PUSH2 0x929 DUP7 PUSH1 0x40 ADD MLOAD PUSH1 0x1 PUSH1 0x1 PUSH1 0xA0 SHL SUB AND PUSH1 0x10 DUP9 PUSH1 0x0 ADD MLOAD PUSH2 0x119F JUMP JUMPDEST PUSH1 0x0 PUSH1 0xFF PUSH1 0x64 PUSH2 0x1E4 PUSH2 0x11BF JUMP JUMPDEST DUP2 MSTORE PUSH1 0x20 ADD PUSH2 0x95C PUSH2 0x8F6 DUP7 PUSH1 0x20 ADD MLOAD PUSH1 0x1 PUSH1 0x1 PUSH1 0xA0 SHL SUB AND PUSH1 0x20 DUP9 PUSH1 0x0 ADD MLOAD PUSH2 0x119F JUMP JUMPDEST DUP2 MSTORE PUSH1 0x20 ADD PUSH2 0x981 PUSH2 0x929 DUP7 PUSH1 0x40 ADD MLOAD PUSH1 0x1 PUSH1 0x1 PUSH1 0xA0 SHL SUB AND PUSH1 0x20 DUP9 PUSH1 0x0 ADD MLOAD PUSH2 0x119F JUMP JUMPDEST DUP2 MSTORE PUSH1 0x20 ADD PUSH2 0x9A6 PUSH2 0x8F6 DUP7 PUSH1 0x20 ADD MLOAD PUSH1 0x1 PUSH1 0x1 PUSH1 0xA0 SHL SUB AND PUSH1 0x30 DUP9 PUSH1 0x0 ADD MLOAD PUSH2 0x119F JUMP JUMPDEST DUP2 MSTORE PUSH1 0x20 ADD PUSH2 0x9CB PUSH2 0x929 DUP7 PUSH1 0x40 ADD MLOAD PUSH1 0x1 PUSH1 0x1 PUSH1 0xA0 SHL SUB AND PUSH1 0x30 DUP9 PUSH1 0x0 ADD MLOAD PUSH2 0x119F JUMP JUMPDEST SWAP1 MSTORE SWAP1 POP PUSH2 0x685 DUP2 PUSH2 0x1207 JUMP JUMPDEST PUSH1 0x60 DUP2 MLOAD PUSH1 0x0 EQ ISZERO PUSH2 0x9F9 JUMPI POP PUSH1 0x40 DUP1 MLOAD PUSH1 0x20 DUP2 ADD SWAP1 SWAP2 MSTORE PUSH1 0x0 DUP2 MSTORE PUSH2 0x16B JUMP JUMPDEST PUSH1 0x0 PUSH1 0x40 MLOAD DUP1 PUSH1 0x60 ADD PUSH1 0x40 MSTORE DUP1 PUSH1 0x40 DUP2 MSTORE PUSH1 0x20 ADD PUSH2 0x526B PUSH1 0x40 SWAP2 CODECOPY SWAP1 POP PUSH1 0x0 PUSH1 0x3 DUP5 MLOAD PUSH1 0x2 ADD DUP2 PUSH2 0xA26 JUMPI INVALID JUMPDEST DIV PUSH1 0x4 MUL SWAP1 POP PUSH1 0x0 DUP2 PUSH1 0x20 ADD PUSH8 0xFFFFFFFFFFFFFFFF DUP2 GT DUP1 ISZERO PUSH2 0xA48 JUMPI PUSH1 0x0 DUP1 REVERT JUMPDEST POP PUSH1 0x40 MLOAD SWAP1 DUP1 DUP3 MSTORE DUP1 PUSH1 0x1F ADD PUSH1 0x1F NOT AND PUSH1 0x20 ADD DUP3 ADD PUSH1 0x40 MSTORE DUP1 ISZERO PUSH2 0xA73 JUMPI PUSH1 0x20 DUP3 ADD DUP2 DUP1 CALLDATASIZE DUP4 CALLDATACOPY ADD SWAP1 POP JUMPDEST POP SWAP1 POP DUP2 DUP2 MSTORE PUSH1 0x1 DUP4 ADD DUP6 DUP7 MLOAD DUP2 ADD PUSH1 0x20 DUP5 ADD JUMPDEST DUP2 DUP4 LT ISZERO PUSH2 0xAE1 JUMPI PUSH1 0x3 SWAP3 DUP4 ADD DUP1 MLOAD PUSH1 0x3F PUSH1 0x12 DUP3 SWAP1 SHR DUP2 AND DUP8 ADD MLOAD PUSH1 0xF8 SWAP1 DUP2 SHL DUP6 MSTORE PUSH1 0xC DUP4 SWAP1 SHR DUP3 AND DUP9 ADD MLOAD DUP2 SHL PUSH1 0x1 DUP7 ADD MSTORE PUSH1 0x6 DUP4 SWAP1 SHR DUP3 AND DUP9 ADD MLOAD DUP2 SHL PUSH1 0x2 DUP7 ADD MSTORE SWAP2 AND DUP7 ADD MLOAD SWAP1 SHL SWAP4 DUP3 ADD SWAP4 SWAP1 SWAP4 MSTORE PUSH1 0x4 ADD PUSH2 0xA87 JUMP JUMPDEST PUSH1 0x3 DUP10 MLOAD MOD PUSH1 0x1 DUP2 EQ PUSH2 0xAFB JUMPI PUSH1 0x2 DUP2 EQ PUSH2 0xB27 JUMPI PUSH2 0xB4F JUMP JUMPDEST PUSH32 0x3D3D000000000000000000000000000000000000000000000000000000000000 PUSH1 0x1 NOT DUP4 ADD MSTORE PUSH2 0xB4F JUMP JUMPDEST PUSH32 0x3D00000000000000000000000000000000000000000000000000000000000000 PUSH1 0x0 NOT DUP4 ADD MSTORE JUMPDEST POP SWAP4 SWAP9 SWAP8 POP POP POP POP POP POP POP POP JUMP JUMPDEST PUSH1 0x0 DUP3 DUP3 GT ISZERO PUSH2 0xBB4 JUMPI PUSH1 0x40 DUP1 MLOAD PUSH3 0x461BCD PUSH1 0xE5 SHL DUP2 MSTORE PUSH1 0x20 PUSH1 0x4 DUP3 ADD MSTORE PUSH1 0x1E PUSH1 0x24 DUP3 ADD MSTORE PUSH32 0x536166654D6174683A207375627472616374696F6E206F766572666C6F770000 PUSH1 0x44 DUP3 ADD MSTORE SWAP1 MLOAD SWAP1 DUP2 SWAP1 SUB PUSH1 0x64 ADD SWAP1 REVERT JUMPDEST POP SWAP1 SUB SWAP1 JUMP JUMPDEST PUSH1 0x0 DUP3 DUP3 ADD DUP4 DUP2 LT ISZERO PUSH2 0x685 JUMPI PUSH1 0x40 DUP1 MLOAD PUSH3 0x461BCD PUSH1 0xE5 SHL DUP2 MSTORE PUSH1 0x20 PUSH1 0x4 DUP3 ADD MSTORE PUSH1 0x1B PUSH1 0x24 DUP3 ADD MSTORE PUSH32 0x536166654D6174683A206164646974696F6E206F766572666C6F770000000000 PUSH1 0x44 DUP3 ADD MSTORE SWAP1 MLOAD SWAP1 DUP2 SWAP1 SUB PUSH1 0x64 ADD SWAP1 REVERT JUMPDEST PUSH1 0x0 DUP1 DUP3 GT PUSH2 0xC6A JUMPI PUSH1 0x40 DUP1 MLOAD PUSH3 0x461BCD PUSH1 0xE5 SHL DUP2 MSTORE PUSH1 0x20 PUSH1 0x4 DUP3 ADD MSTORE PUSH1 0x1A PUSH1 0x24 DUP3 ADD MSTORE PUSH32 0x536166654D6174683A206469766973696F6E206279207A65726F000000000000 PUSH1 0x44 DUP3 ADD MSTORE SWAP1 MLOAD SWAP1 DUP2 SWAP1 SUB PUSH1 0x64 ADD SWAP1 REVERT JUMPDEST DUP2 DUP4 DUP2 PUSH2 0xC73 JUMPI INVALID JUMPDEST DIV SWAP4 SWAP3 POP POP POP JUMP JUMPDEST PUSH1 0x60 PUSH1 0x0 DUP3 PUSH1 0x20 ADD MLOAD PUSH1 0xFF AND PUSH8 0xFFFFFFFFFFFFFFFF DUP2 GT DUP1 ISZERO PUSH2 0xC9D JUMPI PUSH1 0x0 DUP1 REVERT JUMPDEST POP PUSH1 0x40 MLOAD SWAP1 DUP1 DUP3 MSTORE DUP1 PUSH1 0x1F ADD PUSH1 0x1F NOT AND PUSH1 0x20 ADD DUP3 ADD PUSH1 0x40 MSTORE DUP1 ISZERO PUSH2 0xCC8 JUMPI PUSH1 0x20 DUP3 ADD DUP2 DUP1 CALLDATASIZE DUP4 CALLDATACOPY ADD SWAP1 POP JUMPDEST POP SWAP1 POP DUP3 PUSH1 0xE0 ADD MLOAD ISZERO PUSH2 0xD1E JUMPI PUSH32 0x2500000000000000000000000000000000000000000000000000000000000000 DUP2 PUSH1 0x1 DUP4 MLOAD SUB DUP2 MLOAD DUP2 LT PUSH2 0xD06 JUMPI INVALID JUMPDEST PUSH1 0x20 ADD ADD SWAP1 PUSH1 0x1 PUSH1 0x1 PUSH1 0xF8 SHL SUB NOT AND SWAP1 DUP2 PUSH1 0x0 BYTE SWAP1 MSTORE8 POP JUMPDEST DUP3 PUSH1 0xC0 ADD MLOAD ISZERO PUSH2 0xD7B JUMPI PUSH1 0x3 PUSH1 0xFC SHL DUP2 PUSH1 0x0 DUP2 MLOAD DUP2 LT PUSH2 0xD3A JUMPI INVALID JUMPDEST PUSH1 0x20 ADD ADD SWAP1 PUSH1 0x1 PUSH1 0x1 PUSH1 0xF8 SHL SUB NOT AND SWAP1 DUP2 PUSH1 0x0 BYTE SWAP1 MSTORE8 POP PUSH1 0x17 PUSH1 0xF9 SHL DUP2 PUSH1 0x1 DUP2 MLOAD DUP2 LT PUSH2 0xD63 JUMPI INVALID JUMPDEST PUSH1 0x20 ADD ADD SWAP1 PUSH1 0x1 PUSH1 0x1 PUSH1 0xF8 SHL SUB NOT AND SWAP1 DUP2 PUSH1 0x0 BYTE SWAP1 MSTORE8 POP JUMPDEST PUSH1 0x80 DUP4 ADD MLOAD PUSH1 0xFF AND JUMPDEST PUSH1 0xA0 DUP5 ADD MLOAD PUSH2 0xD97 SWAP1 PUSH1 0xFF AND PUSH1 0x1 PUSH2 0xBBA JUMP JUMPDEST DUP2 LT ISZERO PUSH2 0xDCE JUMPI PUSH1 0x30 PUSH1 0xF8 SHL DUP3 DUP3 DUP2 MLOAD DUP2 LT PUSH2 0xDAF JUMPI INVALID JUMPDEST PUSH1 0x20 ADD ADD SWAP1 PUSH1 0x1 PUSH1 0x1 PUSH1 0xF8 SHL SUB NOT AND SWAP1 DUP2 PUSH1 0x0 BYTE SWAP1 MSTORE8 POP PUSH1 0x1 ADD PUSH2 0xD84 JUMP JUMPDEST POP JUMPDEST DUP3 MLOAD ISZERO PUSH2 0x486 JUMPI PUSH1 0x0 DUP4 PUSH1 0x60 ADD MLOAD PUSH1 0xFF AND GT DUP1 ISZERO PUSH2 0xDFB JUMPI POP DUP3 PUSH1 0x60 ADD MLOAD PUSH1 0xFF AND DUP4 PUSH1 0x40 ADD MLOAD PUSH1 0xFF AND EQ JUMPDEST ISZERO PUSH2 0xE3E JUMPI PUSH1 0x40 DUP4 ADD DUP1 MLOAD PUSH1 0xFF PUSH1 0x0 NOT DUP3 ADD DUP2 AND SWAP1 SWAP3 MSTORE DUP3 MLOAD PUSH1 0x17 PUSH1 0xF9 SHL SWAP3 DUP5 SWAP3 AND SWAP1 DUP2 LT PUSH2 0xE26 JUMPI INVALID JUMPDEST PUSH1 0x20 ADD ADD SWAP1 PUSH1 0x1 PUSH1 0x1 PUSH1 0xF8 SHL SUB NOT AND SWAP1 DUP2 PUSH1 0x0 BYTE SWAP1 MSTORE8 POP JUMPDEST DUP3 MLOAD PUSH2 0xE50 SWAP1 PUSH1 0x30 SWAP1 PUSH1 0xA SWAP1 MOD PUSH2 0xBBA JUMP JUMPDEST PUSH1 0xF8 SHL DUP2 DUP5 PUSH1 0x40 ADD DUP1 MLOAD DUP1 SWAP2 SWAP1 PUSH1 0x1 SWAP1 SUB PUSH1 0xFF AND PUSH1 0xFF AND DUP2 MSTORE POP PUSH1 0xFF AND DUP2 MLOAD DUP2 LT PUSH2 0xE77 JUMPI INVALID JUMPDEST PUSH1 0x20 ADD ADD SWAP1 PUSH1 0x1 PUSH1 0x1 PUSH1 0xF8 SHL SUB NOT AND SWAP1 DUP2 PUSH1 0x0 BYTE SWAP1 MSTORE8 POP PUSH1 0xA DUP4 PUSH1 0x0 ADD DUP2 DUP2 MLOAD DUP2 PUSH2 0xE9E JUMPI INVALID JUMPDEST DIV SWAP1 MSTORE POP PUSH2 0xDD0 JUMP JUMPDEST PUSH1 0x60 DUP5 PUSH1 0x2 DUP2 SWAP1 SIGNEXTEND PUSH3 0xD89E7 NOT DUP2 PUSH2 0xEBB JUMPI INVALID JUMPDEST SDIV MUL PUSH1 0x2 SIGNEXTEND DUP7 PUSH1 0x2 SIGNEXTEND EQ ISZERO PUSH2 0xF15 JUMPI DUP2 ISZERO PUSH2 0xEF1 JUMPI PUSH1 0x40 MLOAD DUP1 PUSH1 0x40 ADD PUSH1 0x40 MSTORE DUP1 PUSH1 0x3 DUP2 MSTORE PUSH1 0x20 ADD PUSH3 0x9A82B PUSH1 0xEB SHL DUP2 MSTORE POP PUSH2 0xF0E JUMP JUMPDEST PUSH1 0x40 MLOAD DUP1 PUSH1 0x40 ADD PUSH1 0x40 MSTORE DUP1 PUSH1 0x3 DUP2 MSTORE PUSH1 0x20 ADD PUSH3 0x26A4A7 PUSH1 0xE9 SHL DUP2 MSTORE POP JUMPDEST SWAP1 POP PUSH2 0x794 JUMP JUMPDEST DUP5 PUSH1 0x2 DUP2 SWAP1 SIGNEXTEND PUSH3 0xD89E8 DUP2 PUSH2 0xF26 JUMPI INVALID JUMPDEST SDIV MUL PUSH1 0x2 SIGNEXTEND DUP7 PUSH1 0x2 SIGNEXTEND EQ ISZERO PUSH2 0xF7C JUMPI DUP2 ISZERO PUSH2 0xF5C JUMPI PUSH1 0x40 MLOAD DUP1 PUSH1 0x40 ADD PUSH1 0x40 MSTORE DUP1 PUSH1 0x3 DUP2 MSTORE PUSH1 0x20 ADD PUSH3 0x26A4A7 PUSH1 0xE9 SHL DUP2 MSTORE POP PUSH2 0xF0E JUMP JUMPDEST POP PUSH1 0x40 DUP1 MLOAD DUP1 DUP3 ADD SWAP1 SWAP2 MSTORE PUSH1 0x3 DUP2 MSTORE PUSH3 0x9A82B PUSH1 0xEB SHL PUSH1 0x20 DUP3 ADD MSTORE PUSH2 0x794 JUMP JUMPDEST PUSH1 0x0 PUSH2 0xF87 DUP8 PUSH2 0x1496 JUMP JUMPDEST SWAP1 POP DUP3 ISZERO PUSH2 0xFBE JUMPI PUSH2 0xFBB PUSH25 0x1000000000000000000000000000000000000000000000000 PUSH1 0x1 PUSH1 0x1 PUSH1 0xA0 SHL SUB DUP4 AND PUSH2 0xC14 JUMP JUMPDEST SWAP1 POP JUMPDEST PUSH2 0xFC9 DUP2 DUP7 DUP7 PUSH2 0x17E4 JUMP JUMPDEST SWAP2 POP POP PUSH2 0x794 JUMP JUMPDEST PUSH1 0x60 PUSH1 0x0 DUP3 PUSH1 0x2 MUL PUSH1 0x2 ADD PUSH8 0xFFFFFFFFFFFFFFFF DUP2 GT DUP1 ISZERO PUSH2 0xFF2 JUMPI PUSH1 0x0 DUP1 REVERT JUMPDEST POP PUSH1 0x40 MLOAD SWAP1 DUP1 DUP3 MSTORE DUP1 PUSH1 0x1F ADD PUSH1 0x1F NOT AND PUSH1 0x20 ADD DUP3 ADD PUSH1 0x40 MSTORE DUP1 ISZERO PUSH2 0x101D JUMPI PUSH1 0x20 DUP3 ADD DUP2 DUP1 CALLDATASIZE DUP4 CALLDATACOPY ADD SWAP1 POP JUMPDEST POP SWAP1 POP PUSH1 0x3 PUSH1 0xFC SHL DUP2 PUSH1 0x0 DUP2 MLOAD DUP2 LT PUSH2 0x1032 JUMPI INVALID JUMPDEST PUSH1 0x20 ADD ADD SWAP1 PUSH1 0x1 PUSH1 0x1 PUSH1 0xF8 SHL SUB NOT AND SWAP1 DUP2 PUSH1 0x0 BYTE SWAP1 MSTORE8 POP PUSH32 0x7800000000000000000000000000000000000000000000000000000000000000 DUP2 PUSH1 0x1 DUP2 MLOAD DUP2 LT PUSH2 0x1077 JUMPI INVALID JUMPDEST PUSH1 0x20 ADD ADD SWAP1 PUSH1 0x1 PUSH1 0x1 PUSH1 0xF8 SHL SUB NOT AND SWAP1 DUP2 PUSH1 0x0 BYTE SWAP1 MSTORE8 POP PUSH1 0x1 PUSH1 0x2 DUP5 MUL ADD JUMPDEST PUSH1 0x1 DUP2 GT ISZERO PUSH2 0x1105 JUMPI PUSH32 0x3031323334353637383961626364656600000000000000000000000000000000 DUP6 PUSH1 0xF AND PUSH1 0x10 DUP2 LT PUSH2 0x10CE JUMPI INVALID JUMPDEST BYTE PUSH1 0xF8 SHL DUP3 DUP3 DUP2 MLOAD DUP2 LT PUSH2 0x10DE JUMPI INVALID JUMPDEST PUSH1 0x20 ADD ADD SWAP1 PUSH1 0x1 PUSH1 0x1 PUSH1 0xF8 SHL SUB NOT AND SWAP1 DUP2 PUSH1 0x0 BYTE SWAP1 MSTORE8 POP PUSH1 0x4 SWAP5 SWAP1 SWAP5 SHR SWAP4 PUSH1 0x0 NOT ADD PUSH2 0x1096 JUMP JUMPDEST POP DUP4 ISZERO PUSH2 0x685 JUMPI PUSH1 0x40 DUP1 MLOAD PUSH3 0x461BCD PUSH1 0xE5 SHL DUP2 MSTORE PUSH1 0x20 PUSH1 0x4 DUP3 ADD DUP2 SWAP1 MSTORE PUSH1 0x24 DUP3 ADD MSTORE PUSH32 0x537472696E67733A20686578206C656E67746820696E73756666696369656E74 PUSH1 0x44 DUP3 ADD MSTORE SWAP1 MLOAD SWAP1 DUP2 SWAP1 SUB PUSH1 0x64 ADD SWAP1 REVERT JUMPDEST PUSH1 0x0 DUP4 PUSH1 0x2 SIGNEXTEND DUP3 PUSH1 0x2 SIGNEXTEND SLT ISZERO PUSH2 0x1172 JUMPI POP PUSH1 0x0 NOT PUSH2 0x685 JUMP JUMPDEST DUP3 PUSH1 0x2 SIGNEXTEND DUP3 PUSH1 0x2 SIGNEXTEND SGT ISZERO PUSH2 0x1188 JUMPI POP PUSH1 0x1 PUSH2 0x685 JUMP JUMPDEST POP PUSH1 0x0 PUSH2 0x685 JUMP JUMPDEST PUSH1 0x60 PUSH2 0x685 DUP4 DUP4 SHR PUSH1 0x3 PUSH2 0x19B2 JUMP JUMPDEST PUSH1 0x0 PUSH1 0xFF DUP3 PUSH2 0x11AE DUP7 DUP7 PUSH2 0x1A79 JUMP JUMPDEST MUL DUP2 PUSH2 0x11B6 JUMPI INVALID JUMPDEST MOD SWAP5 SWAP4 POP POP POP POP JUMP JUMPDEST PUSH1 0x60 PUSH2 0x11FD PUSH2 0x11F8 DUP5 PUSH2 0x2C7 PUSH2 0x11D5 DUP9 DUP11 PUSH2 0xB5D JUMP JUMPDEST PUSH2 0x11F2 PUSH2 0x11E2 DUP9 DUP11 PUSH2 0xB5D JUMP JUMPDEST PUSH2 0x11EC DUP14 DUP14 PUSH2 0xB5D JUMP JUMPDEST SWAP1 PUSH2 0x1A80 JUMP JUMPDEST SWAP1 PUSH2 0xC14 JUMP JUMPDEST PUSH2 0x68C JUMP JUMPDEST SWAP7 SWAP6 POP POP POP POP POP POP JUMP JUMPDEST PUSH1 0x60 PUSH2 0x1212 DUP3 PUSH2 0x1AD9 JUMP JUMPDEST PUSH2 0x122E DUP4 PUSH1 0x0 ADD MLOAD DUP5 PUSH1 0x20 ADD MLOAD DUP6 PUSH1 0x60 ADD MLOAD DUP7 PUSH1 0x80 ADD MLOAD PUSH2 0x218D JUMP JUMPDEST PUSH2 0x1245 DUP5 PUSH1 0x60 ADD MLOAD DUP6 PUSH1 0x80 ADD MLOAD DUP7 PUSH1 0xA0 ADD MLOAD PUSH2 0x24B8 JUMP JUMPDEST PUSH2 0x1263 DUP6 PUSH1 0xC0 ADD MLOAD DUP7 PUSH1 0xE0 ADD MLOAD DUP8 PUSH2 0x100 ADD MLOAD DUP9 PUSH2 0x120 ADD MLOAD PUSH2 0x2608 JUMP JUMPDEST PUSH2 0x1283 PUSH2 0x1274 DUP8 PUSH2 0x140 ADD MLOAD PUSH2 0x68C JUMP JUMPDEST DUP8 PUSH1 0xC0 ADD MLOAD DUP9 PUSH1 0xE0 ADD MLOAD PUSH2 0x295B JUMP JUMPDEST PUSH2 0x1296 DUP8 PUSH2 0x140 ADD MLOAD DUP9 PUSH1 0x40 ADD MLOAD PUSH2 0x2D8C JUMP JUMPDEST PUSH1 0x40 MLOAD PUSH1 0x20 ADD DUP1 DUP8 DUP1 MLOAD SWAP1 PUSH1 0x20 ADD SWAP1 DUP1 DUP4 DUP4 JUMPDEST PUSH1 0x20 DUP4 LT PUSH2 0x12C8 JUMPI DUP1 MLOAD DUP3 MSTORE PUSH1 0x1F NOT SWAP1 SWAP3 ADD SWAP2 PUSH1 0x20 SWAP2 DUP3 ADD SWAP2 ADD PUSH2 0x12A9 JUMP JUMPDEST MLOAD DUP2 MLOAD PUSH1 0x20 SWAP4 DUP5 SUB PUSH2 0x100 EXP PUSH1 0x0 NOT ADD DUP1 NOT SWAP1 SWAP3 AND SWAP2 AND OR SWAP1 MSTORE DUP10 MLOAD SWAP2 SWAP1 SWAP4 ADD SWAP3 DUP10 ADD SWAP2 POP DUP1 DUP4 DUP4 JUMPDEST PUSH1 0x20 DUP4 LT PUSH2 0x1310 JUMPI DUP1 MLOAD DUP3 MSTORE PUSH1 0x1F NOT SWAP1 SWAP3 ADD SWAP2 PUSH1 0x20 SWAP2 DUP3 ADD SWAP2 ADD PUSH2 0x12F1 JUMP JUMPDEST MLOAD DUP2 MLOAD PUSH1 0x20 SWAP4 DUP5 SUB PUSH2 0x100 EXP PUSH1 0x0 NOT ADD DUP1 NOT SWAP1 SWAP3 AND SWAP2 AND OR SWAP1 MSTORE DUP9 MLOAD SWAP2 SWAP1 SWAP4 ADD SWAP3 DUP9 ADD SWAP2 POP DUP1 DUP4 DUP4 JUMPDEST PUSH1 0x20 DUP4 LT PUSH2 0x1358 JUMPI DUP1 MLOAD DUP3 MSTORE PUSH1 0x1F NOT SWAP1 SWAP3 ADD SWAP2 PUSH1 0x20 SWAP2 DUP3 ADD SWAP2 ADD PUSH2 0x1339 JUMP JUMPDEST MLOAD DUP2 MLOAD PUSH1 0x20 SWAP4 DUP5 SUB PUSH2 0x100 EXP PUSH1 0x0 NOT ADD DUP1 NOT SWAP1 SWAP3 AND SWAP2 AND OR SWAP1 MSTORE DUP8 MLOAD SWAP2 SWAP1 SWAP4 ADD SWAP3 DUP8 ADD SWAP2 POP DUP1 DUP4 DUP4 JUMPDEST PUSH1 0x20 DUP4 LT PUSH2 0x13A0 JUMPI DUP1 MLOAD DUP3 MSTORE PUSH1 0x1F NOT SWAP1 SWAP3 ADD SWAP2 PUSH1 0x20 SWAP2 DUP3 ADD SWAP2 ADD PUSH2 0x1381 JUMP JUMPDEST MLOAD DUP2 MLOAD PUSH1 0x20 SWAP4 DUP5 SUB PUSH2 0x100 EXP PUSH1 0x0 NOT ADD DUP1 NOT SWAP1 SWAP3 AND SWAP2 AND OR SWAP1 MSTORE DUP7 MLOAD SWAP2 SWAP1 SWAP4 ADD SWAP3 DUP7 ADD SWAP2 POP DUP1 DUP4 DUP4 JUMPDEST PUSH1 0x20 DUP4 LT PUSH2 0x13E8 JUMPI DUP1 MLOAD DUP3 MSTORE PUSH1 0x1F NOT SWAP1 SWAP3 ADD SWAP2 PUSH1 0x20 SWAP2 DUP3 ADD SWAP2 ADD PUSH2 0x13C9 JUMP JUMPDEST MLOAD DUP2 MLOAD PUSH1 0x20 SWAP4 DUP5 SUB PUSH2 0x100 EXP PUSH1 0x0 NOT ADD DUP1 NOT SWAP1 SWAP3 AND SWAP2 AND OR SWAP1 MSTORE DUP6 MLOAD SWAP2 SWAP1 SWAP4 ADD SWAP3 DUP6 ADD SWAP2 POP DUP1 DUP4 DUP4 JUMPDEST PUSH1 0x20 DUP4 LT PUSH2 0x1430 JUMPI DUP1 MLOAD DUP3 MSTORE PUSH1 0x1F NOT SWAP1 SWAP3 ADD SWAP2 PUSH1 0x20 SWAP2 DUP3 ADD SWAP2 ADD PUSH2 0x1411 JUMP JUMPDEST MLOAD DUP2 MLOAD PUSH1 0x20 SWAP4 SWAP1 SWAP4 SUB PUSH2 0x100 EXP PUSH1 0x0 NOT ADD DUP1 NOT SWAP1 SWAP2 AND SWAP3 AND SWAP2 SWAP1 SWAP2 OR SWAP1 MSTORE PUSH32 0x3C2F7376673E0000000000000000000000000000000000000000000000000000 SWAP3 ADD SWAP2 DUP3 MSTORE POP PUSH1 0x40 DUP1 MLOAD DUP1 DUP4 SUB PUSH1 0x19 NOT ADD DUP2 MSTORE PUSH1 0x6 SWAP1 SWAP3 ADD SWAP1 MSTORE SWAP10 SWAP9 POP POP POP POP POP POP POP POP POP JUMP JUMPDEST PUSH1 0x0 DUP1 PUSH1 0x0 DUP4 PUSH1 0x2 SIGNEXTEND SLT PUSH2 0x14AD JUMPI DUP3 PUSH1 0x2 SIGNEXTEND PUSH2 0x14B5 JUMP JUMPDEST DUP3 PUSH1 0x2 SIGNEXTEND PUSH1 0x0 SUB JUMPDEST SWAP1 POP PUSH3 0xD89E8 DUP2 GT ISZERO PUSH2 0x150F JUMPI PUSH1 0x40 DUP1 MLOAD PUSH3 0x461BCD PUSH1 0xE5 SHL DUP2 MSTORE PUSH1 0x20 PUSH1 0x4 DUP3 ADD MSTORE PUSH1 0x1 PUSH1 0x24 DUP3 ADD MSTORE PUSH32 0x5400000000000000000000000000000000000000000000000000000000000000 PUSH1 0x44 DUP3 ADD MSTORE SWAP1 MLOAD SWAP1 DUP2 SWAP1 SUB PUSH1 0x64 ADD SWAP1 REVERT JUMPDEST PUSH1 0x0 PUSH1 0x1 DUP3 AND PUSH2 0x1523 JUMPI PUSH1 0x1 PUSH1 0x80 SHL PUSH2 0x1535 JUMP JUMPDEST PUSH16 0xFFFCB933BD6FAD37AA2D162D1A594001 JUMPDEST PUSH17 0xFFFFFFFFFFFFFFFFFFFFFFFFFFFFFFFFFF AND SWAP1 POP PUSH1 0x2 DUP3 AND ISZERO PUSH2 0x1569 JUMPI PUSH16 0xFFF97272373D413259A46990580E213A MUL PUSH1 0x80 SHR JUMPDEST PUSH1 0x4 DUP3 AND ISZERO PUSH2 0x1588 JUMPI PUSH16 0xFFF2E50F5F656932EF12357CF3C7FDCC MUL PUSH1 0x80 SHR JUMPDEST PUSH1 0x8 DUP3 AND ISZERO PUSH2 0x15A7 JUMPI PUSH16 0xFFE5CACA7E10E4E61C3624EAA0941CD0 MUL PUSH1 0x80 SHR JUMPDEST PUSH1 0x10 DUP3 AND ISZERO PUSH2 0x15C6 JUMPI PUSH16 0xFFCB9843D60F6159C9DB58835C926644 MUL PUSH1 0x80 SHR JUMPDEST PUSH1 0x20 DUP3 AND ISZERO PUSH2 0x15E5 JUMPI PUSH16 0xFF973B41FA98C081472E6896DFB254C0 MUL PUSH1 0x80 SHR JUMPDEST PUSH1 0x40 DUP3 AND ISZERO PUSH2 0x1604 JUMPI PUSH16 0xFF2EA16466C96A3843EC78B326B52861 MUL PUSH1 0x80 SHR JUMPDEST PUSH1 0x80 DUP3 AND ISZERO PUSH2 0x1623 JUMPI PUSH16 0xFE5DEE046A99A2A811C461F1969C3053 MUL PUSH1 0x80 SHR JUMPDEST PUSH2 0x100 DUP3 AND ISZERO PUSH2 0x1643 JUMPI PUSH16 0xFCBE86C7900A88AEDCFFC83B479AA3A4 MUL PUSH1 0x80 SHR JUMPDEST PUSH2 0x200 DUP3 AND ISZERO PUSH2 0x1663 JUMPI PUSH16 0xF987A7253AC413176F2B074CF7815E54 MUL PUSH1 0x80 SHR JUMPDEST PUSH2 0x400 DUP3 AND ISZERO PUSH2 0x1683 JUMPI PUSH16 0xF3392B0822B70005940C7A398E4B70F3 MUL PUSH1 0x80 SHR JUMPDEST PUSH2 0x800 DUP3 AND ISZERO PUSH2 0x16A3 JUMPI PUSH16 0xE7159475A2C29B7443B29C7FA6E889D9 MUL PUSH1 0x80 SHR JUMPDEST PUSH2 0x1000 DUP3 AND ISZERO PUSH2 0x16C3 JUMPI PUSH16 0xD097F3BDFD2022B8845AD8F792AA5825 MUL PUSH1 0x80 SHR JUMPDEST PUSH2 0x2000 DUP3 AND ISZERO PUSH2 0x16E3 JUMPI PUSH16 0xA9F746462D870FDF8A65DC1F90E061E5 MUL PUSH1 0x80 SHR JUMPDEST PUSH2 0x4000 DUP3 AND ISZERO PUSH2 0x1703 JUMPI PUSH16 0x70D869A156D2A1B890BB3DF62BAF32F7 MUL PUSH1 0x80 SHR JUMPDEST PUSH2 0x8000 DUP3 AND ISZERO PUSH2 0x1723 JUMPI PUSH16 0x31BE135F97D08FD981231505542FCFA6 MUL PUSH1 0x80 SHR JUMPDEST PUSH3 0x10000 DUP3 AND ISZERO PUSH2 0x1744 JUMPI PUSH16 0x9AA508B5B7A84E1C677DE54F3E99BC9 MUL PUSH1 0x80 SHR JUMPDEST PUSH3 0x20000 DUP3 AND ISZERO PUSH2 0x1764 JUMPI PUSH15 0x5D6AF8DEDB81196699C329225EE604 MUL PUSH1 0x80 SHR JUMPDEST PUSH3 0x40000 DUP3 AND ISZERO PUSH2 0x1783 JUMPI PUSH14 0x2216E584F5FA1EA926041BEDFE98 MUL PUSH1 0x80 SHR JUMPDEST PUSH3 0x80000 DUP3 AND ISZERO PUSH2 0x17A0 JUMPI PUSH12 0x48A170391F7DC42444E8FA2 MUL PUSH1 0x80 SHR JUMPDEST PUSH1 0x0 DUP5 PUSH1 0x2 SIGNEXTEND SGT ISZERO PUSH2 0x17BB JUMPI DUP1 PUSH1 0x0 NOT DUP2 PUSH2 0x17B7 JUMPI INVALID JUMPDEST DIV SWAP1 POP JUMPDEST PUSH5 0x100000000 DUP2 MOD ISZERO PUSH2 0x17CF JUMPI PUSH1 0x1 PUSH2 0x17D2 JUMP JUMPDEST PUSH1 0x0 JUMPDEST PUSH1 0xFF AND PUSH1 0x20 DUP3 SWAP1 SHR ADD SWAP3 POP POP POP SWAP2 SWAP1 POP JUMP JUMPDEST PUSH1 0x60 PUSH1 0x0 PUSH2 0x17F3 DUP6 DUP6 DUP6 PUSH2 0x2E04 JUMP JUMPDEST SWAP1 POP PUSH1 0x0 PUSH2 0x180B DUP3 DUP4 PUSH9 0x10000000000000000 PUSH2 0x2F06 JUMP JUMPDEST SWAP1 POP PUSH13 0x1000000000000000000000000 DUP3 LT DUP1 ISZERO PUSH2 0x184C JUMPI PUSH2 0x1845 DUP3 PUSH19 0x47BF19673DF52E37F2410011D100000000000 PUSH1 0x1 PUSH1 0x80 SHL PUSH2 0x2F06 JUMP JUMPDEST SWAP2 POP PUSH2 0x1861 JUMP JUMPDEST PUSH2 0x185E DUP3 PUSH3 0x186A0 PUSH1 0x1 PUSH1 0x80 SHL PUSH2 0x2F06 JUMP JUMPDEST SWAP2 POP JUMPDEST DUP2 PUSH1 0x0 JUMPDEST DUP2 ISZERO PUSH2 0x1879 JUMPI PUSH1 0x1 ADD PUSH1 0xA DUP3 DIV SWAP2 POP PUSH2 0x1865 JUMP JUMPDEST PUSH1 0x0 NOT ADD PUSH1 0x0 DUP1 PUSH2 0x188A DUP7 DUP5 PUSH2 0x2FB5 JUMP JUMPDEST SWAP2 POP SWAP2 POP DUP1 ISZERO PUSH2 0x189B JUMPI PUSH1 0x1 SWAP1 SWAP3 ADD SWAP2 JUMPDEST PUSH2 0x18A3 PUSH2 0x3E02 JUMP JUMPDEST DUP6 ISZERO PUSH2 0x1910 JUMPI PUSH2 0x18C2 PUSH2 0x18BA PUSH1 0x2B PUSH1 0xFF DUP8 AND PUSH2 0xB5D JUMP JUMPDEST PUSH1 0x7 SWAP1 PUSH2 0xBBA JUMP JUMPDEST PUSH1 0xFF SWAP1 DUP2 AND PUSH1 0x20 DUP4 ADD MSTORE PUSH1 0x2 PUSH1 0x80 DUP4 ADD MSTORE PUSH2 0x18E8 SWAP1 PUSH1 0x1 SWAP1 PUSH2 0x2C7 SWAP1 PUSH1 0x2B SWAP1 DUP9 AND PUSH2 0xB5D JUMP JUMPDEST PUSH1 0xFF SWAP1 DUP2 AND PUSH1 0xA0 DUP4 ADD MSTORE PUSH1 0x20 DUP3 ADD MLOAD PUSH2 0x1903 SWAP2 AND PUSH1 0x1 PUSH2 0xB5D JUMP JUMPDEST PUSH1 0xFF AND PUSH1 0x40 DUP3 ADD MSTORE PUSH2 0x1987 JUMP JUMPDEST PUSH1 0x9 DUP5 PUSH1 0xFF AND LT PUSH2 0x1959 JUMPI PUSH2 0x1929 PUSH1 0xFF DUP6 AND PUSH1 0x4 PUSH2 0xB5D JUMP JUMPDEST PUSH1 0xFF AND PUSH1 0x20 DUP3 ADD DUP2 SWAP1 MSTORE PUSH1 0x5 PUSH1 0x80 DUP4 ADD MSTORE PUSH2 0x1945 SWAP1 PUSH1 0x1 PUSH2 0xB5D JUMP JUMPDEST PUSH1 0xFF AND PUSH1 0xA0 DUP3 ADD MSTORE PUSH1 0x4 PUSH1 0x40 DUP3 ADD MSTORE PUSH2 0x1987 JUMP JUMPDEST PUSH1 0x6 PUSH1 0x20 DUP3 ADD MSTORE PUSH1 0x5 PUSH1 0x40 DUP3 ADD DUP2 SWAP1 MSTORE PUSH2 0x197E SWAP1 PUSH1 0x1 SWAP1 PUSH2 0x2C7 SWAP1 PUSH1 0xFF DUP9 AND SWAP1 PUSH2 0xB5D JUMP JUMPDEST PUSH1 0xFF AND PUSH1 0x60 DUP3 ADD MSTORE JUMPDEST DUP3 DUP2 MSTORE DUP6 ISZERO ISZERO PUSH1 0xC0 DUP3 ADD MSTORE PUSH1 0x0 PUSH1 0xE0 DUP3 ADD MSTORE PUSH2 0x19A2 DUP2 PUSH2 0xC7B JUMP JUMPDEST SWAP13 SWAP12 POP POP POP POP POP POP POP POP POP POP POP POP JUMP JUMPDEST PUSH1 0x60 PUSH1 0x0 DUP3 PUSH1 0x2 MUL PUSH8 0xFFFFFFFFFFFFFFFF DUP2 GT DUP1 ISZERO PUSH2 0x19D0 JUMPI PUSH1 0x0 DUP1 REVERT JUMPDEST POP PUSH1 0x40 MLOAD SWAP1 DUP1 DUP3 MSTORE DUP1 PUSH1 0x1F ADD PUSH1 0x1F NOT AND PUSH1 0x20 ADD DUP3 ADD PUSH1 0x40 MSTORE DUP1 ISZERO PUSH2 0x19FB JUMPI PUSH1 0x20 DUP3 ADD DUP2 DUP1 CALLDATASIZE DUP4 CALLDATACOPY ADD SWAP1 POP JUMPDEST POP DUP1 MLOAD SWAP1 SWAP2 POP JUMPDEST DUP1 ISZERO PUSH2 0x1A71 JUMPI PUSH32 0x3031323334353637383961626364656600000000000000000000000000000000 DUP6 PUSH1 0xF AND PUSH1 0x10 DUP2 LT PUSH2 0x1A37 JUMPI INVALID JUMPDEST BYTE PUSH1 0xF8 SHL DUP3 PUSH1 0x1 DUP4 SUB DUP2 MLOAD DUP2 LT PUSH2 0x1A4A JUMPI INVALID JUMPDEST PUSH1 0x20 ADD ADD SWAP1 PUSH1 0x1 PUSH1 0x1 PUSH1 0xF8 SHL SUB NOT AND SWAP1 DUP2 PUSH1 0x0 BYTE SWAP1 MSTORE8 POP PUSH1 0x4 SWAP5 SWAP1 SWAP5 SHR SWAP4 PUSH1 0x0 NOT ADD PUSH2 0x1A02 JUMP JUMPDEST POP SWAP4 SWAP3 POP POP POP JUMP JUMPDEST SHR PUSH1 0xFF AND SWAP1 JUMP JUMPDEST PUSH1 0x0 DUP3 PUSH2 0x1A8F JUMPI POP PUSH1 0x0 PUSH2 0x486 JUMP JUMPDEST DUP3 DUP3 MUL DUP3 DUP5 DUP3 DUP2 PUSH2 0x1A9C JUMPI INVALID JUMPDEST DIV EQ PUSH2 0x685 JUMPI PUSH1 0x40 MLOAD PUSH3 0x461BCD PUSH1 0xE5 SHL DUP2 MSTORE PUSH1 0x4 ADD DUP1 DUP1 PUSH1 0x20 ADD DUP3 DUP2 SUB DUP3 MSTORE PUSH1 0x21 DUP2 MSTORE PUSH1 0x20 ADD DUP1 PUSH2 0x548A PUSH1 0x21 SWAP2 CODECOPY PUSH1 0x40 ADD SWAP2 POP POP PUSH1 0x40 MLOAD DUP1 SWAP2 SUB SWAP1 REVERT JUMPDEST PUSH1 0x60 PUSH2 0x1B6E DUP3 PUSH2 0x160 ADD MLOAD PUSH1 0x40 MLOAD PUSH1 0x20 ADD DUP1 DUP1 PUSH2 0x5044 PUSH1 0x81 SWAP2 CODECOPY PUSH1 0x81 ADD DUP3 DUP1 MLOAD SWAP1 PUSH1 0x20 ADD SWAP1 DUP1 DUP4 DUP4 JUMPDEST PUSH1 0x20 DUP4 LT PUSH2 0x1B21 JUMPI DUP1 MLOAD DUP3 MSTORE PUSH1 0x1F NOT SWAP1 SWAP3 ADD SWAP2 PUSH1 0x20 SWAP2 DUP3 ADD SWAP2 ADD PUSH2 0x1B02 JUMP JUMPDEST PUSH1 0x1 DUP4 PUSH1 0x20 SUB PUSH2 0x100 EXP SUB DUP1 NOT DUP3 MLOAD AND DUP2 DUP5 MLOAD AND DUP1 DUP3 OR DUP6 MSTORE POP POP POP POP POP POP SWAP1 POP ADD DUP1 PUSH9 0x13979F1E17B9BB339F PUSH1 0xB9 SHL DUP2 MSTORE POP PUSH1 0x9 ADD SWAP2 POP POP PUSH1 0x40 MLOAD PUSH1 0x20 DUP2 DUP4 SUB SUB DUP2 MSTORE SWAP1 PUSH1 0x40 MSTORE PUSH2 0x9D8 JUMP JUMPDEST PUSH2 0x1CDA DUP4 PUSH2 0x1E0 ADD MLOAD DUP5 PUSH2 0x200 ADD MLOAD DUP6 PUSH2 0x180 ADD MLOAD PUSH1 0x40 MLOAD PUSH1 0x20 ADD DUP1 DUP1 PUSH2 0x4B81 PUSH1 0x63 SWAP2 CODECOPY PUSH1 0x63 ADD DUP5 DUP1 MLOAD SWAP1 PUSH1 0x20 ADD SWAP1 DUP1 DUP4 DUP4 JUMPDEST PUSH1 0x20 DUP4 LT PUSH2 0x1BC0 JUMPI DUP1 MLOAD DUP3 MSTORE PUSH1 0x1F NOT SWAP1 SWAP3 ADD SWAP2 PUSH1 0x20 SWAP2 DUP3 ADD SWAP2 ADD PUSH2 0x1BA1 JUMP JUMPDEST MLOAD DUP2 MLOAD PUSH1 0x20 SWAP4 DUP5 SUB PUSH2 0x100 EXP PUSH1 0x0 NOT ADD DUP1 NOT SWAP1 SWAP3 AND SWAP2 AND OR SWAP1 MSTORE PUSH6 0x272063793D27 PUSH1 0xD0 SHL SWAP2 SWAP1 SWAP4 ADD SWAP1 DUP2 MSTORE DUP6 MLOAD PUSH1 0x6 SWAP1 SWAP2 ADD SWAP3 DUP7 ADD SWAP2 POP DUP1 DUP4 DUP4 JUMPDEST PUSH1 0x20 DUP4 LT PUSH2 0x1C1A JUMPI DUP1 MLOAD DUP3 MSTORE PUSH1 0x1F NOT SWAP1 SWAP3 ADD SWAP2 PUSH1 0x20 SWAP2 DUP3 ADD SWAP2 ADD PUSH2 0x1BFB JUMP JUMPDEST MLOAD DUP2 MLOAD PUSH1 0x20 SWAP4 DUP5 SUB PUSH2 0x100 EXP PUSH1 0x0 NOT ADD DUP1 NOT SWAP1 SWAP3 AND SWAP2 AND OR SWAP1 MSTORE PUSH32 0x2720723D273132307078272066696C6C3D272300000000000000000000000000 SWAP2 SWAP1 SWAP4 ADD SWAP1 DUP2 MSTORE DUP5 MLOAD PUSH1 0x13 SWAP1 SWAP2 ADD SWAP3 DUP6 ADD SWAP2 POP DUP1 DUP4 DUP4 JUMPDEST PUSH1 0x20 DUP4 LT PUSH2 0x1C8B JUMPI DUP1 MLOAD DUP3 MSTORE PUSH1 0x1F NOT SWAP1 SWAP3 ADD SWAP2 PUSH1 0x20 SWAP2 DUP3 ADD SWAP2 ADD PUSH2 0x1C6C JUMP JUMPDEST PUSH1 0x1 DUP4 PUSH1 0x20 SUB PUSH2 0x100 EXP SUB DUP1 NOT DUP3 MLOAD AND DUP2 DUP5 MLOAD AND DUP1 DUP3 OR DUP6 MSTORE POP POP POP POP POP POP SWAP1 POP ADD DUP1 PUSH9 0x13979F1E17B9BB339F PUSH1 0xB9 SHL DUP2 MSTORE POP PUSH1 0x9 ADD SWAP4 POP POP POP POP PUSH1 0x40 MLOAD PUSH1 0x20 DUP2 DUP4 SUB SUB DUP2 MSTORE SWAP1 PUSH1 0x40 MSTORE PUSH2 0x9D8 JUMP JUMPDEST PUSH2 0x1D2B DUP5 PUSH2 0x220 ADD MLOAD DUP6 PUSH2 0x240 ADD MLOAD DUP7 PUSH2 0x1A0 ADD MLOAD PUSH1 0x40 MLOAD PUSH1 0x20 ADD DUP1 DUP1 PUSH2 0x4B81 PUSH1 0x63 SWAP2 CODECOPY PUSH1 0x63 ADD DUP5 DUP1 MLOAD SWAP1 PUSH1 0x20 ADD SWAP1 DUP1 DUP4 DUP4 PUSH1 0x20 DUP4 LT PUSH2 0x1BC0 JUMPI DUP1 MLOAD DUP3 MSTORE PUSH1 0x1F NOT SWAP1 SWAP3 ADD SWAP2 PUSH1 0x20 SWAP2 DUP3 ADD SWAP2 ADD PUSH2 0x1BA1 JUMP JUMPDEST PUSH2 0x1E4A DUP6 PUSH2 0x260 ADD MLOAD DUP7 PUSH2 0x280 ADD MLOAD DUP8 PUSH2 0x1C0 ADD MLOAD PUSH1 0x40 MLOAD PUSH1 0x20 ADD DUP1 DUP1 PUSH2 0x4B81 PUSH1 0x63 SWAP2 CODECOPY PUSH1 0x63 ADD DUP5 DUP1 MLOAD SWAP1 PUSH1 0x20 ADD SWAP1 DUP1 DUP4 DUP4 JUMPDEST PUSH1 0x20 DUP4 LT PUSH2 0x1D7D JUMPI DUP1 MLOAD DUP3 MSTORE PUSH1 0x1F NOT SWAP1 SWAP3 ADD SWAP2 PUSH1 0x20 SWAP2 DUP3 ADD SWAP2 ADD PUSH2 0x1D5E JUMP JUMPDEST MLOAD DUP2 MLOAD PUSH1 0x20 SWAP4 DUP5 SUB PUSH2 0x100 EXP PUSH1 0x0 NOT ADD DUP1 NOT SWAP1 SWAP3 AND SWAP2 AND OR SWAP1 MSTORE PUSH6 0x272063793D27 PUSH1 0xD0 SHL SWAP2 SWAP1 SWAP4 ADD SWAP1 DUP2 MSTORE DUP6 MLOAD PUSH1 0x6 SWAP1 SWAP2 ADD SWAP3 DUP7 ADD SWAP2 POP DUP1 DUP4 DUP4 JUMPDEST PUSH1 0x20 DUP4 LT PUSH2 0x1DD7 JUMPI DUP1 MLOAD DUP3 MSTORE PUSH1 0x1F NOT SWAP1 SWAP3 ADD SWAP2 PUSH1 0x20 SWAP2 DUP3 ADD SWAP2 ADD PUSH2 0x1DB8 JUMP JUMPDEST MLOAD DUP2 MLOAD PUSH1 0x0 NOT PUSH1 0x20 SWAP5 DUP6 SUB PUSH2 0x100 EXP ADD SWAP1 DUP2 AND SWAP1 NOT SWAP2 SWAP1 SWAP2 AND OR SWAP1 MSTORE PUSH32 0x2720723D273130307078272066696C6C3D272300000000000000000000000000 SWAP4 SWAP1 SWAP2 ADD SWAP3 DUP4 MSTORE DUP5 MLOAD PUSH1 0x13 SWAP1 SWAP4 ADD SWAP3 SWAP1 DUP6 ADD SWAP2 POP DUP1 DUP4 DUP4 PUSH1 0x20 DUP4 LT PUSH2 0x1C8B JUMPI DUP1 MLOAD DUP3 MSTORE PUSH1 0x1F NOT SWAP1 SWAP3 ADD SWAP2 PUSH1 0x20 SWAP2 DUP3 ADD SWAP2 ADD PUSH2 0x1C6C JUMP JUMPDEST PUSH2 0x160 DUP7 ADD MLOAD PUSH1 0x40 MLOAD PUSH1 0x20 ADD DUP1 PUSH1 0x56 PUSH2 0x48FC DUP3 CODECOPY PUSH1 0x56 ADD PUSH1 0x2C PUSH2 0x52AB DUP3 CODECOPY PUSH32 0x3C646566733E0000000000000000000000000000000000000000000000000000 PUSH1 0x2C DUP3 ADD MSTORE PUSH1 0x32 ADD PUSH1 0x4B PUSH2 0x4FF9 DUP3 CODECOPY PUSH1 0x4B ADD DUP7 DUP1 MLOAD SWAP1 PUSH1 0x20 ADD SWAP1 DUP1 DUP4 DUP4 JUMPDEST PUSH1 0x20 DUP4 LT PUSH2 0x1EC6 JUMPI DUP1 MLOAD DUP3 MSTORE PUSH1 0x1F NOT SWAP1 SWAP3 ADD SWAP2 PUSH1 0x20 SWAP2 DUP3 ADD SWAP2 ADD PUSH2 0x1EA7 JUMP JUMPDEST PUSH1 0x1 DUP4 PUSH1 0x20 SUB PUSH2 0x100 EXP SUB DUP1 NOT DUP3 MLOAD AND DUP2 DUP5 MLOAD AND DUP1 DUP3 OR DUP6 MSTORE POP POP POP POP POP POP SWAP1 POP ADD DUP1 PUSH2 0x5B31 PUSH1 0x3E SWAP2 CODECOPY PUSH1 0x3E ADD DUP6 DUP1 MLOAD SWAP1 PUSH1 0x20 ADD SWAP1 DUP1 DUP4 DUP4 JUMPDEST PUSH1 0x20 DUP4 LT PUSH2 0x1F1E JUMPI DUP1 MLOAD DUP3 MSTORE PUSH1 0x1F NOT SWAP1 SWAP3 ADD SWAP2 PUSH1 0x20 SWAP2 DUP3 ADD SWAP2 ADD PUSH2 0x1EFF JUMP JUMPDEST PUSH1 0x1 DUP4 PUSH1 0x20 SUB PUSH2 0x100 EXP SUB DUP1 NOT DUP3 MLOAD AND DUP2 DUP5 MLOAD AND DUP1 DUP3 OR DUP6 MSTORE POP POP POP POP POP POP SWAP1 POP ADD DUP1 PUSH2 0x50C5 PUSH1 0x3E SWAP2 CODECOPY PUSH1 0x3E ADD DUP5 DUP1 MLOAD SWAP1 PUSH1 0x20 ADD SWAP1 DUP1 DUP4 DUP4 JUMPDEST PUSH1 0x20 DUP4 LT PUSH2 0x1F76 JUMPI DUP1 MLOAD DUP3 MSTORE PUSH1 0x1F NOT SWAP1 SWAP3 ADD SWAP2 PUSH1 0x20 SWAP2 DUP3 ADD SWAP2 ADD PUSH2 0x1F57 JUMP JUMPDEST MLOAD DUP2 MLOAD PUSH1 0x20 SWAP4 SWAP1 SWAP4 SUB PUSH2 0x100 EXP PUSH1 0x0 NOT ADD DUP1 NOT SWAP1 SWAP2 AND SWAP3 AND SWAP2 SWAP1 SWAP2 OR SWAP1 MSTORE PUSH32 0x22202F3E00000000000000000000000000000000000000000000000000000000 SWAP3 ADD SWAP2 DUP3 MSTORE POP PUSH1 0x4 ADD PUSH1 0x3B PUSH2 0x47F4 DUP3 CODECOPY PUSH1 0x3B ADD DUP4 DUP1 MLOAD SWAP1 PUSH1 0x20 ADD SWAP1 DUP1 DUP4 DUP4 JUMPDEST PUSH1 0x20 DUP4 LT PUSH2 0x1FF3 JUMPI DUP1 MLOAD DUP3 MSTORE PUSH1 0x1F NOT SWAP1 SWAP3 ADD SWAP2 PUSH1 0x20 SWAP2 DUP3 ADD SWAP2 ADD PUSH2 0x1FD4 JUMP JUMPDEST PUSH1 0x1 DUP4 PUSH1 0x20 SUB PUSH2 0x100 EXP SUB DUP1 NOT DUP3 MLOAD AND DUP2 DUP5 MLOAD AND DUP1 DUP3 OR DUP6 MSTORE POP POP POP POP POP POP SWAP1 POP ADD DUP1 PUSH2 0x4C41 PUSH1 0x99 SWAP2 CODECOPY PUSH1 0x99 ADD PUSH1 0x7F PUSH2 0x56E2 DUP3 CODECOPY PUSH1 0x7F ADD PUSH1 0x88 PUSH2 0x5AA9 DUP3 CODECOPY PUSH1 0x88 ADD PUSH1 0x41 PUSH2 0x4CDA DUP3 CODECOPY PUSH1 0x41 ADD PUSH1 0x5D PUSH2 0x5C69 DUP3 CODECOPY PUSH1 0x5D ADD PUSH1 0x72 PUSH2 0x578E DUP3 CODECOPY PUSH1 0x72 ADD PUSH1 0x49 PUSH2 0x475D DUP3 CODECOPY PUSH1 0x49 ADD PUSH1 0xBE PUSH2 0x4F3B DUP3 CODECOPY PUSH1 0xBE ADD PUSH1 0x71 PUSH2 0x4A0D DUP3 CODECOPY PUSH1 0x71 ADD PUSH1 0x75 PUSH2 0x5625 DUP3 CODECOPY PUSH1 0x75 ADD PUSH1 0x66 PUSH2 0x4D1B DUP3 CODECOPY PUSH1 0x66 ADD PUSH1 0xA4 PUSH2 0x52D7 DUP3 CODECOPY PUSH1 0xA4 ADD PUSH1 0x85 PUSH2 0x5B6F DUP3 CODECOPY PUSH32 0x3C6720636C69702D706174683D2275726C2823636F726E65727329223E000000 PUSH1 0x85 DUP3 ADD MSTORE PUSH32 0x3C726563742066696C6C3D220000000000000000000000000000000000000000 PUSH1 0xA2 DUP3 ADD MSTORE DUP3 MLOAD PUSH1 0xAE SWAP1 SWAP2 ADD SWAP1 PUSH1 0x20 DUP5 ADD SWAP1 DUP1 DUP4 DUP4 JUMPDEST PUSH1 0x20 DUP4 LT PUSH2 0x2111 JUMPI DUP1 MLOAD DUP3 MSTORE PUSH1 0x1F NOT SWAP1 SWAP3 ADD SWAP2 PUSH1 0x20 SWAP2 DUP3 ADD SWAP2 ADD PUSH2 0x20F2 JUMP JUMPDEST PUSH1 0x1 DUP4 PUSH1 0x20 SUB PUSH2 0x100 EXP SUB DUP1 NOT DUP3 MLOAD AND DUP2 DUP5 MLOAD AND DUP1 DUP3 OR DUP6 MSTORE POP POP POP POP POP POP SWAP1 POP ADD DUP1 PUSH2 0x4D81 PUSH1 0x31 SWAP2 CODECOPY PUSH1 0x31 ADD PUSH1 0x4E PUSH2 0x47A6 DUP3 CODECOPY PUSH1 0x4E ADD PUSH1 0x5D PUSH2 0x4BE4 DUP3 CODECOPY PUSH1 0x5D ADD PUSH1 0x41 PUSH2 0x522A DUP3 CODECOPY PUSH1 0x41 ADD PUSH1 0x52 PUSH2 0x5103 DUP3 CODECOPY PUSH1 0x52 ADD PUSH1 0x75 PUSH2 0x5BF4 DUP3 CODECOPY PUSH1 0x75 ADD SWAP6 POP POP POP POP POP POP PUSH1 0x40 MLOAD PUSH1 0x20 DUP2 DUP4 SUB SUB DUP2 MSTORE SWAP1 PUSH1 0x40 MSTORE SWAP1 POP SWAP2 SWAP1 POP JUMP JUMPDEST PUSH1 0x60 DUP4 DUP3 DUP6 DUP5 DUP9 DUP8 DUP11 DUP10 PUSH1 0x40 MLOAD PUSH1 0x20 ADD DUP1 DUP1 PUSH2 0x5D4C PUSH1 0x25 SWAP2 CODECOPY PUSH1 0x25 ADD PUSH1 0x7D PUSH2 0x4EBE DUP3 CODECOPY PUSH1 0x7D ADD DUP10 DUP1 MLOAD SWAP1 PUSH1 0x20 ADD SWAP1 DUP1 DUP4 DUP4 JUMPDEST PUSH1 0x20 DUP4 LT PUSH2 0x21DE JUMPI DUP1 MLOAD DUP3 MSTORE PUSH1 0x1F NOT SWAP1 SWAP3 ADD SWAP2 PUSH1 0x20 SWAP2 DUP3 ADD SWAP2 ADD PUSH2 0x21BF JUMP JUMPDEST MLOAD DUP2 MLOAD PUSH1 0x20 SWAP4 DUP5 SUB PUSH2 0x100 EXP PUSH1 0x0 NOT ADD DUP1 NOT SWAP1 SWAP3 AND SWAP2 AND OR SWAP1 MSTORE PUSH5 0x107140511 PUSH1 0xDD SHL SWAP2 SWAP1 SWAP4 ADD SWAP1 DUP2 MSTORE DUP11 MLOAD PUSH1 0x5 SWAP1 SWAP2 ADD SWAP3 DUP12 ADD SWAP2 POP DUP1 DUP4 DUP4 JUMPDEST PUSH1 0x20 DUP4 LT PUSH2 0x2237 JUMPI DUP1 MLOAD DUP3 MSTORE PUSH1 0x1F NOT SWAP1 SWAP3 ADD SWAP2 PUSH1 0x20 SWAP2 DUP3 ADD SWAP2 ADD PUSH2 0x2218 JUMP JUMPDEST PUSH1 0x1 DUP4 PUSH1 0x20 SUB PUSH2 0x100 EXP SUB DUP1 NOT DUP3 MLOAD AND DUP2 DUP5 MLOAD AND DUP1 DUP3 OR DUP6 MSTORE POP POP POP POP POP POP SWAP1 POP ADD DUP1 PUSH2 0x4DB2 PUSH1 0x79 SWAP2 CODECOPY PUSH1 0x79 ADD PUSH1 0x86 PUSH2 0x5CC6 DUP3 CODECOPY PUSH1 0x86 ADD DUP8 DUP1 MLOAD SWAP1 PUSH1 0x20 ADD SWAP1 DUP1 DUP4 DUP4 JUMPDEST PUSH1 0x20 DUP4 LT PUSH2 0x2299 JUMPI DUP1 MLOAD DUP3 MSTORE PUSH1 0x1F NOT SWAP1 SWAP3 ADD SWAP2 PUSH1 0x20 SWAP2 DUP3 ADD SWAP2 ADD PUSH2 0x227A JUMP JUMPDEST MLOAD DUP2 MLOAD PUSH1 0x20 SWAP4 DUP5 SUB PUSH2 0x100 EXP PUSH1 0x0 NOT ADD DUP1 NOT SWAP1 SWAP3 AND SWAP2 AND OR SWAP1 MSTORE PUSH5 0x107140511 PUSH1 0xDD SHL SWAP2 SWAP1 SWAP4 ADD SWAP1 DUP2 MSTORE DUP9 MLOAD PUSH1 0x5 SWAP1 SWAP2 ADD SWAP3 DUP10 ADD SWAP2 POP DUP1 DUP4 DUP4 JUMPDEST PUSH1 0x20 DUP4 LT PUSH2 0x22F2 JUMPI DUP1 MLOAD DUP3 MSTORE PUSH1 0x1F NOT SWAP1 SWAP3 ADD SWAP2 PUSH1 0x20 SWAP2 DUP3 ADD SWAP2 ADD PUSH2 0x22D3 JUMP JUMPDEST PUSH1 0x1 DUP4 PUSH1 0x20 SUB PUSH2 0x100 EXP SUB DUP1 NOT DUP3 MLOAD AND DUP2 DUP5 MLOAD AND DUP1 DUP3 OR DUP6 MSTORE POP POP POP POP POP POP SWAP1 POP ADD DUP1 PUSH2 0x4988 PUSH1 0x85 SWAP2 CODECOPY PUSH1 0x85 ADD PUSH1 0x7B PUSH2 0x5917 DUP3 CODECOPY PUSH1 0x7B ADD DUP6 DUP1 MLOAD SWAP1 PUSH1 0x20 ADD SWAP1 DUP1 DUP4 DUP4 JUMPDEST PUSH1 0x20 DUP4 LT PUSH2 0x2354 JUMPI DUP1 MLOAD DUP3 MSTORE PUSH1 0x1F NOT SWAP1 SWAP3 ADD SWAP2 PUSH1 0x20 SWAP2 DUP3 ADD SWAP2 ADD PUSH2 0x2335 JUMP JUMPDEST MLOAD DUP2 MLOAD PUSH1 0x20 SWAP4 DUP5 SUB PUSH2 0x100 EXP PUSH1 0x0 NOT ADD DUP1 NOT SWAP1 SWAP3 AND SWAP2 AND OR SWAP1 MSTORE PUSH5 0x107140511 PUSH1 0xDD SHL SWAP2 SWAP1 SWAP4 ADD SWAP1 DUP2 MSTORE DUP7 MLOAD PUSH1 0x5 SWAP1 SWAP2 ADD SWAP3 DUP8 ADD SWAP2 POP DUP1 DUP4 DUP4 JUMPDEST PUSH1 0x20 DUP4 LT PUSH2 0x23AD JUMPI DUP1 MLOAD DUP3 MSTORE PUSH1 0x1F NOT SWAP1 SWAP3 ADD SWAP2 PUSH1 0x20 SWAP2 DUP3 ADD SWAP2 ADD PUSH2 0x238E JUMP JUMPDEST PUSH1 0x1 DUP4 PUSH1 0x20 SUB PUSH2 0x100 EXP SUB DUP1 NOT DUP3 MLOAD AND DUP2 DUP5 MLOAD AND DUP1 DUP3 OR DUP6 MSTORE POP POP POP POP POP POP SWAP1 POP ADD DUP1 PUSH2 0x4AD2 PUSH1 0x5D SWAP2 CODECOPY PUSH1 0x5D ADD PUSH1 0xA3 PUSH2 0x5582 DUP3 CODECOPY PUSH1 0xA3 ADD DUP4 DUP1 MLOAD SWAP1 PUSH1 0x20 ADD SWAP1 DUP1 DUP4 DUP4 JUMPDEST PUSH1 0x20 DUP4 LT PUSH2 0x240F JUMPI DUP1 MLOAD DUP3 MSTORE PUSH1 0x1F NOT SWAP1 SWAP3 ADD SWAP2 PUSH1 0x20 SWAP2 DUP3 ADD SWAP2 ADD PUSH2 0x23F0 JUMP JUMPDEST MLOAD DUP2 MLOAD PUSH1 0x20 SWAP4 DUP5 SUB PUSH2 0x100 EXP PUSH1 0x0 NOT ADD DUP1 NOT SWAP1 SWAP3 AND SWAP2 AND OR SWAP1 MSTORE PUSH5 0x107140511 PUSH1 0xDD SHL SWAP2 SWAP1 SWAP4 ADD SWAP1 DUP2 MSTORE DUP5 MLOAD PUSH1 0x5 SWAP1 SWAP2 ADD SWAP3 DUP6 ADD SWAP2 POP DUP1 DUP4 DUP4 JUMPDEST PUSH1 0x20 DUP4 LT PUSH2 0x2468 JUMPI DUP1 MLOAD DUP3 MSTORE PUSH1 0x1F NOT SWAP1 SWAP3 ADD SWAP2 PUSH1 0x20 SWAP2 DUP3 ADD SWAP2 ADD PUSH2 0x2449 JUMP JUMPDEST PUSH1 0x1 DUP4 PUSH1 0x20 SUB PUSH2 0x100 EXP SUB DUP1 NOT DUP3 MLOAD AND DUP2 DUP5 MLOAD AND DUP1 DUP3 OR DUP6 MSTORE POP POP POP POP POP POP SWAP1 POP ADD DUP1 PUSH2 0x46D2 PUSH1 0x8B SWAP2 CODECOPY PUSH1 0x8B ADD SWAP9 POP POP POP POP POP POP POP POP POP PUSH1 0x40 MLOAD PUSH1 0x20 DUP2 DUP4 SUB SUB DUP2 MSTORE SWAP1 PUSH1 0x40 MSTORE SWAP1 POP SWAP5 SWAP4 POP POP POP POP JUMP JUMPDEST PUSH1 0x60 DUP4 DUP4 DUP4 PUSH1 0x40 MLOAD PUSH1 0x20 ADD DUP1 DUP1 PUSH2 0x482F PUSH1 0xCD SWAP2 CODECOPY PUSH1 0xCD ADD DUP5 DUP1 MLOAD SWAP1 PUSH1 0x20 ADD SWAP1 DUP1 DUP4 DUP4 JUMPDEST PUSH1 0x20 DUP4 LT PUSH2 0x24FA JUMPI DUP1 MLOAD DUP3 MSTORE PUSH1 0x1F NOT SWAP1 SWAP3 ADD SWAP2 PUSH1 0x20 SWAP2 DUP3 ADD SWAP2 ADD PUSH2 0x24DB JUMP JUMPDEST PUSH1 0x1 DUP4 PUSH1 0x20 SUB PUSH2 0x100 EXP SUB DUP1 NOT DUP3 MLOAD AND DUP2 DUP5 MLOAD AND DUP1 DUP3 OR DUP6 MSTORE POP POP POP POP POP POP SWAP1 POP ADD DUP1 PUSH1 0x2F PUSH1 0xF8 SHL DUP2 MSTORE POP PUSH1 0x1 ADD DUP4 DUP1 MLOAD SWAP1 PUSH1 0x20 ADD SWAP1 DUP1 DUP4 DUP4 JUMPDEST PUSH1 0x20 DUP4 LT PUSH2 0x2553 JUMPI DUP1 MLOAD DUP3 MSTORE PUSH1 0x1F NOT SWAP1 SWAP3 ADD SWAP2 PUSH1 0x20 SWAP2 DUP3 ADD SWAP2 ADD PUSH2 0x2534 JUMP JUMPDEST PUSH1 0x1 DUP4 PUSH1 0x20 SUB PUSH2 0x100 EXP SUB DUP1 NOT DUP3 MLOAD AND DUP2 DUP5 MLOAD AND DUP1 DUP3 OR DUP6 MSTORE POP POP POP POP POP POP SWAP1 POP ADD DUP1 PUSH2 0x5EF5 PUSH1 0x77 SWAP2 CODECOPY PUSH1 0x77 ADD DUP3 DUP1 MLOAD SWAP1 PUSH1 0x20 ADD SWAP1 DUP1 DUP4 DUP4 JUMPDEST PUSH1 0x20 DUP4 LT PUSH2 0x25AB JUMPI DUP1 MLOAD DUP3 MSTORE PUSH1 0x1F NOT SWAP1 SWAP3 ADD SWAP2 PUSH1 0x20 SWAP2 DUP3 ADD SWAP2 ADD PUSH2 0x258C JUMP JUMPDEST MLOAD DUP2 MLOAD PUSH1 0x20 SWAP4 SWAP1 SWAP4 SUB PUSH2 0x100 EXP PUSH1 0x0 NOT ADD DUP1 NOT SWAP1 SWAP2 AND SWAP3 AND SWAP2 SWAP1 SWAP2 OR SWAP1 MSTORE PUSH11 0x1E17BA32BC3A1F1E17B39F PUSH1 0xA9 SHL SWAP3 ADD SWAP2 DUP3 MSTORE POP PUSH1 0xB ADD PUSH1 0x73 PUSH2 0x5D95 DUP3 CODECOPY PUSH1 0x73 ADD SWAP4 POP POP POP POP PUSH1 0x40 MLOAD PUSH1 0x20 DUP2 DUP4 SUB SUB DUP2 MSTORE SWAP1 PUSH1 0x40 MSTORE SWAP1 POP SWAP4 SWAP3 POP POP POP JUMP JUMPDEST PUSH1 0x60 PUSH1 0x0 DUP3 PUSH1 0x0 SIGNEXTEND PUSH1 0x1 EQ PUSH2 0x269A JUMPI DUP3 PUSH1 0x0 SIGNEXTEND PUSH1 0x0 NOT EQ PUSH2 0x265E JUMPI PUSH1 0x40 MLOAD DUP1 PUSH1 0x40 ADD PUSH1 0x40 MSTORE DUP1 PUSH1 0x5 DUP2 MSTORE PUSH1 0x20 ADD PUSH32 0x236E6F6E65000000000000000000000000000000000000000000000000000000 DUP2 MSTORE POP PUSH2 0x2695 JUMP JUMPDEST PUSH1 0x40 MLOAD DUP1 PUSH1 0x40 ADD PUSH1 0x40 MSTORE DUP1 PUSH1 0xA DUP2 MSTORE PUSH1 0x20 ADD PUSH32 0x23666164652D646F776E00000000000000000000000000000000000000000000 DUP2 MSTORE POP JUMPDEST PUSH2 0x26D1 JUMP JUMPDEST PUSH1 0x40 MLOAD DUP1 PUSH1 0x40 ADD PUSH1 0x40 MSTORE DUP1 PUSH1 0x8 DUP2 MSTORE PUSH1 0x20 ADD PUSH32 0x23666164652D7570000000000000000000000000000000000000000000000000 DUP2 MSTORE POP JUMPDEST SWAP1 POP PUSH1 0x0 PUSH2 0x26E0 DUP8 DUP8 DUP8 PUSH2 0x3026 JUMP JUMPDEST SWAP1 POP DUP2 DUP2 DUP4 DUP4 PUSH2 0x26EF DUP9 PUSH2 0x3274 JUMP JUMPDEST PUSH1 0x40 MLOAD PUSH1 0x20 ADD DUP1 DUP1 PUSH32 0x3C67206D61736B3D2275726C2800000000000000000000000000000000000000 DUP2 MSTORE POP PUSH1 0xD ADD DUP7 DUP1 MLOAD SWAP1 PUSH1 0x20 ADD SWAP1 DUP1 DUP4 DUP4 JUMPDEST PUSH1 0x20 DUP4 LT PUSH2 0x2749 JUMPI DUP1 MLOAD DUP3 MSTORE PUSH1 0x1F NOT SWAP1 SWAP3 ADD SWAP2 PUSH1 0x20 SWAP2 DUP3 ADD SWAP2 ADD PUSH2 0x272A JUMP JUMPDEST MLOAD DUP2 MLOAD PUSH1 0x20 SWAP4 SWAP1 SWAP4 SUB PUSH2 0x100 EXP PUSH1 0x0 NOT ADD DUP1 NOT SWAP1 SWAP2 AND SWAP3 AND SWAP2 SWAP1 SWAP2 OR SWAP1 MSTORE PUSH2 0x1491 PUSH1 0xF1 SHL SWAP3 ADD SWAP2 DUP3 MSTORE POP PUSH1 0x2 ADD PUSH1 0x77 PUSH2 0x537B DUP3 CODECOPY PUSH1 0x77 ADD DUP6 DUP1 MLOAD SWAP1 PUSH1 0x20 ADD SWAP1 DUP1 DUP4 DUP4 JUMPDEST PUSH1 0x20 DUP4 LT PUSH2 0x27AB JUMPI DUP1 MLOAD DUP3 MSTORE PUSH1 0x1F NOT SWAP1 SWAP3 ADD SWAP2 PUSH1 0x20 SWAP2 DUP3 ADD SWAP2 ADD PUSH2 0x278C JUMP JUMPDEST PUSH1 0x1 DUP4 PUSH1 0x20 SUB PUSH2 0x100 EXP SUB DUP1 NOT DUP3 MLOAD AND DUP2 DUP5 MLOAD AND DUP1 DUP3 OR DUP6 MSTORE POP POP POP POP POP POP SWAP1 POP ADD DUP1 PUSH2 0x4A7E PUSH1 0x54 SWAP2 CODECOPY PUSH1 0x54 ADD DUP1 PUSH32 0x3C2F673E3C67206D61736B3D2275726C28000000000000000000000000000000 DUP2 MSTORE POP PUSH1 0x11 ADD DUP5 DUP1 MLOAD SWAP1 PUSH1 0x20 ADD SWAP1 DUP1 DUP4 DUP4 JUMPDEST PUSH1 0x20 DUP4 LT PUSH2 0x282B JUMPI DUP1 MLOAD DUP3 MSTORE PUSH1 0x1F NOT SWAP1 SWAP3 ADD SWAP2 PUSH1 0x20 SWAP2 DUP3 ADD SWAP2 ADD PUSH2 0x280C JUMP JUMPDEST MLOAD DUP2 MLOAD PUSH1 0x20 SWAP4 SWAP1 SWAP4 SUB PUSH2 0x100 EXP PUSH1 0x0 NOT ADD DUP1 NOT SWAP1 SWAP2 AND SWAP3 AND SWAP2 SWAP1 SWAP2 OR SWAP1 MSTORE PUSH2 0x1491 PUSH1 0xF1 SHL SWAP3 ADD SWAP2 DUP3 MSTORE POP PUSH1 0x2 ADD PUSH1 0x29 PUSH2 0x53F2 DUP3 CODECOPY PUSH1 0x29 ADD PUSH1 0x45 PUSH2 0x5445 DUP3 CODECOPY PUSH1 0x45 ADD DUP1 PUSH32 0x3C7061746820643D220000000000000000000000000000000000000000000000 DUP2 MSTORE POP PUSH1 0x9 ADD DUP4 DUP1 MLOAD SWAP1 PUSH1 0x20 ADD SWAP1 DUP1 DUP4 DUP4 JUMPDEST PUSH1 0x20 DUP4 LT PUSH2 0x28BF JUMPI DUP1 MLOAD DUP3 MSTORE PUSH1 0x1F NOT SWAP1 SWAP3 ADD SWAP2 PUSH1 0x20 SWAP2 DUP3 ADD SWAP2 ADD PUSH2 0x28A0 JUMP JUMPDEST PUSH1 0x1 DUP4 PUSH1 0x20 SUB PUSH2 0x100 EXP SUB DUP1 NOT DUP3 MLOAD AND DUP2 DUP5 MLOAD AND DUP1 DUP3 OR DUP6 MSTORE POP POP POP POP POP POP SWAP1 POP ADD DUP1 PUSH2 0x569A PUSH1 0x48 SWAP2 CODECOPY PUSH1 0x48 ADD DUP3 DUP1 MLOAD SWAP1 PUSH1 0x20 ADD SWAP1 DUP1 DUP4 DUP4 JUMPDEST PUSH1 0x20 DUP4 LT PUSH2 0x2917 JUMPI DUP1 MLOAD DUP3 MSTORE PUSH1 0x1F NOT SWAP1 SWAP3 ADD SWAP2 PUSH1 0x20 SWAP2 DUP3 ADD SWAP2 ADD PUSH2 0x28F8 JUMP JUMPDEST PUSH1 0x1 DUP4 PUSH1 0x20 SUB PUSH2 0x100 EXP SUB DUP1 NOT DUP3 MLOAD AND DUP2 DUP5 MLOAD AND DUP1 DUP3 OR DUP6 MSTORE POP POP POP POP POP POP SWAP1 POP ADD SWAP6 POP POP POP POP POP POP PUSH1 0x40 MLOAD PUSH1 0x20 DUP2 DUP4 SUB SUB DUP2 MSTORE SWAP1 PUSH1 0x40 MSTORE SWAP3 POP POP POP SWAP5 SWAP4 POP POP POP POP JUMP JUMPDEST PUSH1 0x60 PUSH1 0x0 PUSH2 0x2968 DUP5 PUSH2 0x3748 JUMP JUMPDEST SWAP1 POP PUSH1 0x0 PUSH2 0x2975 DUP5 PUSH2 0x3748 JUMP JUMPDEST DUP7 MLOAD DUP4 MLOAD DUP3 MLOAD SWAP3 SWAP4 POP PUSH1 0x4 SWAP1 SWAP2 ADD SWAP2 PUSH1 0xA SWAP2 DUP3 ADD SWAP2 ADD PUSH1 0x0 DUP1 PUSH2 0x2998 DUP11 DUP11 PUSH2 0x3852 JUMP JUMPDEST SWAP2 POP SWAP2 POP PUSH2 0x29AB DUP6 PUSH1 0x4 ADD PUSH1 0x7 MUL PUSH2 0x68C JUMP JUMPDEST DUP12 PUSH2 0x29BB DUP7 PUSH1 0x4 ADD PUSH1 0x7 MUL PUSH2 0x68C JUMP JUMPDEST DUP10 PUSH2 0x29CB DUP8 PUSH1 0x4 ADD PUSH1 0x7 MUL PUSH2 0x68C JUMP JUMPDEST DUP11 DUP8 DUP8 PUSH1 0x40 MLOAD PUSH1 0x20 ADD DUP1 DUP1 PUSH2 0x5761 PUSH1 0x2D SWAP2 CODECOPY PUSH1 0x2D ADD DUP1 PUSH13 0x1E3932B1BA103BB4B23A341E91 PUSH1 0x99 SHL DUP2 MSTORE POP PUSH1 0xD ADD DUP10 DUP1 MLOAD SWAP1 PUSH1 0x20 ADD SWAP1 DUP1 DUP4 DUP4 JUMPDEST PUSH1 0x20 DUP4 LT PUSH2 0x2A23 JUMPI DUP1 MLOAD DUP3 MSTORE PUSH1 0x1F NOT SWAP1 SWAP3 ADD SWAP2 PUSH1 0x20 SWAP2 DUP3 ADD SWAP2 ADD PUSH2 0x2A04 JUMP JUMPDEST PUSH1 0x1 DUP4 PUSH1 0x20 SUB PUSH2 0x100 EXP SUB DUP1 NOT DUP3 MLOAD AND DUP2 DUP5 MLOAD AND DUP1 DUP3 OR DUP6 MSTORE POP POP POP POP POP POP SWAP1 POP ADD DUP1 PUSH2 0x5155 PUSH1 0x3D SWAP2 CODECOPY PUSH1 0x3D ADD PUSH1 0x8D PUSH2 0x5E08 DUP3 CODECOPY PUSH1 0x8D ADD DUP9 DUP1 MLOAD SWAP1 PUSH1 0x20 ADD SWAP1 DUP1 DUP4 DUP4 JUMPDEST PUSH1 0x20 DUP4 LT PUSH2 0x2A85 JUMPI DUP1 MLOAD DUP3 MSTORE PUSH1 0x1F NOT SWAP1 SWAP3 ADD SWAP2 PUSH1 0x20 SWAP2 DUP3 ADD SWAP2 ADD PUSH2 0x2A66 JUMP JUMPDEST MLOAD DUP2 MLOAD PUSH1 0x20 SWAP4 SWAP1 SWAP4 SUB PUSH2 0x100 EXP PUSH1 0x0 NOT ADD DUP1 NOT SWAP1 SWAP2 AND SWAP3 AND SWAP2 SWAP1 SWAP2 OR SWAP1 MSTORE PUSH11 0x1E17BA32BC3A1F1E17B39F PUSH1 0xA9 SHL SWAP3 ADD SWAP2 DUP3 MSTORE POP PUSH1 0xB ADD PUSH1 0x2D PUSH2 0x5FA4 DUP3 CODECOPY PUSH1 0x2D ADD DUP1 PUSH13 0x1E3932B1BA103BB4B23A341E91 PUSH1 0x99 SHL DUP2 MSTORE POP PUSH1 0xD ADD DUP8 DUP1 MLOAD SWAP1 PUSH1 0x20 ADD SWAP1 DUP1 DUP4 DUP4 JUMPDEST PUSH1 0x20 DUP4 LT PUSH2 0x2B08 JUMPI DUP1 MLOAD DUP3 MSTORE PUSH1 0x1F NOT SWAP1 SWAP3 ADD SWAP2 PUSH1 0x20 SWAP2 DUP3 ADD SWAP2 ADD PUSH2 0x2AE9 JUMP JUMPDEST PUSH1 0x1 DUP4 PUSH1 0x20 SUB PUSH2 0x100 EXP SUB DUP1 NOT DUP3 MLOAD AND DUP2 DUP5 MLOAD AND DUP1 DUP3 OR DUP6 MSTORE POP POP POP POP POP POP SWAP1 POP ADD DUP1 PUSH2 0x5155 PUSH1 0x3D SWAP2 CODECOPY PUSH1 0x3D ADD PUSH1 0x93 PUSH2 0x4E2B DUP3 CODECOPY PUSH1 0x93 ADD DUP7 DUP1 MLOAD SWAP1 PUSH1 0x20 ADD SWAP1 DUP1 DUP4 DUP4 JUMPDEST PUSH1 0x20 DUP4 LT PUSH2 0x2B6A JUMPI DUP1 MLOAD DUP3 MSTORE PUSH1 0x1F NOT SWAP1 SWAP3 ADD SWAP2 PUSH1 0x20 SWAP2 DUP3 ADD SWAP2 ADD PUSH2 0x2B4B JUMP JUMPDEST MLOAD DUP2 MLOAD PUSH1 0x20 SWAP4 SWAP1 SWAP4 SUB PUSH2 0x100 EXP PUSH1 0x0 NOT ADD DUP1 NOT SWAP1 SWAP2 AND SWAP3 AND SWAP2 SWAP1 SWAP2 OR SWAP1 MSTORE PUSH11 0x1E17BA32BC3A1F1E17B39F PUSH1 0xA9 SHL SWAP3 ADD SWAP2 DUP3 MSTORE POP PUSH1 0xB ADD PUSH1 0x2D PUSH2 0x4B2F DUP3 CODECOPY PUSH1 0x2D ADD DUP1 PUSH13 0x1E3932B1BA103BB4B23A341E91 PUSH1 0x99 SHL DUP2 MSTORE POP PUSH1 0xD ADD DUP6 DUP1 MLOAD SWAP1 PUSH1 0x20 ADD SWAP1 DUP1 DUP4 DUP4 JUMPDEST PUSH1 0x20 DUP4 LT PUSH2 0x2BED JUMPI DUP1 MLOAD DUP3 MSTORE PUSH1 0x1F NOT SWAP1 SWAP3 ADD SWAP2 PUSH1 0x20 SWAP2 DUP3 ADD SWAP2 ADD PUSH2 0x2BCE JUMP JUMPDEST PUSH1 0x1 DUP4 PUSH1 0x20 SUB PUSH2 0x100 EXP SUB DUP1 NOT DUP3 MLOAD AND DUP2 DUP5 MLOAD AND DUP1 DUP3 OR DUP6 MSTORE POP POP POP POP POP POP SWAP1 POP ADD DUP1 PUSH2 0x5155 PUSH1 0x3D SWAP2 CODECOPY PUSH1 0x3D ADD PUSH1 0x93 PUSH2 0x5992 DUP3 CODECOPY PUSH1 0x93 ADD DUP5 DUP1 MLOAD SWAP1 PUSH1 0x20 ADD SWAP1 DUP1 DUP4 DUP4 JUMPDEST PUSH1 0x20 DUP4 LT PUSH2 0x2C4F JUMPI DUP1 MLOAD DUP3 MSTORE PUSH1 0x1F NOT SWAP1 SWAP3 ADD SWAP2 PUSH1 0x20 SWAP2 DUP3 ADD SWAP2 ADD PUSH2 0x2C30 JUMP JUMPDEST PUSH1 0x1 DUP4 PUSH1 0x20 SUB PUSH2 0x100 EXP SUB DUP1 NOT DUP3 MLOAD AND DUP2 DUP5 MLOAD AND DUP1 DUP3 OR DUP6 MSTORE POP POP POP POP POP POP SWAP1 POP ADD DUP1 PUSH2 0x5F6C PUSH1 0x38 SWAP2 CODECOPY PUSH1 0x38 ADD PUSH1 0x60 PUSH2 0x5E95 DUP3 CODECOPY PUSH1 0x60 ADD PUSH1 0x64 PUSH2 0x551E DUP3 CODECOPY PUSH1 0x64 ADD PUSH1 0x25 PUSH2 0x4B5C DUP3 CODECOPY PUSH1 0x25 ADD DUP4 DUP1 MLOAD SWAP1 PUSH1 0x20 ADD SWAP1 DUP1 DUP4 DUP4 JUMPDEST PUSH1 0x20 DUP4 LT PUSH2 0x2CC5 JUMPI DUP1 MLOAD DUP3 MSTORE PUSH1 0x1F NOT SWAP1 SWAP3 ADD SWAP2 PUSH1 0x20 SWAP2 DUP3 ADD SWAP2 ADD PUSH2 0x2CA6 JUMP JUMPDEST MLOAD DUP2 MLOAD PUSH1 0x20 SWAP4 DUP5 SUB PUSH2 0x100 EXP PUSH1 0x0 NOT ADD DUP1 NOT SWAP1 SWAP3 AND SWAP2 AND OR SWAP1 MSTORE PUSH32 0x70782C2000000000000000000000000000000000000000000000000000000000 SWAP2 SWAP1 SWAP4 ADD SWAP1 DUP2 MSTORE DUP5 MLOAD PUSH1 0x4 SWAP1 SWAP2 ADD SWAP3 DUP6 ADD SWAP2 POP DUP1 DUP4 DUP4 JUMPDEST PUSH1 0x20 DUP4 LT PUSH2 0x2D36 JUMPI DUP1 MLOAD DUP3 MSTORE PUSH1 0x1F NOT SWAP1 SWAP3 ADD SWAP2 PUSH1 0x20 SWAP2 DUP3 ADD SWAP2 ADD PUSH2 0x2D17 JUMP JUMPDEST PUSH1 0x1 DUP4 PUSH1 0x20 SUB PUSH2 0x100 EXP SUB DUP1 NOT DUP3 MLOAD AND DUP2 DUP5 MLOAD AND DUP1 DUP3 OR DUP6 MSTORE POP POP POP POP POP POP SWAP1 POP ADD DUP1 PUSH2 0x4952 PUSH1 0x36 SWAP2 CODECOPY PUSH1 0x36 ADD SWAP9 POP POP POP POP POP POP POP POP POP PUSH1 0x40 MLOAD PUSH1 0x20 DUP2 DUP4 SUB SUB DUP2 MSTORE SWAP1 PUSH1 0x40 MSTORE SWAP8 POP POP POP POP POP POP POP POP SWAP4 SWAP3 POP POP POP JUMP JUMPDEST PUSH1 0x60 PUSH2 0x2D98 DUP4 DUP4 PUSH2 0x3C83 JUMP JUMPDEST ISZERO PUSH2 0x2DEE JUMPI PUSH1 0x40 MLOAD PUSH1 0x20 ADD DUP1 PUSH1 0x8D PUSH2 0x588A DUP3 CODECOPY PUSH1 0x8D ADD PUSH1 0x73 PUSH2 0x54AB DUP3 CODECOPY PUSH1 0x73 ADD PUSH1 0x71 PUSH2 0x51B9 DUP3 CODECOPY PUSH1 0x71 ADD PUSH1 0x8A PUSH2 0x5800 DUP3 CODECOPY PUSH1 0x8A ADD PUSH1 0x84 PUSH2 0x5A25 DUP3 CODECOPY PUSH1 0x84 ADD SWAP1 POP PUSH1 0x40 MLOAD PUSH1 0x20 DUP2 DUP4 SUB SUB DUP2 MSTORE SWAP1 PUSH1 0x40 MSTORE SWAP1 POP PUSH2 0x486 JUMP JUMPDEST POP PUSH1 0x40 DUP1 MLOAD PUSH1 0x20 DUP2 ADD SWAP1 SWAP2 MSTORE PUSH1 0x0 DUP2 MSTORE SWAP3 SWAP2 POP POP JUMP JUMPDEST PUSH1 0x0 DUP1 PUSH2 0x2E1F PUSH2 0x2E1A PUSH1 0xFF DUP7 DUP2 AND SWAP1 DUP7 AND PUSH2 0x3CE6 JUMP JUMPDEST PUSH2 0x3D4B JUMP JUMPDEST SWAP1 POP PUSH1 0x0 DUP2 GT DUP1 ISZERO PUSH2 0x2E32 JUMPI POP PUSH1 0x12 DUP2 GT ISZERO JUMPDEST ISZERO PUSH2 0x2EF3 JUMPI DUP3 PUSH1 0xFF AND DUP5 PUSH1 0xFF AND GT ISZERO PUSH2 0x2E9C JUMPI PUSH2 0x2E66 PUSH2 0x2E53 DUP3 PUSH1 0x2 PUSH2 0xC14 JUMP JUMPDEST PUSH1 0x1 PUSH1 0x1 PUSH1 0xA0 SHL SUB DUP8 AND SWAP1 PUSH1 0xA EXP PUSH2 0x1A80 JUMP JUMPDEST SWAP2 POP PUSH1 0x2 DUP2 MOD PUSH1 0x1 EQ ISZERO PUSH2 0x2E97 JUMPI PUSH2 0x2E94 DUP3 PUSH17 0x3298B075B4B6A5240945790619B37FD4A PUSH1 0x1 PUSH1 0x80 SHL PUSH2 0x2F06 JUMP JUMPDEST SWAP2 POP JUMPDEST PUSH2 0x2EEE JUMP JUMPDEST PUSH2 0x2EBD PUSH2 0x2EAA DUP3 PUSH1 0x2 PUSH2 0xC14 JUMP JUMPDEST PUSH1 0x1 PUSH1 0x1 PUSH1 0xA0 SHL SUB DUP8 AND SWAP1 PUSH1 0xA EXP PUSH2 0xC14 JUMP JUMPDEST SWAP2 POP PUSH1 0x2 DUP2 MOD PUSH1 0x1 EQ ISZERO PUSH2 0x2EEE JUMPI PUSH2 0x2EEB DUP3 PUSH1 0x1 PUSH1 0x80 SHL PUSH17 0x3298B075B4B6A5240945790619B37FD4A PUSH2 0x2F06 JUMP JUMPDEST SWAP2 POP JUMPDEST PUSH2 0x1A71 JUMP JUMPDEST POP POP PUSH1 0x1 PUSH1 0x1 PUSH1 0xA0 SHL SUB SWAP1 SWAP3 AND SWAP3 SWAP2 POP POP JUMP JUMPDEST PUSH1 0x0 DUP1 DUP1 PUSH1 0x0 NOT DUP6 DUP8 MULMOD DUP7 DUP7 MUL SWAP3 POP DUP3 DUP2 LT SWAP1 DUP4 SWAP1 SUB SUB SWAP1 POP DUP1 PUSH2 0x2F3C JUMPI PUSH1 0x0 DUP5 GT PUSH2 0x2F31 JUMPI PUSH1 0x0 DUP1 REVERT JUMPDEST POP DUP3 SWAP1 DIV SWAP1 POP PUSH2 0x685 JUMP JUMPDEST DUP1 DUP5 GT PUSH2 0x2F48 JUMPI PUSH1 0x0 DUP1 REVERT JUMPDEST PUSH1 0x0 DUP5 DUP7 DUP9 MULMOD PUSH1 0x0 DUP7 DUP2 SUB DUP8 AND SWAP7 DUP8 SWAP1 DIV SWAP7 PUSH1 0x2 PUSH1 0x3 DUP10 MUL DUP2 XOR DUP1 DUP11 MUL DUP3 SUB MUL DUP1 DUP11 MUL DUP3 SUB MUL DUP1 DUP11 MUL DUP3 SUB MUL DUP1 DUP11 MUL DUP3 SUB MUL DUP1 DUP11 MUL DUP3 SUB MUL DUP1 DUP11 MUL SWAP1 SWAP2 SUB MUL SWAP2 DUP2 SWAP1 SUB DUP2 SWAP1 DIV PUSH1 0x1 ADD DUP7 DUP5 GT SWAP1 SWAP6 SUB SWAP5 SWAP1 SWAP5 MUL SWAP2 SWAP1 SWAP5 SUB SWAP3 SWAP1 SWAP3 DIV SWAP2 SWAP1 SWAP2 OR SWAP2 SWAP1 SWAP2 MUL SWAP2 POP POP SWAP4 SWAP3 POP POP POP JUMP JUMPDEST PUSH1 0x0 DUP1 PUSH1 0x0 PUSH1 0x5 DUP5 PUSH1 0xFF AND GT ISZERO PUSH2 0x2FDD JUMPI PUSH2 0x2FDA DUP6 PUSH1 0xFF PUSH1 0x4 NOT DUP8 ADD AND PUSH1 0xA EXP PUSH2 0xC14 JUMP JUMPDEST SWAP5 POP JUMPDEST PUSH1 0x0 PUSH1 0x4 PUSH1 0xA DUP8 MOD GT SWAP1 POP PUSH2 0x2FF3 DUP7 PUSH1 0xA PUSH2 0xC14 JUMP JUMPDEST SWAP6 POP DUP1 ISZERO PUSH2 0x3002 JUMPI DUP6 PUSH1 0x1 ADD SWAP6 POP JUMPDEST DUP6 PUSH3 0x186A0 EQ ISZERO PUSH2 0x3018 JUMPI PUSH1 0xA DUP7 DIV SWAP6 POP PUSH1 0x1 SWAP2 POP JUMPDEST POP DUP5 SWAP3 POP SWAP1 POP JUMPDEST SWAP3 POP SWAP3 SWAP1 POP JUMP JUMPDEST PUSH1 0x60 PUSH1 0x0 DUP3 PUSH1 0x2 SIGNEXTEND DUP6 DUP6 SUB PUSH1 0x2 SIGNEXTEND DUP2 PUSH2 0x303B JUMPI INVALID JUMPDEST SDIV SWAP1 POP PUSH1 0x4 DUP2 PUSH1 0x2 SIGNEXTEND SGT PUSH2 0x3086 JUMPI PUSH1 0x40 MLOAD DUP1 PUSH1 0x40 ADD PUSH1 0x40 MSTORE DUP1 PUSH1 0x1A DUP2 MSTORE PUSH1 0x20 ADD PUSH32 0x4D31203143343120343120313035203130352031343520313435000000000000 DUP2 MSTORE POP SWAP2 POP PUSH2 0x1A71 JUMP JUMPDEST PUSH1 0x8 DUP2 PUSH1 0x2 SIGNEXTEND SGT PUSH2 0x30CE JUMPI PUSH1 0x40 MLOAD DUP1 PUSH1 0x40 ADD PUSH1 0x40 MSTORE DUP1 PUSH1 0x19 DUP2 MSTORE PUSH1 0x20 ADD PUSH32 0x4D31203143333320343920393720313133203134352031343500000000000000 DUP2 MSTORE POP SWAP2 POP PUSH2 0x1A71 JUMP JUMPDEST PUSH1 0x10 DUP2 PUSH1 0x2 SIGNEXTEND SGT PUSH2 0x3116 JUMPI PUSH1 0x40 MLOAD DUP1 PUSH1 0x40 ADD PUSH1 0x40 MSTORE DUP1 PUSH1 0x19 DUP2 MSTORE PUSH1 0x20 ADD PUSH32 0x4D31203143333320353720383920313133203134352031343500000000000000 DUP2 MSTORE POP SWAP2 POP PUSH2 0x1A71 JUMP JUMPDEST PUSH1 0x20 DUP2 PUSH1 0x2 SIGNEXTEND SGT PUSH2 0x315E JUMPI PUSH1 0x40 MLOAD DUP1 PUSH1 0x40 ADD PUSH1 0x40 MSTORE DUP1 PUSH1 0x19 DUP2 MSTORE PUSH1 0x20 ADD PUSH32 0x4D31203143323520363520383120313231203134352031343500000000000000 DUP2 MSTORE POP SWAP2 POP PUSH2 0x1A71 JUMP JUMPDEST PUSH1 0x40 DUP2 PUSH1 0x2 SIGNEXTEND SGT PUSH2 0x31A6 JUMPI PUSH1 0x40 MLOAD DUP1 PUSH1 0x40 ADD PUSH1 0x40 MSTORE DUP1 PUSH1 0x19 DUP2 MSTORE PUSH1 0x20 ADD PUSH32 0x4D31203143313720373320373320313239203134352031343500000000000000 DUP2 MSTORE POP SWAP2 POP PUSH2 0x1A71 JUMP JUMPDEST PUSH1 0x80 DUP2 PUSH1 0x2 SIGNEXTEND SGT PUSH2 0x31EE JUMPI PUSH1 0x40 MLOAD DUP1 PUSH1 0x40 ADD PUSH1 0x40 MSTORE DUP1 PUSH1 0x18 DUP2 MSTORE PUSH1 0x20 ADD PUSH32 0x4D31203143392038312036352031333720313435203134350000000000000000 DUP2 MSTORE POP SWAP2 POP PUSH2 0x1A71 JUMP JUMPDEST PUSH2 0x100 DUP2 PUSH1 0x2 SIGNEXTEND SGT PUSH2 0x3237 JUMPI PUSH1 0x40 MLOAD DUP1 PUSH1 0x40 ADD PUSH1 0x40 MSTORE DUP1 PUSH1 0x1A DUP2 MSTORE PUSH1 0x20 ADD PUSH32 0x4D31203143312038392035372E35203134352031343520313435000000000000 DUP2 MSTORE POP SWAP2 POP PUSH2 0x1A71 JUMP JUMPDEST POP POP PUSH1 0x40 DUP1 MLOAD DUP1 DUP3 ADD SWAP1 SWAP2 MSTORE PUSH1 0x18 DUP2 MSTORE PUSH32 0x4D31203143312039372034392031343520313435203134350000000000000000 PUSH1 0x20 DUP3 ADD MSTORE SWAP4 SWAP3 POP POP POP JUMP JUMPDEST PUSH1 0x40 DUP1 MLOAD DUP1 DUP3 ADD DUP3 MSTORE PUSH1 0x2 DUP2 MSTORE PUSH32 0x3733000000000000000000000000000000000000000000000000000000000000 PUSH1 0x20 DUP1 DUP4 ADD SWAP2 SWAP1 SWAP2 MSTORE DUP3 MLOAD DUP1 DUP5 ADD DUP5 MSTORE PUSH1 0x3 DUP1 DUP3 MSTORE PUSH32 0x3139300000000000000000000000000000000000000000000000000000000000 DUP3 DUP5 ADD MSTORE DUP5 MLOAD DUP1 DUP7 ADD DUP7 MSTORE DUP2 DUP2 MSTORE PUSH32 0x3231370000000000000000000000000000000000000000000000000000000000 DUP2 DUP6 ADD MSTORE DUP6 MLOAD DUP1 DUP8 ADD SWAP1 SWAP7 MSTORE SWAP1 DUP6 MSTORE PUSH32 0x3333340000000000000000000000000000000000000000000000000000000000 SWAP3 DUP6 ADD SWAP3 SWAP1 SWAP3 MSTORE PUSH1 0x60 SWAP4 SWAP1 SWAP2 SWAP1 PUSH1 0x1 PUSH1 0x0 DUP8 SWAP1 SIGNEXTEND EQ DUP1 PUSH2 0x335B JUMPI POP DUP6 PUSH1 0x0 SIGNEXTEND PUSH1 0x0 NOT EQ JUMPDEST ISZERO PUSH2 0x3552 JUMPI DUP6 PUSH1 0x0 SIGNEXTEND PUSH1 0x0 NOT EQ PUSH2 0x3372 JUMPI DUP2 PUSH2 0x3374 JUMP JUMPDEST DUP4 JUMPDEST DUP7 PUSH1 0x0 SIGNEXTEND PUSH1 0x0 NOT EQ PUSH2 0x3386 JUMPI DUP2 PUSH2 0x3388 JUMP JUMPDEST DUP4 JUMPDEST DUP8 PUSH1 0x0 SIGNEXTEND PUSH1 0x0 NOT EQ PUSH2 0x339A JUMPI DUP4 PUSH2 0x339C JUMP JUMPDEST DUP6 JUMPDEST DUP9 PUSH1 0x0 SIGNEXTEND PUSH1 0x0 NOT EQ PUSH2 0x33AE JUMPI DUP4 PUSH2 0x33B0 JUMP JUMPDEST DUP6 JUMPDEST PUSH1 0x40 MLOAD PUSH1 0x20 ADD DUP1 DUP1 PUSH12 0x1E31B4B931B6329031BC1E91 PUSH1 0xA1 SHL DUP2 MSTORE POP PUSH1 0xC ADD DUP6 DUP1 MLOAD SWAP1 PUSH1 0x20 ADD SWAP1 DUP1 DUP4 DUP4 JUMPDEST PUSH1 0x20 DUP4 LT PUSH2 0x33F9 JUMPI DUP1 MLOAD DUP3 MSTORE PUSH1 0x1F NOT SWAP1 SWAP3 ADD SWAP2 PUSH1 0x20 SWAP2 DUP3 ADD SWAP2 ADD PUSH2 0x33DA JUMP JUMPDEST MLOAD DUP2 MLOAD PUSH1 0x20 SWAP4 DUP5 SUB PUSH2 0x100 EXP PUSH1 0x0 NOT ADD DUP1 NOT SWAP1 SWAP3 AND SWAP2 AND OR SWAP1 MSTORE PUSH8 0x383C111031BC9E91 PUSH1 0xC1 SHL SWAP2 SWAP1 SWAP4 ADD SWAP1 DUP2 MSTORE DUP7 MLOAD PUSH1 0x8 SWAP1 SWAP2 ADD SWAP3 DUP8 ADD SWAP2 POP DUP1 DUP4 DUP4 JUMPDEST PUSH1 0x20 DUP4 LT PUSH2 0x3455 JUMPI DUP1 MLOAD DUP3 MSTORE PUSH1 0x1F NOT SWAP1 SWAP3 ADD SWAP2 PUSH1 0x20 SWAP2 DUP3 ADD SWAP2 ADD PUSH2 0x3436 JUMP JUMPDEST PUSH1 0x1 DUP4 PUSH1 0x20 SUB PUSH2 0x100 EXP SUB DUP1 NOT DUP3 MLOAD AND DUP2 DUP5 MLOAD AND DUP1 DUP3 OR DUP6 MSTORE POP POP POP POP POP POP SWAP1 POP ADD DUP1 PUSH2 0x5192 PUSH1 0x27 SWAP2 CODECOPY PUSH1 0x27 ADD DUP4 DUP1 MLOAD SWAP1 PUSH1 0x20 ADD SWAP1 DUP1 DUP4 DUP4 JUMPDEST PUSH1 0x20 DUP4 LT PUSH2 0x34AD JUMPI DUP1 MLOAD DUP3 MSTORE PUSH1 0x1F NOT SWAP1 SWAP3 ADD SWAP2 PUSH1 0x20 SWAP2 DUP3 ADD SWAP2 ADD PUSH2 0x348E JUMP JUMPDEST MLOAD DUP2 MLOAD PUSH1 0x20 SWAP4 DUP5 SUB PUSH2 0x100 EXP PUSH1 0x0 NOT ADD DUP1 NOT SWAP1 SWAP3 AND SWAP2 AND OR SWAP1 MSTORE PUSH8 0x383C111031BC9E91 PUSH1 0xC1 SHL SWAP2 SWAP1 SWAP4 ADD SWAP1 DUP2 MSTORE DUP5 MLOAD PUSH1 0x8 SWAP1 SWAP2 ADD SWAP3 DUP6 ADD SWAP2 POP DUP1 DUP4 DUP4 JUMPDEST PUSH1 0x20 DUP4 LT PUSH2 0x3509 JUMPI DUP1 MLOAD DUP3 MSTORE PUSH1 0x1F NOT SWAP1 SWAP3 ADD SWAP2 PUSH1 0x20 SWAP2 DUP3 ADD SWAP2 ADD PUSH2 0x34EA JUMP JUMPDEST PUSH1 0x1 DUP4 PUSH1 0x20 SUB PUSH2 0x100 EXP SUB DUP1 NOT DUP3 MLOAD AND DUP2 DUP5 MLOAD AND DUP1 DUP3 OR DUP6 MSTORE POP POP POP POP POP POP SWAP1 POP ADD DUP1 PUSH2 0x541B PUSH1 0x2A SWAP2 CODECOPY PUSH1 0x2A ADD SWAP5 POP POP POP POP POP PUSH1 0x40 MLOAD PUSH1 0x20 DUP2 DUP4 SUB SUB DUP2 MSTORE SWAP1 PUSH1 0x40 MSTORE SWAP5 POP PUSH2 0x373F JUMP JUMPDEST DUP4 DUP4 DUP4 DUP4 PUSH1 0x40 MLOAD PUSH1 0x20 ADD DUP1 DUP1 PUSH12 0x1E31B4B931B6329031BC1E91 PUSH1 0xA1 SHL DUP2 MSTORE POP PUSH1 0xC ADD DUP6 DUP1 MLOAD SWAP1 PUSH1 0x20 ADD SWAP1 DUP1 DUP4 DUP4 JUMPDEST PUSH1 0x20 DUP4 LT PUSH2 0x359F JUMPI DUP1 MLOAD DUP3 MSTORE PUSH1 0x1F NOT SWAP1 SWAP3 ADD SWAP2 PUSH1 0x20 SWAP2 DUP3 ADD SWAP2 ADD PUSH2 0x3580 JUMP JUMPDEST MLOAD DUP2 MLOAD PUSH1 0x20 SWAP4 DUP5 SUB PUSH2 0x100 EXP PUSH1 0x0 NOT ADD DUP1 NOT SWAP1 SWAP3 AND SWAP2 AND OR SWAP1 MSTORE PUSH8 0x383C111031BC9E91 PUSH1 0xC1 SHL SWAP2 SWAP1 SWAP4 ADD SWAP1 DUP2 MSTORE DUP7 MLOAD PUSH1 0x8 SWAP1 SWAP2 ADD SWAP3 DUP8 ADD SWAP2 POP DUP1 DUP4 DUP4 JUMPDEST PUSH1 0x20 DUP4 LT PUSH2 0x35FB JUMPI DUP1 MLOAD DUP3 MSTORE PUSH1 0x1F NOT SWAP1 SWAP3 ADD SWAP2 PUSH1 0x20 SWAP2 DUP3 ADD SWAP2 ADD PUSH2 0x35DC JUMP JUMPDEST MLOAD DUP2 MLOAD PUSH1 0x20 SWAP4 DUP5 SUB PUSH2 0x100 EXP PUSH1 0x0 NOT ADD DUP1 NOT SWAP1 SWAP3 AND SWAP2 AND OR SWAP1 MSTORE PUSH32 0x70782220723D22347078222066696C6C3D22776869746522202F3E0000000000 SWAP2 SWAP1 SWAP4 ADD SWAP1 DUP2 MSTORE PUSH12 0x1E31B4B931B6329031BC1E91 PUSH1 0xA1 SHL PUSH1 0x1B DUP3 ADD MSTORE DUP6 MLOAD PUSH1 0x27 SWAP1 SWAP2 ADD SWAP3 DUP7 ADD SWAP2 POP DUP1 DUP4 DUP4 JUMPDEST PUSH1 0x20 DUP4 LT PUSH2 0x3681 JUMPI DUP1 MLOAD DUP3 MSTORE PUSH1 0x1F NOT SWAP1 SWAP3 ADD SWAP2 PUSH1 0x20 SWAP2 DUP3 ADD SWAP2 ADD PUSH2 0x3662 JUMP JUMPDEST MLOAD DUP2 MLOAD PUSH1 0x20 SWAP4 DUP5 SUB PUSH2 0x100 EXP PUSH1 0x0 NOT ADD DUP1 NOT SWAP1 SWAP3 AND SWAP2 AND OR SWAP1 MSTORE PUSH8 0x383C111031BC9E91 PUSH1 0xC1 SHL SWAP2 SWAP1 SWAP4 ADD SWAP1 DUP2 MSTORE DUP5 MLOAD PUSH1 0x8 SWAP1 SWAP2 ADD SWAP3 DUP6 ADD SWAP2 POP DUP1 DUP4 DUP4 JUMPDEST PUSH1 0x20 DUP4 LT PUSH2 0x36DD JUMPI DUP1 MLOAD DUP3 MSTORE PUSH1 0x1F NOT SWAP1 SWAP3 ADD SWAP2 PUSH1 0x20 SWAP2 DUP3 ADD SWAP2 ADD PUSH2 0x36BE JUMP JUMPDEST PUSH1 0x1 DUP4 PUSH1 0x20 SUB PUSH2 0x100 EXP SUB DUP1 NOT DUP3 MLOAD AND DUP2 DUP5 MLOAD AND DUP1 DUP3 OR DUP6 MSTORE POP POP POP POP POP POP SWAP1 POP ADD DUP1 PUSH32 0x70782220723D22347078222066696C6C3D22776869746522202F3E0000000000 DUP2 MSTORE POP PUSH1 0x1B ADD SWAP5 POP POP POP POP POP PUSH1 0x40 MLOAD PUSH1 0x20 DUP2 DUP4 SUB SUB DUP2 MSTORE SWAP1 PUSH1 0x40 MSTORE SWAP5 POP JUMPDEST POP POP POP POP SWAP2 SWAP1 POP JUMP JUMPDEST PUSH1 0x60 PUSH1 0x0 PUSH1 0x40 MLOAD DUP1 PUSH1 0x20 ADD PUSH1 0x40 MSTORE DUP1 PUSH1 0x0 DUP2 MSTORE POP SWAP1 POP PUSH1 0x0 DUP4 PUSH1 0x2 SIGNEXTEND SLT ISZERO PUSH2 0x378E JUMPI DUP3 PUSH1 0x0 NOT MUL SWAP3 POP PUSH1 0x40 MLOAD DUP1 PUSH1 0x40 ADD PUSH1 0x40 MSTORE DUP1 PUSH1 0x1 DUP2 MSTORE PUSH1 0x20 ADD PUSH1 0x2D PUSH1 0xF8 SHL DUP2 MSTORE POP SWAP1 POP JUMPDEST DUP1 PUSH2 0x379B DUP5 PUSH1 0x2 SIGNEXTEND PUSH2 0x68C JUMP JUMPDEST PUSH1 0x40 MLOAD PUSH1 0x20 ADD DUP1 DUP4 DUP1 MLOAD SWAP1 PUSH1 0x20 ADD SWAP1 DUP1 DUP4 DUP4 JUMPDEST PUSH1 0x20 DUP4 LT PUSH2 0x37CD JUMPI DUP1 MLOAD DUP3 MSTORE PUSH1 0x1F NOT SWAP1 SWAP3 ADD SWAP2 PUSH1 0x20 SWAP2 DUP3 ADD SWAP2 ADD PUSH2 0x37AE JUMP JUMPDEST MLOAD DUP2 MLOAD PUSH1 0x20 SWAP4 DUP5 SUB PUSH2 0x100 EXP PUSH1 0x0 NOT ADD DUP1 NOT SWAP1 SWAP3 AND SWAP2 AND OR SWAP1 MSTORE DUP6 MLOAD SWAP2 SWAP1 SWAP4 ADD SWAP3 DUP6 ADD SWAP2 POP DUP1 DUP4 DUP4 JUMPDEST PUSH1 0x20 DUP4 LT PUSH2 0x3815 JUMPI DUP1 MLOAD DUP3 MSTORE PUSH1 0x1F NOT SWAP1 SWAP3 ADD SWAP2 PUSH1 0x20 SWAP2 DUP3 ADD SWAP2 ADD PUSH2 0x37F6 JUMP JUMPDEST PUSH1 0x1 DUP4 PUSH1 0x20 SUB PUSH2 0x100 EXP SUB DUP1 NOT DUP3 MLOAD AND DUP2 DUP5 MLOAD AND DUP1 DUP3 OR DUP6 MSTORE POP POP POP POP POP POP SWAP1 POP ADD SWAP3 POP POP POP PUSH1 0x40 MLOAD PUSH1 0x20 DUP2 DUP4 SUB SUB DUP2 MSTORE SWAP1 PUSH1 0x40 MSTORE SWAP2 POP POP SWAP2 SWAP1 POP JUMP JUMPDEST PUSH1 0x60 DUP1 PUSH1 0x0 PUSH1 0x2 DUP6 DUP6 ADD DUP2 SIGNEXTEND SDIV SWAP1 POP PUSH3 0x1E847 NOT DUP2 PUSH1 0x2 SIGNEXTEND SLT ISZERO PUSH2 0x38CA JUMPI PUSH1 0x40 MLOAD DUP1 PUSH1 0x40 ADD PUSH1 0x40 MSTORE DUP1 PUSH1 0x1 DUP2 MSTORE PUSH1 0x20 ADD PUSH1 0x7 PUSH1 0xFB SHL DUP2 MSTORE POP PUSH1 0x40 MLOAD DUP1 PUSH1 0x40 ADD PUSH1 0x40 MSTORE DUP1 PUSH1 0x1 DUP2 MSTORE PUSH1 0x20 ADD PUSH32 0x3700000000000000000000000000000000000000000000000000000000000000 DUP2 MSTORE POP SWAP3 POP SWAP3 POP POP PUSH2 0x301F JUMP JUMPDEST PUSH3 0x124F7 NOT DUP2 PUSH1 0x2 SIGNEXTEND SLT ISZERO PUSH2 0x3933 JUMPI PUSH1 0x40 MLOAD DUP1 PUSH1 0x40 ADD PUSH1 0x40 MSTORE DUP1 PUSH1 0x1 DUP2 MSTORE PUSH1 0x20 ADD PUSH1 0x7 PUSH1 0xFB SHL DUP2 MSTORE POP PUSH1 0x40 MLOAD DUP1 PUSH1 0x40 ADD PUSH1 0x40 MSTORE DUP1 PUSH1 0x4 DUP2 MSTORE PUSH1 0x20 ADD PUSH32 0x31302E3500000000000000000000000000000000000000000000000000000000 DUP2 MSTORE POP SWAP3 POP SWAP3 POP POP PUSH2 0x301F JUMP JUMPDEST PUSH2 0x61A7 NOT DUP2 PUSH1 0x2 SIGNEXTEND SLT ISZERO PUSH2 0x399B JUMPI PUSH1 0x40 MLOAD DUP1 PUSH1 0x40 ADD PUSH1 0x40 MSTORE DUP1 PUSH1 0x1 DUP2 MSTORE PUSH1 0x20 ADD PUSH1 0x7 PUSH1 0xFB SHL DUP2 MSTORE POP PUSH1 0x40 MLOAD DUP1 PUSH1 0x40 ADD PUSH1 0x40 MSTORE DUP1 PUSH1 0x5 DUP2 MSTORE PUSH1 0x20 ADD PUSH32 0x31342E3235000000000000000000000000000000000000000000000000000000 DUP2 MSTORE POP SWAP3 POP SWAP3 POP POP PUSH2 0x301F JUMP JUMPDEST PUSH2 0x1387 NOT DUP2 PUSH1 0x2 SIGNEXTEND SLT ISZERO PUSH2 0x3A04 JUMPI PUSH1 0x40 MLOAD DUP1 PUSH1 0x40 ADD PUSH1 0x40 MSTORE DUP1 PUSH1 0x2 DUP2 MSTORE PUSH1 0x20 ADD PUSH32 0x3130000000000000000000000000000000000000000000000000000000000000 DUP2 MSTORE POP PUSH1 0x40 MLOAD DUP1 PUSH1 0x40 ADD PUSH1 0x40 MSTORE DUP1 PUSH1 0x2 DUP2 MSTORE PUSH1 0x20 ADD PUSH2 0x627 PUSH1 0xF3 SHL DUP2 MSTORE POP SWAP3 POP SWAP3 POP POP PUSH2 0x301F JUMP JUMPDEST PUSH1 0x0 DUP2 PUSH1 0x2 SIGNEXTEND SLT ISZERO PUSH2 0x3A6B JUMPI PUSH1 0x40 MLOAD DUP1 PUSH1 0x40 ADD PUSH1 0x40 MSTORE DUP1 PUSH1 0x2 DUP2 MSTORE PUSH1 0x20 ADD PUSH32 0x3131000000000000000000000000000000000000000000000000000000000000 DUP2 MSTORE POP PUSH1 0x40 MLOAD DUP1 PUSH1 0x40 ADD PUSH1 0x40 MSTORE DUP1 PUSH1 0x2 DUP2 MSTORE PUSH1 0x20 ADD PUSH2 0x3231 PUSH1 0xF0 SHL DUP2 MSTORE POP SWAP3 POP SWAP3 POP POP PUSH2 0x301F JUMP JUMPDEST PUSH2 0x1388 DUP2 PUSH1 0x2 SIGNEXTEND SLT ISZERO PUSH2 0x3AEE JUMPI PUSH1 0x40 MLOAD DUP1 PUSH1 0x40 ADD PUSH1 0x40 MSTORE DUP1 PUSH1 0x2 DUP2 MSTORE PUSH1 0x20 ADD PUSH32 0x3133000000000000000000000000000000000000000000000000000000000000 DUP2 MSTORE POP PUSH1 0x40 MLOAD DUP1 PUSH1 0x40 ADD PUSH1 0x40 MSTORE DUP1 PUSH1 0x2 DUP2 MSTORE PUSH1 0x20 ADD PUSH32 0x3233000000000000000000000000000000000000000000000000000000000000 DUP2 MSTORE POP SWAP3 POP SWAP3 POP POP PUSH2 0x301F JUMP JUMPDEST PUSH2 0x61A8 DUP2 PUSH1 0x2 SIGNEXTEND SLT ISZERO PUSH2 0x3B71 JUMPI PUSH1 0x40 MLOAD DUP1 PUSH1 0x40 ADD PUSH1 0x40 MSTORE DUP1 PUSH1 0x2 DUP2 MSTORE PUSH1 0x20 ADD PUSH32 0x3135000000000000000000000000000000000000000000000000000000000000 DUP2 MSTORE POP PUSH1 0x40 MLOAD DUP1 PUSH1 0x40 ADD PUSH1 0x40 MSTORE DUP1 PUSH1 0x2 DUP2 MSTORE PUSH1 0x20 ADD PUSH32 0x3235000000000000000000000000000000000000000000000000000000000000 DUP2 MSTORE POP SWAP3 POP SWAP3 POP POP PUSH2 0x301F JUMP JUMPDEST PUSH3 0x124F8 DUP2 PUSH1 0x2 SIGNEXTEND SLT ISZERO PUSH2 0x3BDA JUMPI PUSH1 0x40 MLOAD DUP1 PUSH1 0x40 ADD PUSH1 0x40 MSTORE DUP1 PUSH1 0x2 DUP2 MSTORE PUSH1 0x20 ADD PUSH2 0x627 PUSH1 0xF3 SHL DUP2 MSTORE POP PUSH1 0x40 MLOAD DUP1 PUSH1 0x40 ADD PUSH1 0x40 MSTORE DUP1 PUSH1 0x2 DUP2 MSTORE PUSH1 0x20 ADD PUSH32 0x3236000000000000000000000000000000000000000000000000000000000000 DUP2 MSTORE POP SWAP3 POP SWAP3 POP POP PUSH2 0x301F JUMP JUMPDEST PUSH3 0x1E848 DUP2 PUSH1 0x2 SIGNEXTEND SLT ISZERO PUSH2 0x3C28 JUMPI PUSH1 0x40 MLOAD DUP1 PUSH1 0x40 ADD PUSH1 0x40 MSTORE DUP1 PUSH1 0x2 DUP2 MSTORE PUSH1 0x20 ADD PUSH2 0x3231 PUSH1 0xF0 SHL DUP2 MSTORE POP PUSH1 0x40 MLOAD DUP1 PUSH1 0x40 ADD PUSH1 0x40 MSTORE DUP1 PUSH1 0x2 DUP2 MSTORE PUSH1 0x20 ADD PUSH2 0x3237 PUSH1 0xF0 SHL DUP2 MSTORE POP SWAP3 POP SWAP3 POP POP PUSH2 0x301F JUMP JUMPDEST PUSH1 0x40 MLOAD DUP1 PUSH1 0x40 ADD PUSH1 0x40 MSTORE DUP1 PUSH1 0x2 DUP2 MSTORE PUSH1 0x20 ADD PUSH32 0x3234000000000000000000000000000000000000000000000000000000000000 DUP2 MSTORE POP PUSH1 0x40 MLOAD DUP1 PUSH1 0x40 ADD PUSH1 0x40 MSTORE DUP1 PUSH1 0x2 DUP2 MSTORE PUSH1 0x20 ADD PUSH2 0x3237 PUSH1 0xF0 SHL DUP2 MSTORE POP SWAP3 POP SWAP3 POP POP PUSH2 0x301F JUMP JUMPDEST PUSH1 0x40 DUP1 MLOAD PUSH1 0x20 DUP1 DUP3 ADD DUP6 SWAP1 MSTORE PUSH12 0xFFFFFFFFFFFFFFFFFFFFFFFF NOT PUSH1 0x60 DUP6 SWAP1 SHL AND DUP3 DUP5 ADD MSTORE DUP3 MLOAD PUSH1 0x34 DUP2 DUP5 SUB ADD DUP2 MSTORE PUSH1 0x54 SWAP1 SWAP3 ADD SWAP1 SWAP3 MSTORE DUP1 MLOAD SWAP2 ADD KECCAK256 PUSH1 0x0 SWAP1 PUSH2 0x3CCA DUP5 PUSH2 0x3D62 JUMP JUMPDEST PUSH1 0x2 MUL PUSH1 0x1 ADD PUSH1 0xFF AND PUSH1 0x0 NOT DUP2 PUSH2 0x3CDD JUMPI INVALID JUMPDEST DIV GT SWAP4 SWAP3 POP POP POP JUMP JUMPDEST PUSH1 0x0 DUP2 DUP4 SUB DUP2 DUP4 SLT DUP1 ISZERO SWAP1 PUSH2 0x3CFB JUMPI POP DUP4 DUP2 SGT ISZERO JUMPDEST DUP1 PUSH2 0x3D10 JUMPI POP PUSH1 0x0 DUP4 SLT DUP1 ISZERO PUSH2 0x3D10 JUMPI POP DUP4 DUP2 SGT JUMPDEST PUSH2 0x685 JUMPI PUSH1 0x40 MLOAD PUSH3 0x461BCD PUSH1 0xE5 SHL DUP2 MSTORE PUSH1 0x4 ADD DUP1 DUP1 PUSH1 0x20 ADD DUP3 DUP2 SUB DUP3 MSTORE PUSH1 0x24 DUP2 MSTORE PUSH1 0x20 ADD DUP1 PUSH2 0x5D71 PUSH1 0x24 SWAP2 CODECOPY PUSH1 0x40 ADD SWAP2 POP POP PUSH1 0x40 MLOAD DUP1 SWAP2 SUB SWAP1 REVERT JUMPDEST PUSH1 0x0 DUP1 DUP3 SLT ISZERO PUSH2 0x3D5E JUMPI DUP2 PUSH1 0x0 SUB PUSH2 0x486 JUMP JUMPDEST POP SWAP1 JUMP JUMPDEST PUSH1 0x0 DUP1 DUP3 GT PUSH2 0x3D70 JUMPI PUSH1 0x0 DUP1 REVERT JUMPDEST PUSH1 0x1 PUSH1 0x80 SHL DUP3 LT PUSH2 0x3D83 JUMPI PUSH1 0x80 SWAP2 DUP3 SHR SWAP2 ADD JUMPDEST PUSH9 0x10000000000000000 DUP3 LT PUSH2 0x3D9B JUMPI PUSH1 0x40 SWAP2 DUP3 SHR SWAP2 ADD JUMPDEST PUSH5 0x100000000 DUP3 LT PUSH2 0x3DAF JUMPI PUSH1 0x20 SWAP2 DUP3 SHR SWAP2 ADD JUMPDEST PUSH3 0x10000 DUP3 LT PUSH2 0x3DC1 JUMPI PUSH1 0x10 SWAP2 DUP3 SHR SWAP2 ADD JUMPDEST PUSH2 0x100 DUP3 LT PUSH2 0x3DD2 JUMPI PUSH1 0x8 SWAP2 DUP3 SHR SWAP2 ADD JUMPDEST PUSH1 0x10 DUP3 LT PUSH2 0x3DE2 JUMPI PUSH1 0x4 SWAP2 DUP3 SHR SWAP2 ADD JUMPDEST PUSH1 0x4 DUP3 LT PUSH2 0x3DF2 JUMPI PUSH1 0x2 SWAP2 DUP3 SHR SWAP2 ADD JUMPDEST PUSH1 0x2 DUP3 LT PUSH2 0x16B JUMPI PUSH1 0x1 ADD SWAP2 SWAP1 POP JUMP JUMPDEST PUSH1 0x40 DUP1 MLOAD PUSH2 0x100 DUP2 ADD DUP3 MSTORE PUSH1 0x0 DUP1 DUP3 MSTORE PUSH1 0x20 DUP3 ADD DUP2 SWAP1 MSTORE SWAP2 DUP2 ADD DUP3 SWAP1 MSTORE PUSH1 0x60 DUP2 ADD DUP3 SWAP1 MSTORE PUSH1 0x80 DUP2 ADD DUP3 SWAP1 MSTORE PUSH1 0xA0 DUP2 ADD DUP3 SWAP1 MSTORE PUSH1 0xC0 DUP2 ADD DUP3 SWAP1 MSTORE PUSH1 0xE0 DUP2 ADD SWAP2 SWAP1 SWAP2 MSTORE SWAP1 JUMP JUMPDEST DUP1 CALLDATALOAD PUSH1 0x1 PUSH1 0x1 PUSH1 0xA0 SHL SUB DUP2 AND DUP2 EQ PUSH2 0x16B JUMPI PUSH1 0x0 DUP1 REVERT JUMPDEST DUP1 CALLDATALOAD DUP1 ISZERO ISZERO DUP2 EQ PUSH2 0x16B JUMPI PUSH1 0x0 DUP1 REVERT JUMPDEST DUP1 CALLDATALOAD PUSH1 0x2 DUP2 SWAP1 SIGNEXTEND DUP2 EQ PUSH2 0x16B JUMPI PUSH1 0x0 DUP1 REVERT JUMPDEST PUSH1 0x0 DUP3 PUSH1 0x1F DUP4 ADD SLT PUSH2 0x3E8F JUMPI DUP1 DUP2 REVERT JUMPDEST DUP2 CALLDATALOAD PUSH8 0xFFFFFFFFFFFFFFFF DUP2 GT ISZERO PUSH2 0x3EA3 JUMPI INVALID JUMPDEST PUSH2 0x3EB6 PUSH1 0x1F DUP3 ADD PUSH1 0x1F NOT AND PUSH1 0x20 ADD PUSH2 0x467D JUMP JUMPDEST DUP2 DUP2 MSTORE DUP5 PUSH1 0x20 DUP4 DUP7 ADD ADD GT ISZERO PUSH2 0x3ECA JUMPI DUP3 DUP4 REVERT JUMPDEST DUP2 PUSH1 0x20 DUP6 ADD PUSH1 0x20 DUP4 ADD CALLDATACOPY SWAP1 DUP2 ADD PUSH1 0x20 ADD SWAP2 SWAP1 SWAP2 MSTORE SWAP3 SWAP2 POP POP JUMP JUMPDEST DUP1 CALLDATALOAD PUSH3 0xFFFFFF DUP2 AND DUP2 EQ PUSH2 0x16B JUMPI PUSH1 0x0 DUP1 REVERT JUMPDEST DUP1 CALLDATALOAD PUSH1 0xFF DUP2 AND DUP2 EQ PUSH2 0x16B JUMPI PUSH1 0x0 DUP1 REVERT JUMPDEST PUSH1 0x0 PUSH1 0x20 DUP3 DUP5 SUB SLT ISZERO PUSH2 0x3F19 JUMPI DUP1 DUP2 REVERT JUMPDEST DUP2 CALLDATALOAD PUSH8 0xFFFFFFFFFFFFFFFF DUP1 DUP3 GT ISZERO PUSH2 0x3F30 JUMPI DUP3 DUP4 REVERT JUMPDEST DUP2 DUP5 ADD SWAP2 POP PUSH2 0x1C0 DUP1 DUP4 DUP8 SUB SLT ISZERO PUSH2 0x3F46 JUMPI DUP4 DUP5 REVERT JUMPDEST PUSH2 0x3F4F DUP2 PUSH2 0x467D JUMP JUMPDEST SWAP1 POP DUP3 CALLDATALOAD DUP2 MSTORE PUSH2 0x3F61 PUSH1 0x20 DUP5 ADD PUSH2 0x3E46 JUMP JUMPDEST PUSH1 0x20 DUP3 ADD MSTORE PUSH2 0x3F72 PUSH1 0x40 DUP5 ADD PUSH2 0x3E46 JUMP JUMPDEST PUSH1 0x40 DUP3 ADD MSTORE PUSH1 0x60 DUP4 ADD CALLDATALOAD DUP3 DUP2 GT ISZERO PUSH2 0x3F88 JUMPI DUP5 DUP6 REVERT JUMPDEST PUSH2 0x3F94 DUP8 DUP3 DUP7 ADD PUSH2 0x3E7F JUMP JUMPDEST PUSH1 0x60 DUP4 ADD MSTORE POP PUSH1 0x80 DUP4 ADD CALLDATALOAD DUP3 DUP2 GT ISZERO PUSH2 0x3FAB JUMPI DUP5 DUP6 REVERT JUMPDEST PUSH2 0x3FB7 DUP8 DUP3 DUP7 ADD PUSH2 0x3E7F JUMP JUMPDEST PUSH1 0x80 DUP4 ADD MSTORE POP PUSH2 0x3FC9 PUSH1 0xA0 DUP5 ADD PUSH2 0x3EF7 JUMP JUMPDEST PUSH1 0xA0 DUP3 ADD MSTORE PUSH2 0x3FDA PUSH1 0xC0 DUP5 ADD PUSH2 0x3EF7 JUMP JUMPDEST PUSH1 0xC0 DUP3 ADD MSTORE PUSH2 0x3FEB PUSH1 0xE0 DUP5 ADD PUSH2 0x3E5D JUMP JUMPDEST PUSH1 0xE0 DUP3 ADD MSTORE PUSH2 0x100 SWAP2 POP PUSH2 0x4000 DUP3 DUP5 ADD PUSH2 0x3E6D JUMP JUMPDEST DUP3 DUP3 ADD MSTORE PUSH2 0x120 SWAP2 POP PUSH2 0x4014 DUP3 DUP5 ADD PUSH2 0x3E6D JUMP JUMPDEST DUP3 DUP3 ADD MSTORE PUSH2 0x140 SWAP2 POP PUSH2 0x4028 DUP3 DUP5 ADD PUSH2 0x3E6D JUMP JUMPDEST DUP3 DUP3 ADD MSTORE PUSH2 0x160 SWAP2 POP PUSH2 0x403C DUP3 DUP5 ADD PUSH2 0x3E6D JUMP JUMPDEST DUP3 DUP3 ADD MSTORE PUSH2 0x180 SWAP2 POP PUSH2 0x4050 DUP3 DUP5 ADD PUSH2 0x3EE4 JUMP JUMPDEST DUP3 DUP3 ADD MSTORE PUSH2 0x1A0 SWAP2 POP PUSH2 0x4064 DUP3 DUP5 ADD PUSH2 0x3E46 JUMP JUMPDEST SWAP2 DUP2 ADD SWAP2 SWAP1 SWAP2 MSTORE SWAP5 SWAP4 POP POP POP POP JUMP JUMPDEST PUSH1 0x0 DUP2 MLOAD PUSH2 0x4085 DUP2 DUP6 PUSH1 0x20 DUP7 ADD PUSH2 0x46A1 JUMP JUMPDEST SWAP3 SWAP1 SWAP3 ADD SWAP3 SWAP2 POP POP JUMP JUMPDEST PUSH32 0xE29AA0EFB88F20444953434C41494D45523A204475652064696C6967656E6365 DUP2 MSTORE PUSH32 0x20697320696D7065726174697665207768656E20617373657373696E67207468 PUSH1 0x20 DUP3 ADD MSTORE PUSH32 0x6973204E46542E204D616B65207375726520746F6B656E206164647265737365 PUSH1 0x40 DUP3 ADD MSTORE PUSH32 0x73206D617463682074686520657870656374656420746F6B656E732C20617320 PUSH1 0x60 DUP3 ADD MSTORE PUSH32 0x746F6B656E2073796D626F6C73206D617920626520696D6974617465642E0000 PUSH1 0x80 DUP3 ADD MSTORE PUSH1 0x9E ADD SWAP1 JUMP JUMPDEST PUSH32 0x5C6E5C6E00000000000000000000000000000000000000000000000000000000 DUP2 MSTORE PUSH1 0x4 ADD SWAP1 JUMP JUMPDEST PUSH1 0x0 PUSH32 0x54686973204E465420726570726573656E74732061206C697175696469747920 DUP3 MSTORE PUSH32 0x706F736974696F6E20696E206120556E69737761702056332000000000000000 PUSH1 0x20 DUP4 ADD MSTORE DUP6 MLOAD PUSH2 0x41D7 DUP2 PUSH1 0x39 DUP6 ADD PUSH1 0x20 DUP11 ADD PUSH2 0x46A1 JUMP JUMPDEST PUSH1 0x2D PUSH1 0xF8 SHL PUSH1 0x39 SWAP2 DUP5 ADD SWAP2 DUP3 ADD MSTORE DUP6 MLOAD PUSH2 0x41F8 DUP2 PUSH1 0x3A DUP5 ADD PUSH1 0x20 DUP11 ADD PUSH2 0x46A1 JUMP JUMPDEST PUSH32 0x20706F6F6C2E2000000000000000000000000000000000000000000000000000 PUSH1 0x3A SWAP3 SWAP1 SWAP2 ADD SWAP2 DUP3 ADD MSTORE PUSH32 0x546865206F776E6572206F662074686973204E46542063616E206D6F64696679 PUSH1 0x41 DUP3 ADD MSTORE PUSH32 0x206F722072656465656D2074686520706F736974696F6E2E5C6E000000000000 PUSH1 0x61 DUP3 ADD MSTORE PUSH32 0x5C6E506F6F6C20416464726573733A2000000000000000000000000000000000 PUSH1 0x7B DUP3 ADD MSTORE DUP5 MLOAD PUSH2 0x42A8 DUP2 PUSH1 0x8B DUP5 ADD PUSH1 0x20 DUP10 ADD PUSH2 0x46A1 JUMP JUMPDEST PUSH2 0x2E37 PUSH1 0xF1 SHL PUSH1 0x8B SWAP3 SWAP1 SWAP2 ADD SWAP2 DUP3 ADD MSTORE PUSH2 0x3C6 PUSH1 0x8D DUP3 ADD DUP6 PUSH2 0x4073 JUMP JUMPDEST PUSH1 0x0 PUSH32 0x7B226E616D65223A220000000000000000000000000000000000000000000000 DUP3 MSTORE DUP6 MLOAD PUSH2 0x42FD DUP2 PUSH1 0x9 DUP6 ADD PUSH1 0x20 DUP11 ADD PUSH2 0x46A1 JUMP JUMPDEST PUSH32 0x222C20226465736372697074696F6E223A220000000000000000000000000000 PUSH1 0x9 SWAP2 DUP5 ADD SWAP2 DUP3 ADD MSTORE DUP6 MLOAD PUSH2 0x433A DUP2 PUSH1 0x1B DUP5 ADD PUSH1 0x20 DUP11 ADD PUSH2 0x46A1 JUMP JUMPDEST DUP6 MLOAD SWAP2 ADD SWAP1 PUSH2 0x4350 DUP2 PUSH1 0x1B DUP5 ADD PUSH1 0x20 DUP10 ADD PUSH2 0x46A1 JUMP JUMPDEST PUSH32 0x222C2022696D616765223A202200000000000000000000000000000000000000 PUSH1 0x1B SWAP3 SWAP1 SWAP2 ADD SWAP2 DUP3 ADD MSTORE PUSH32 0x646174613A696D6167652F7376672B786D6C3B6261736536342C000000000000 PUSH1 0x28 DUP3 ADD MSTORE DUP4 MLOAD PUSH2 0x43B4 DUP2 PUSH1 0x42 DUP5 ADD PUSH1 0x20 DUP9 ADD PUSH2 0x46A1 JUMP JUMPDEST PUSH32 0x227D000000000000000000000000000000000000000000000000000000000000 PUSH1 0x42 SWAP3 SWAP1 SWAP2 ADD SWAP2 DUP3 ADD MSTORE PUSH1 0x44 ADD SWAP7 SWAP6 POP POP POP POP POP POP JUMP JUMPDEST PUSH1 0x0 PUSH32 0x556E6973776170202D2000000000000000000000000000000000000000000000 DUP3 MSTORE DUP7 MLOAD PUSH2 0x4424 DUP2 PUSH1 0xA DUP6 ADD PUSH1 0x20 DUP12 ADD PUSH2 0x46A1 JUMP JUMPDEST DUP1 DUP4 ADD SWAP1 POP PUSH32 0x202D200000000000000000000000000000000000000000000000000000000000 DUP1 PUSH1 0xA DUP4 ADD MSTORE DUP8 MLOAD PUSH2 0x4463 DUP2 PUSH1 0xD DUP6 ADD PUSH1 0x20 DUP13 ADD PUSH2 0x46A1 JUMP JUMPDEST PUSH1 0x2F PUSH1 0xF8 SHL PUSH1 0xD SWAP4 SWAP1 SWAP2 ADD SWAP3 DUP4 ADD MSTORE DUP7 MLOAD PUSH2 0x4485 DUP2 PUSH1 0xE DUP6 ADD PUSH1 0x20 DUP12 ADD PUSH2 0x46A1 JUMP JUMPDEST PUSH1 0xE SWAP3 ADD SWAP2 DUP3 ADD MSTORE DUP5 MLOAD PUSH2 0x44A0 DUP2 PUSH1 0x11 DUP5 ADD PUSH1 0x20 DUP10 ADD PUSH2 0x46A1 JUMP JUMPDEST PUSH32 0x3C3E000000000000000000000000000000000000000000000000000000000000 PUSH1 0x11 SWAP3 SWAP1 SWAP2 ADD SWAP2 DUP3 ADD MSTORE DUP4 MLOAD PUSH2 0x44DE DUP2 PUSH1 0x13 DUP5 ADD PUSH1 0x20 DUP9 ADD PUSH2 0x46A1 JUMP JUMPDEST ADD PUSH1 0x13 ADD SWAP8 SWAP7 POP POP POP POP POP POP POP JUMP JUMPDEST PUSH1 0x0 PUSH32 0x20416464726573733A2000000000000000000000000000000000000000000000 DUP1 DUP4 MSTORE DUP8 MLOAD PUSH2 0x4526 DUP2 PUSH1 0xA DUP7 ADD PUSH1 0x20 DUP13 ADD PUSH2 0x46A1 JUMP JUMPDEST PUSH2 0x2E37 PUSH1 0xF1 SHL PUSH1 0xA SWAP2 DUP6 ADD SWAP2 DUP3 ADD MSTORE DUP8 MLOAD PUSH2 0x4548 DUP2 PUSH1 0xC DUP5 ADD PUSH1 0x20 DUP13 ADD PUSH2 0x46A1 JUMP JUMPDEST ADD PUSH1 0xC DUP2 ADD SWAP2 SWAP1 SWAP2 MSTORE DUP6 MLOAD SWAP1 PUSH2 0x4565 DUP3 PUSH1 0x16 DUP4 ADD PUSH1 0x20 DUP11 ADD PUSH2 0x46A1 JUMP JUMPDEST DUP2 DUP2 ADD SWAP2 POP POP PUSH32 0x5C6E46656520546965723A200000000000000000000000000000000000000000 PUSH1 0x16 DUP3 ADD MSTORE DUP5 MLOAD PUSH2 0x45A4 DUP2 PUSH1 0x22 DUP5 ADD PUSH1 0x20 DUP10 ADD PUSH2 0x46A1 JUMP JUMPDEST PUSH32 0x5C6E546F6B656E2049443A200000000000000000000000000000000000000000 PUSH1 0x22 SWAP3 SWAP1 SWAP2 ADD SWAP2 DUP3 ADD MSTORE DUP4 MLOAD PUSH2 0x45E2 DUP2 PUSH1 0x2E DUP5 ADD PUSH1 0x20 DUP9 ADD PUSH2 0x46A1 JUMP JUMPDEST PUSH2 0x45F8 PUSH2 0x45F3 PUSH1 0x2E DUP4 DUP6 ADD ADD PUSH2 0x4150 JUMP JUMPDEST PUSH2 0x408F JUMP JUMPDEST SWAP10 SWAP9 POP POP POP POP POP POP POP POP POP JUMP JUMPDEST PUSH1 0x0 PUSH32 0x646174613A6170706C69636174696F6E2F6A736F6E3B6261736536342C000000 DUP3 MSTORE DUP3 MLOAD PUSH2 0x463D DUP2 PUSH1 0x1D DUP6 ADD PUSH1 0x20 DUP8 ADD PUSH2 0x46A1 JUMP JUMPDEST SWAP2 SWAP1 SWAP2 ADD PUSH1 0x1D ADD SWAP3 SWAP2 POP POP JUMP JUMPDEST PUSH1 0x0 PUSH1 0x20 DUP3 MSTORE DUP3 MLOAD DUP1 PUSH1 0x20 DUP5 ADD MSTORE PUSH2 0x4669 DUP2 PUSH1 0x40 DUP6 ADD PUSH1 0x20 DUP8 ADD PUSH2 0x46A1 JUMP JUMPDEST PUSH1 0x1F ADD PUSH1 0x1F NOT AND SWAP2 SWAP1 SWAP2 ADD PUSH1 0x40 ADD SWAP3 SWAP2 POP POP JUMP JUMPDEST PUSH1 0x40 MLOAD DUP2 DUP2 ADD PUSH8 0xFFFFFFFFFFFFFFFF DUP2 GT DUP3 DUP3 LT OR ISZERO PUSH2 0x4699 JUMPI INVALID JUMPDEST PUSH1 0x40 MSTORE SWAP2 SWAP1 POP JUMP JUMPDEST PUSH1 0x0 JUMPDEST DUP4 DUP2 LT ISZERO PUSH2 0x46BC JUMPI DUP2 DUP2 ADD MLOAD DUP4 DUP3 ADD MSTORE PUSH1 0x20 ADD PUSH2 0x46A4 JUMP JUMPDEST DUP4 DUP2 GT ISZERO PUSH2 0x46CB JUMPI PUSH1 0x0 DUP5 DUP5 ADD MSTORE JUMPDEST POP POP POP POP JUMP INVALID KECCAK256 EXTCODECOPY PUSH2 0x6E69 PUSH14 0x6174652061646469746976653D22 PUSH20 0x756D22206174747269627574654E616D653D2273 PUSH21 0x6172744F6666736574222066726F6D3D2230252220 PUSH21 0x6F3D22313030252220626567696E3D223073222064 PUSH22 0x723D223330732220726570656174436F756E743D2269 PUSH15 0x646566696E69746522202F3E3C2F74 PUSH6 0x787450617468 RETURNDATACOPY EXTCODECOPY 0x2F PUSH21 0x6578743E3C73746F70206F66667365743D222E3922 KECCAK256 PUSH20 0x746F702D636F6C6F723D22776869746522207374 PUSH16 0x702D6F7061636974793D223022202F3E EXTCODECOPY 0x2F PUSH13 0x696E6561724772616469656E74 RETURNDATACOPY EXTCODECOPY PUSH19 0x656374207374796C653D2266696C7465723A20 PUSH22 0x726C28236631292220783D223070782220793D223070 PUSH25 0x222077696474683D22323930707822206865696768743D2235 ADDRESS ADDRESS PUSH17 0x7822202F3E3C6665496D61676520726573 PUSH22 0x6C743D2270332220786C696E6B3A687265663D226461 PUSH21 0x613A696D6167652F7376672B786D6C3B6261736536 CALLVALUE 0x2C EXTCODECOPY PUSH8 0x206D61736B3D2275 PUSH19 0x6C2823666164652D73796D626F6C29223E3C72 PUSH6 0x63742066696C PUSH13 0x3D226E6F6E652220783D223070 PUSH25 0x2220793D22307078222077696474683D223239307078222068 PUSH6 0x696768743D22 ORIGIN ADDRESS ADDRESS PUSH17 0x7822202F3E203C7465787420793D223730 PUSH17 0x782220783D2233327078222066696C6C3D 0x22 PUSH24 0x686974652220666F6E742D66616D696C793D2227436F7572 PUSH10 0x6572204E6577272C206D PUSH16 0x6E6F73706163652220666F6E742D7765 PUSH10 0x6768743D223230302220 PUSH7 0x6F6E742D73697A PUSH6 0x3D2233367078 0x22 RETURNDATACOPY EXTCODECOPY PUSH20 0x76672077696474683D2232393022206865696768 PUSH21 0x3D22353030222076696577426F783D223020302032 CODECOPY ADDRESS KECCAK256 CALLDATALOAD ADDRESS ADDRESS 0x22 KECCAK256 PUSH25 0x6D6C6E733D22687474703A2F2F7777772E77332E6F72672F32 ADDRESS ADDRESS ADDRESS 0x2F PUSH20 0x76672270782C2030707829222063783D22307078 0x22 KECCAK256 PUSH4 0x793D2230 PUSH17 0x782220723D22347078222066696C6C3D22 PUSH24 0x68697465222F3E3C2F673E203C616E696D61746520616464 PUSH10 0x746976653D2273756D22 KECCAK256 PUSH2 0x7474 PUSH19 0x69627574654E616D653D2273746172744F6666 PUSH20 0x6574222066726F6D3D2230252220746F3D223130 ADDRESS 0x25 0x22 KECCAK256 PUSH3 0x656769 PUSH15 0x3D22307322206475723D2233307322 KECCAK256 PUSH19 0x6570656174436F756E743D22696E646566696E PUSH10 0x746522202F3E203C2F74 PUSH6 0x787450617468 RETURNDATACOPY EXTCODECOPY PUSH14 0x61736B2069643D22666164652D75 PUSH17 0x22206D61736B436F6E74656E74556E6974 PUSH20 0x3D226F626A656374426F756E64696E67426F7822 RETURNDATACOPY EXTCODECOPY PUSH19 0x6563742077696474683D223122206865696768 PUSH21 0x3D2231222066696C6C3D2275726C2823677261642D PUSH22 0x702922202F3E3C2F6D61736B3E22207374726F6B653D 0x22 PUSH19 0x67626128302C302C302C302E33292220737472 PUSH16 0x6B652D77696474683D22333270782220 PUSH7 0x696C6C3D226E6F PUSH15 0x6522207374726F6B652D6C696E6563 PUSH2 0x703D 0x22 PUSH19 0x6F756E6422202F3E203C616E696D6174652061 PUSH5 0x6469746976 PUSH6 0x3D2273756D22 KECCAK256 PUSH2 0x7474 PUSH19 0x69627574654E616D653D2273746172744F6666 PUSH20 0x6574222066726F6D3D2230252220746F3D223130 ADDRESS 0x25 0x22 KECCAK256 PUSH3 0x656769 PUSH15 0x3D22307322206475723D2233307322 KECCAK256 EXTCODECOPY PUSH8 0x207374796C653D22 PUSH21 0x72616E73666F726D3A7472616E736C617465283239 PUSH17 0x782C20343434707829223E3C636972636C PUSH6 0x207374796C65 RETURNDATASIZE 0x22 PUSH21 0x72616E73666F726D3A7472616E736C617465336428 EXTCODECOPY PUSH20 0x76672077696474683D2732393027206865696768 PUSH21 0x3D27353030272076696577426F783D273020302032 CODECOPY ADDRESS KECCAK256 CALLDATALOAD ADDRESS ADDRESS 0x27 KECCAK256 PUSH25 0x6D6C6E733D27687474703A2F2F7777772E77332E6F72672F32 ADDRESS ADDRESS ADDRESS 0x2F PUSH20 0x7667273E3C636972636C652063783D27203C6720 PUSH20 0x74796C653D2266696C7465723A75726C2823746F PUSH17 0x2D726567696F6E2D626C7572293B207472 PUSH2 0x6E73 PUSH7 0x6F726D3A736361 PUSH13 0x6528312E35293B207472616E73 PUSH7 0x6F726D2D6F7269 PUSH8 0x696E3A63656E7465 PUSH19 0x20746F703B223E22202F3E3C6665426C656E64 KECCAK256 PUSH14 0x6F64653D226F7665726C61792220 PUSH10 0x6E3D2270302220696E32 RETURNDATASIZE 0x22 PUSH17 0x3122202F3E3C6665426C656E64206D6F64 PUSH6 0x3D226578636C PUSH22 0x73696F6E2220696E323D22703222202F3E3C6665426C PUSH6 0x6E64206D6F64 PUSH6 0x3D226F766572 PUSH13 0x61792220696E323D2270332220 PUSH19 0x6573756C743D22626C656E644F757422202F3E EXTCODECOPY PUSH7 0x65476175737369 PUSH2 0x6E42 PUSH13 0x7572203C706174682069643D22 PUSH14 0x696E696D61702220643D224D3233 CALLVALUE KECCAK256 CALLVALUE CALLVALUE CALLVALUE NUMBER ORIGIN CALLER CALLVALUE KECCAK256 CALLVALUE CALLDATALOAD CALLDATACOPY 0x2E CODECOPY CALLVALUE CODECOPY KECCAK256 ORIGIN CALLVALUE ORIGIN 0x2E ORIGIN BALANCE KECCAK256 CALLVALUE CALLDATASIZE CALLER KECCAK256 ORIGIN CALLDATALOAD CALLER KECCAK256 CALLVALUE CALLDATASIZE CALLER 0x22 KECCAK256 0x2F RETURNDATACOPY EXTCODECOPY PUSH14 0x61736B2069643D226E6F6E652220 PUSH14 0x61736B436F6E74656E74556E6974 PUSH20 0x3D226F626A656374426F756E64696E67426F7822 RETURNDATACOPY EXTCODECOPY PUSH19 0x6563742077696474683D223122206865696768 PUSH21 0x3D2231222066696C6C3D22776869746522202F3E3C 0x2F PUSH14 0x61736B3E2220783D223070782220 PUSH26 0x3D22307078222077696474683D22323930707822206865696768 PUSH21 0x3D22353030707822202F3E203C616E696D61746520 PUSH2 0x6464 PUSH10 0x746976653D2273756D22 KECCAK256 PUSH2 0x7474 PUSH19 0x69627574654E616D653D2273746172744F6666 PUSH20 0x6574222066726F6D3D2230252220746F3D223130 ADDRESS 0x25 0x22 KECCAK256 PUSH3 0x656769 PUSH15 0x3D22307322206475723D2233307322 KECCAK256 PUSH19 0x6570656174436F756E743D22696E646566696E PUSH10 0x746522202F3E3C746578 PUSH21 0x20783D22313270782220793D22313770782220666F PUSH15 0x742D66616D696C793D2227436F7572 PUSH10 0x6572204E6577272C206D PUSH16 0x6E6F73706163652220666F6E742D7369 PUSH27 0x653D2231327078222066696C6C3D227768697465223E3C74737061 PUSH15 0x2066696C6C3D227267626128323535 0x2C ORIGIN CALLDATALOAD CALLDATALOAD 0x2C ORIGIN CALLDATALOAD CALLDATALOAD 0x2C ADDRESS 0x2E CALLDATASIZE 0x29 0x22 RETURNDATACOPY 0x4D PUSH10 0x6E205469636B3A203C2F PUSH21 0x7370616E3E3C74657874506174682073746172744F PUSH7 0x667365743D222D BALANCE ADDRESS ADDRESS 0x25 0x22 KECCAK256 PUSH7 0x696C6C3D227768 PUSH10 0x74652220666F6E742D66 PUSH2 0x6D69 PUSH13 0x793D2227436F7572696572204E PUSH6 0x77272C206D6F PUSH15 0x6F73706163652220666F6E742D7369 PUSH27 0x653D22313070782220786C696E6B3A687265663D2223746578742D PUSH17 0x6174682D61223E3C6C696E656172477261 PUSH5 0x69656E7420 PUSH10 0x643D22677261642D646F PUSH24 0x6E222078313D2230222078323D2231222079313D22302220 PUSH26 0x323D2231223E3C73746F70206F66667365743D22302E30222073 PUSH21 0x6F702D636F6C6F723D227768697465222073746F70 0x2D PUSH16 0x7061636974793D223122202F3E3C7374 PUSH16 0x70206F66667365743D22302E39222073 PUSH21 0x6F702D636F6C6F723D227768697465222073746F70 0x2D PUSH16 0x7061636974793D223022202F3E3C2F6C PUSH10 0x6E656172477261646965 PUSH15 0x743E3C66696C7465722069643D2266 BALANCE 0x22 RETURNDATACOPY EXTCODECOPY PUSH7 0x65496D61676520 PUSH19 0x6573756C743D2270302220786C696E6B3A6872 PUSH6 0x663D22646174 PUSH2 0x3A69 PUSH14 0x6167652F7376672B786D6C3B6261 PUSH20 0x6536342C3C7376672077696474683D2732393027 KECCAK256 PUSH9 0x65696768743D273530 ADDRESS 0x27 KECCAK256 PUSH23 0x696577426F783D2730203020323930203530302720786D PUSH13 0x6E733D27687474703A2F2F7777 PUSH24 0x2E77332E6F72672F323030302F737667273E3C7265637420 PUSH24 0x696474683D27323930707827206865696768743D27353030 PUSH17 0x78272066696C6C3D2723222F3E3C666549 PUSH14 0x61676520726573756C743D227032 0x22 KECCAK256 PUSH25 0x6C696E6B3A687265663D22646174613A696D6167652F737667 0x2B PUSH25 0x6D6C3B6261736536342C3C656C6C697073652063783D223530 0x25 0x22 KECCAK256 PUSH4 0x793D2230 PUSH17 0x78222072783D223138307078222072793D 0x22 BALANCE ORIGIN ADDRESS PUSH17 0x78222066696C6C3D222330303022206F70 PUSH2 0x6369 PUSH21 0x793D22302E383522202F3E3C2F673E707822206865 PUSH10 0x6768743D223236707822 KECCAK256 PUSH19 0x783D22387078222072793D2238707822206669 PUSH13 0x6C3D227267626128302C302C30 0x2C ADDRESS 0x2E CALLDATASIZE 0x29 0x22 KECCAK256 0x2F RETURNDATACOPY PUSH17 0x782220723D22347078222066696C6C3D22 PUSH24 0x6869746522202F3E3C636972636C652063783D2231312E33 CALLVALUE CALLDATACOPY CODESIZE 0x4C ORIGIN CALLVALUE KECCAK256 BALANCE ORIGIN 0x4C BALANCE CALLVALUE 0x2E CALLVALUE CALLER CALLVALUE BALANCE KECCAK256 BALANCE ORIGIN 0x2E CALLDATASIZE CALLDATALOAD ORIGIN ORIGIN 0x4C ORIGIN ORIGIN 0x2E CALLER CODECOPY ORIGIN CALLER KECCAK256 BALANCE CODESIZE 0x4C BALANCE CALLER 0x2E CALLDATACOPY CODESIZE BALANCE CODECOPY KECCAK256 BALANCE CALLER 0x2E CALLDATACOPY CODESIZE BALANCE CODECOPY 0x4C BALANCE CODESIZE KECCAK256 ORIGIN ORIGIN 0x2E CALLER CODECOPY ORIGIN CALLER 0x4C BALANCE ORIGIN 0x2E CALLDATASIZE CALLDATALOAD ORIGIN ORIGIN KECCAK256 BALANCE CALLVALUE 0x2E CALLVALUE CALLER CALLVALUE BALANCE 0x4C BALANCE ORIGIN KECCAK256 ORIGIN CALLVALUE 0x4C BALANCE BALANCE 0x2E CALLER CALLVALUE CALLDATACOPY CODESIZE KECCAK256 BALANCE CALLVALUE 0x2E CALLVALUE CALLER CALLVALUE BALANCE 0x4C CALLDATASIZE KECCAK256 ORIGIN ORIGIN 0x2E CALLER CODECOPY EXTCODECOPY PUSH19 0x6563742066696C6C3D226E6F6E652220783D22 ADDRESS PUSH17 0x782220793D22307078222077696474683D 0x22 ORIGIN CODECOPY ADDRESS PUSH17 0x7822206865696768743D22353030707822 KECCAK256 0x2F RETURNDATACOPY COINBASE TIMESTAMP NUMBER DIFFICULTY GASLIMIT CHAINID SELFBALANCE 0x48 0x49 0x4A 0x4B 0x4C 0x4D 0x4E 0x4F POP MLOAD MSTORE MSTORE8 SLOAD SSTORE JUMP JUMPI PC MSIZE GAS PUSH2 0x6263 PUSH5 0x6566676869 PUSH11 0x6B6C6D6E6F707172737475 PUSH23 0x7778797A303132333435363738392B2F20786D6C6E733A PUSH25 0x6C696E6B3D27687474703A2F2F7777772E77332E6F72672F31 CODECOPY CODECOPY CODECOPY 0x2F PUSH25 0x6C696E6B273E3C6C696E6561724772616469656E742069643D 0x22 PUSH8 0x7261642D73796D62 PUSH16 0x6C223E3C73746F70206F66667365743D 0x22 ADDRESS 0x2E CALLDATACOPY 0x22 KECCAK256 PUSH20 0x746F702D636F6C6F723D22776869746522207374 PUSH16 0x702D6F7061636974793D223122202F3E EXTCODECOPY PUSH20 0x746F70206F66667365743D222E3935222073746F PUSH17 0x2D636F6C6F723D22776869746522207374 PUSH16 0x702D6F7061636974793D223022202F3E EXTCODECOPY 0x2F PUSH13 0x696E6561724772616469656E74 RETURNDATACOPY KECCAK256 PUSH20 0x74796C653D227472616E73666F726D3A7472616E PUSH20 0x6C61746528373270782C313839707829223E3C72 PUSH6 0x637420783D22 0x2D BALANCE CALLDATASIZE PUSH17 0x782220793D222D31367078222077696474 PUSH9 0x3D2231383070782220 PUSH9 0x65696768743D223138 ADDRESS PUSH17 0x78222066696C6C3D226E6F6E6522202F3E EXTCODECOPY PUSH17 0x61746820643D22207374796C653D227472 PUSH2 0x6E73 PUSH7 0x6F726D3A747261 PUSH15 0x736C61746528373270782C31383970 PUSH25 0x29223E70782220723D2232347078222066696C6C3D226E6F6E PUSH6 0x22207374726F PUSH12 0x653D22776869746522202F3E EXTCODECOPY PUSH19 0x65637420783D222D313670782220793D222D31 CALLDATASIZE PUSH17 0x78222077696474683D2231383070782220 PUSH9 0x65696768743D223138 ADDRESS PUSH17 0x78222066696C6C3D226E6F6E6522202F3E MSTORE8 PUSH2 0x6665 0x4D PUSH2 0x7468 GASPRICE KECCAK256 PUSH14 0x756C7469706C69636174696F6E20 PUSH16 0x766572666C6F773C673E3C7061746820 PUSH20 0x74796C653D227472616E73666F726D3A7472616E PUSH20 0x6C617465283670782C367078292220643D224D31 ORIGIN KECCAK256 ADDRESS 0x4C BALANCE ORIGIN 0x2E CALLDATASIZE CALLDATALOAD ORIGIN ORIGIN KECCAK256 CODECOPY 0x2E CALLDATALOAD CALLDATASIZE CALLDATALOAD CODESIZE CALLDATACOPY 0x4C BALANCE CODESIZE KECCAK256 BALANCE 0x2E CALLDATASIZE ADDRESS CALLDATACOPY CALLDATACOPY 0x4C BALANCE CALLER 0x2E CALLDATACOPY CODESIZE BALANCE CODECOPY KECCAK256 BALANCE ADDRESS 0x2E ORIGIN BALANCE CODESIZE BALANCE 0x4C ORIGIN ORIGIN 0x2E CALLER CODECOPY ORIGIN CALLER KECCAK256 CALLDATASIZE 0x4C BALANCE CALLVALUE 0x2E CALLVALUE CALLER CALLVALUE BALANCE KECCAK256 EXTCODECOPY PUSH17 0x617468207374726F6B652D6C696E656361 PUSH17 0x3D22726F756E642220643D224D38203943 CODESIZE 0x2E ADDRESS ADDRESS ADDRESS ADDRESS CALLVALUE KECCAK256 ORIGIN ORIGIN 0x2E CODECOPY CALLVALUE CODECOPY CALLVALUE KECCAK256 BALANCE CALLDATASIZE 0x2E ORIGIN ADDRESS CODECOPY CODECOPY KECCAK256 ORIGIN CODESIZE KECCAK256 ORIGIN CALLDATACOPY KECCAK256 ORIGIN CODESIZE 0x22 KECCAK256 PUSH7 0x696C6C3D226E6F PUSH15 0x6522207374726F6B653D2277686974 PUSH6 0x22202F3E2072 PUSH6 0x70656174436F PUSH22 0x6E743D22696E646566696E69746522202F3E3C2F7465 PUSH25 0x74506174683E3C74657874506174682073746172744F666673 PUSH6 0x743D222D3530 0x25 0x22 KECCAK256 PUSH7 0x696C6C3D227768 PUSH10 0x74652220666F6E742D66 PUSH2 0x6D69 PUSH13 0x793D2227436F7572696572204E PUSH6 0x77272C206D6F PUSH15 0x6F73706163652220666F6E742D7369 PUSH27 0x653D22313070782220786C696E6B3A687265663D2223746578742D PUSH17 0x6174682D61223E3C6D61736B2069643D22 PUSH7 0x6164652D646F77 PUSH15 0x22206D61736B436F6E74656E74556E PUSH10 0x74733D226F626A656374 TIMESTAMP PUSH16 0x756E64696E67426F78223E3C72656374 KECCAK256 PUSH24 0x696474683D223122206865696768743D2231222066696C6C RETURNDATASIZE 0x22 PUSH22 0x726C2823677261642D646F776E2922202F3E3C2F6D61 PUSH20 0x6B3E22207374726F6B653D227267626128323535 0x2C ORIGIN CALLDATALOAD CALLDATALOAD 0x2C ORIGIN CALLDATALOAD CALLDATALOAD 0x2C BALANCE 0x29 0x22 KECCAK256 PUSH7 0x696C6C3D226E6F PUSH15 0x6522207374726F6B652D6C696E6563 PUSH2 0x703D 0x22 PUSH19 0x6F756E6422202F3E3C2F673E696E3D22626C65 PUSH15 0x644F75742220737464446576696174 PUSH10 0x6F6E3D22343222202F3E EXTCODECOPY 0x2F PUSH7 0x696C7465723E20 EXTCODECOPY PUSH4 0x6C697050 PUSH2 0x7468 KECCAK256 PUSH10 0x643D22636F726E657273 0x22 RETURNDATACOPY EXTCODECOPY PUSH19 0x6563742077696474683D223239302220686569 PUSH8 0x68743D2235303022 KECCAK256 PUSH19 0x783D223432222072793D22343222202F3E3C2F PUSH4 0x6C697050 PUSH2 0x7468 RETURNDATACOPY KECCAK256 EXTCODECOPY PUSH8 0x207374796C653D22 PUSH21 0x72616E73666F726D3A7472616E736C617465283239 PUSH17 0x782C20333834707829223E3C6C696E6561 PUSH19 0x4772616469656E742069643D22677261642D75 PUSH17 0x222078313D2231222078323D2230222079 BALANCE RETURNDATASIZE 0x22 BALANCE 0x22 KECCAK256 PUSH26 0x323D2230223E3C73746F70206F66667365743D22302E30222073 PUSH21 0x6F702D636F6C6F723D227768697465222073746F70 0x2D PUSH16 0x7061636974793D223122202F3E32334C BALANCE ADDRESS 0x2E ORIGIN BALANCE CODESIZE BALANCE KECCAK256 BALANCE CALLER 0x2E CALLDATACOPY CODESIZE BALANCE CODECOPY 0x4C BALANCE 0x2E CALLDATASIZE ADDRESS CALLDATACOPY CALLDATACOPY KECCAK256 BALANCE CODESIZE 0x4C CODECOPY 0x2E CALLDATALOAD CALLDATASIZE CALLDATALOAD CODESIZE CALLDATACOPY KECCAK256 BALANCE ORIGIN 0x2E CALLDATASIZE CALLDATALOAD ORIGIN ORIGIN 0x4C ADDRESS KECCAK256 BALANCE ORIGIN 0x4C CODECOPY 0x2E CALLDATALOAD CALLDATASIZE CALLDATALOAD CODESIZE CALLDATACOPY KECCAK256 BALANCE BALANCE 0x2E CALLER CALLVALUE CALLDATACOPY CODESIZE 0x4C BALANCE 0x2E CALLDATASIZE ADDRESS CALLDATACOPY CALLDATACOPY KECCAK256 CALLDATASIZE 0x4C BALANCE ADDRESS 0x2E ORIGIN BALANCE CODESIZE BALANCE KECCAK256 BALANCE ADDRESS 0x2E ORIGIN BALANCE CODESIZE BALANCE 0x4C CALLDATASIZE KECCAK256 BALANCE 0x2E CALLDATASIZE ADDRESS CALLDATACOPY CALLDATACOPY 0x4C BALANCE BALANCE 0x2E CALLER CALLVALUE CALLDATACOPY CODESIZE KECCAK256 CODECOPY 0x2E CALLDATALOAD CALLDATASIZE CALLDATALOAD CODESIZE CALLDATACOPY 0x4C BALANCE ORIGIN KECCAK256 ADDRESS GAS 0x22 KECCAK256 PUSH7 0x696C6C3D227768 PUSH10 0x746522202F3E3C672073 PUSH21 0x796C653D227472616E73666F726D3A7472616E736C PUSH2 0x7465 0x28 ORIGIN ORIGIN CALLDATASIZE PUSH17 0x782C20333932707829223E3C7265637420 PUSH24 0x696474683D223336707822206865696768743D2233367078 0x22 KECCAK256 PUSH19 0x783D22387078222072793D2238707822206669 PUSH13 0x6C3D226E6F6E6522207374726F PUSH12 0x653D2272676261283235352C ORIGIN CALLDATALOAD CALLDATALOAD 0x2C ORIGIN CALLDATALOAD CALLDATALOAD 0x2C ADDRESS 0x2E ORIGIN 0x29 0x22 KECCAK256 0x2F RETURNDATACOPY EXTCODECOPY PUSH21 0x657874506174682073746172744F66667365743D22 CALLDATALOAD ADDRESS 0x25 0x22 KECCAK256 PUSH7 0x696C6C3D227768 PUSH10 0x74652220666F6E742D66 PUSH2 0x6D69 PUSH13 0x793D2227436F7572696572204E PUSH6 0x77272C206D6F PUSH15 0x6F73706163652220666F6E742D7369 PUSH27 0x653D22313070782220786C696E6B3A687265663D2223746578742D PUSH17 0x6174682D61223E3C7465787420783D2231 ORIGIN PUSH17 0x782220793D22313770782220666F6E742D PUSH7 0x616D696C793D22 0x27 NUMBER PUSH16 0x7572696572204E6577272C206D6F6E6F PUSH20 0x706163652220666F6E742D73697A653D22313270 PUSH25 0x222066696C6C3D227768697465223E3C747370616E2066696C PUSH13 0x3D2272676261283235352C3235 CALLDATALOAD 0x2C ORIGIN CALLDATALOAD CALLDATALOAD 0x2C ADDRESS 0x2E CALLDATASIZE 0x29 0x22 RETURNDATACOPY 0x4D PUSH2 0x7820 SLOAD PUSH10 0x636B3A203C2F74737061 PUSH15 0x3E3C616E696D6174655472616E7366 PUSH16 0x726D206174747269627574654E616D65 RETURNDATASIZE 0x22 PUSH21 0x72616E73666F726D2220747970653D22726F746174 PUSH6 0x222066726F6D RETURNDATASIZE 0x22 ADDRESS KECCAK256 BALANCE CODESIZE KECCAK256 BALANCE CODESIZE 0x22 KECCAK256 PUSH21 0x6F3D2233363020313820313822206475723D223130 PUSH20 0x2220726570656174436F756E743D22696E646566 PUSH10 0x6E697465222F3E3C2F67 RETURNDATACOPY EXTCODECOPY 0x2F PUSH8 0x3E3C706174682069 PUSH5 0x3D22746578 PUSH21 0x2D706174682D612220643D224D3430203132204832 CALLDATALOAD ADDRESS KECCAK256 COINBASE ORIGIN CODESIZE KECCAK256 ORIGIN CODESIZE KECCAK256 ADDRESS KECCAK256 ADDRESS KECCAK256 BALANCE KECCAK256 ORIGIN CALLDATACOPY CODESIZE KECCAK256 CALLVALUE ADDRESS KECCAK256 JUMP CALLVALUE CALLDATASIZE ADDRESS KECCAK256 COINBASE ORIGIN CODESIZE KECCAK256 ORIGIN CODESIZE KECCAK256 ADDRESS KECCAK256 ADDRESS KECCAK256 BALANCE KECCAK256 ORIGIN CALLDATALOAD ADDRESS KECCAK256 CALLVALUE CODESIZE CODESIZE KECCAK256 0x48 CALLVALUE ADDRESS KECCAK256 COINBASE ORIGIN CODESIZE KECCAK256 ORIGIN CODESIZE KECCAK256 ADDRESS KECCAK256 ADDRESS KECCAK256 BALANCE KECCAK256 BALANCE ORIGIN KECCAK256 CALLVALUE CALLDATASIZE ADDRESS KECCAK256 JUMP CALLVALUE ADDRESS KECCAK256 COINBASE ORIGIN CODESIZE KECCAK256 ORIGIN CODESIZE KECCAK256 ADDRESS KECCAK256 ADDRESS KECCAK256 BALANCE KECCAK256 CALLVALUE ADDRESS KECCAK256 BALANCE ORIGIN KECCAK256 PUSH27 0x22202F3E222F3E3C6665496D61676520726573756C743D22703122 KECCAK256 PUSH25 0x6C696E6B3A687265663D22646174613A696D6167652F737667 0x2B PUSH25 0x6D6C3B6261736536342C3C6D61736B2069643D22666164652D PUSH20 0x796D626F6C22206D61736B436F6E74656E74556E PUSH10 0x74733D22757365725370 PUSH2 0x6365 0x4F PUSH15 0x557365223E3C726563742077696474 PUSH9 0x3D2232393070782220 PUSH9 0x65696768743D223230 ADDRESS PUSH17 0x78222066696C6C3D2275726C2823677261 PUSH5 0x2D73796D62 PUSH16 0x6C2922202F3E3C2F6D61736B3E3C2F64 PUSH6 0x66733E3C7265 PUSH4 0x7420783D 0x22 ADDRESS 0x22 KECCAK256 PUSH26 0x3D2230222077696474683D2232393022206865696768743D2235 ADDRESS ADDRESS 0x22 KECCAK256 PUSH19 0x783D223432222072793D223432222066696C6C RETURNDATASIZE 0x22 PUSH19 0x67626128302C302C302C302922207374726F6B PUSH6 0x3D2272676261 0x28 ORIGIN CALLDATALOAD CALLDATALOAD 0x2C ORIGIN CALLDATALOAD CALLDATALOAD 0x2C ORIGIN CALLDATALOAD CALLDATALOAD 0x2C ADDRESS 0x2E ORIGIN 0x29 0x22 KECCAK256 0x2F RETURNDATACOPY EXTCODECOPY 0x2F PUSH8 0x3E3C66696C746572 KECCAK256 PUSH10 0x643D22746F702D726567 PUSH10 0x6F6E2D626C7572223E3C PUSH7 0x65476175737369 PUSH2 0x6E42 PUSH13 0x757220696E3D22536F75726365 SELFBALANCE PUSH19 0x61706869632220737464446576696174696F6E RETURNDATASIZE 0x22 ORIGIN CALLVALUE 0x22 KECCAK256 0x2F RETURNDATACOPY EXTCODECOPY 0x2F PUSH7 0x696C7465723E3C 0x2F PUSH21 0x657874506174683E203C7465787450617468207374 PUSH2 0x7274 0x4F PUSH7 0x667365743D2230 0x25 0x22 KECCAK256 PUSH7 0x696C6C3D227768 PUSH10 0x74652220666F6E742D66 PUSH2 0x6D69 PUSH13 0x793D2227436F7572696572204E PUSH6 0x77272C206D6F PUSH15 0x6F73706163652220666F6E742D7369 PUSH27 0x653D22313070782220786C696E6B3A687265663D2223746578742D PUSH17 0x6174682D61223E3C746578742074657874 0x2D PUSH19 0x656E646572696E673D226F7074696D697A6553 PUSH17 0x656564223E5369676E6564536166654D61 PUSH21 0x683A207375627472616374696F6E206F766572666C PUSH16 0x773C7265637420783D2231362220793D 0x22 BALANCE CALLDATASIZE 0x22 KECCAK256 PUSH24 0x696474683D2232353822206865696768743D223436382220 PUSH19 0x783D223236222072793D223236222066696C6C RETURNDATASIZE 0x22 PUSH19 0x67626128302C302C302C302922207374726F6B PUSH6 0x3D2272676261 0x28 ORIGIN CALLDATALOAD CALLDATALOAD 0x2C ORIGIN CALLDATALOAD CALLDATALOAD 0x2C ORIGIN CALLDATALOAD CALLDATALOAD 0x2C ADDRESS 0x2E ORIGIN 0x29 0x22 KECCAK256 0x2F RETURNDATACOPY EXTCODECOPY PUSH21 0x65787420783D22313270782220793D223137707822 KECCAK256 PUSH7 0x6F6E742D66616D PUSH10 0x6C793D2227436F757269 PUSH6 0x72204E657727 0x2C KECCAK256 PUSH14 0x6F6E6F73706163652220666F6E74 0x2D PUSH20 0x697A653D2231327078222066696C6C3D22776869 PUSH21 0x65223E3C747370616E2066696C6C3D227267626128 ORIGIN CALLDATALOAD CALLDATALOAD 0x2C ORIGIN CALLDATALOAD CALLDATALOAD 0x2C ORIGIN CALLDATALOAD CALLDATALOAD 0x2C ADDRESS 0x2E CALLDATASIZE 0x29 0x22 RETURNDATACOPY 0x49 DIFFICULTY GASPRICE KECCAK256 EXTCODECOPY 0x2F PUSH21 0x7370616E3E3C726563742077696474683D22333670 PUSH25 0x22206865696768743D2233367078222072783D223870782220 PUSH19 0x793D22387078222066696C6C3D226E6F6E6522 KECCAK256 PUSH20 0x74726F6B653D2272676261283235352C3235352C ORIGIN CALLDATALOAD CALLDATALOAD 0x2C ADDRESS 0x2E ORIGIN 0x29 0x22 KECCAK256 0x2F RETURNDATACOPY EXTCODECOPY 0x2F PUSH21 0x6578743E3C7465787420793D223131357078222078 RETURNDATASIZE 0x22 CALLER ORIGIN PUSH17 0x78222066696C6C3D227768697465222066 PUSH16 0x6E742D66616D696C793D2227436F7572 PUSH10 0x6572204E6577272C206D PUSH16 0x6E6F73706163652220666F6E742D7765 PUSH10 0x6768743D223230302220 PUSH7 0x6F6E742D73697A PUSH6 0x3D2233367078 0x22 RETURNDATACOPY EXTCODECOPY 0x2F PUSH21 0x6578743E3C2F673E3C67207374796C653D22747261 PUSH15 0x73666F726D3A7472616E736C617465 0x28 ORIGIN ORIGIN CALLDATASIZE PUSH17 0x782C20343333707829223E203C67207374 PUSH26 0x6C653D227472616E73666F726D3A7472616E736C617465283239 PUSH17 0x782C20343134707829223EA164736F6C63 NUMBER STOP SMOD MOD STOP EXP "},"methodIdentifiers":{"constructTokenURI(NFTDescriptor.ConstructTokenURIParams)":"c49917d7"}}}}}