{"contracts/v3-core/UniswapV3PoolDeployer.sol":{"UniswapV3PoolDeployer":{"abi":[{"inputs":[],"name":"parameters","outputs":[{"internalType":"address","name":"factory","type":"address"},{"internalType":"address","name":"token0","type":"address"},{"internalType":"address","name":"token1","type":"address"},{"internalType":"uint24","name":"fee","type":"uint24"},{"internalType":"int24","name":"tickSpacing","type":"int24"}],"stateMutability":"view","type":"function"}],"evm":{"bytecode":{"linkReferences":{},"object":"608060405234801561001057600080fd5b5060f78061001f6000396000f3fe6080604052348015600f57600080fd5b506004361060285760003560e01c80638903573014602d575b600080fd5b60336082565b6040805173ffffffffffffffffffffffffffffffffffffffff96871681529486166020860152929094168383015262ffffff16606083015260029290920b608082015290519081900360a00190f35b6000546001546002805473ffffffffffffffffffffffffffffffffffffffff938416939283169281169162ffffff7401000000000000000000000000000000000000000083041691770100000000000000000000000000000000000000000000009004900b8556fea164736f6c6343000706000a","opcodes":"PUSH1 0x80 PUSH1 0x40 MSTORE CALLVALUE DUP1 ISZERO PUSH2 0x10 JUMPI PUSH1 0x0 DUP1 REVERT JUMPDEST POP PUSH1 0xF7 DUP1 PUSH2 0x1F PUSH1 0x0 CODECOPY PUSH1 0x0 RETURN INVALID PUSH1 0x80 PUSH1 0x40 MSTORE CALLVALUE DUP1 ISZERO PUSH1 0xF JUMPI PUSH1 0x0 DUP1 REVERT JUMPDEST POP PUSH1 0x4 CALLDATASIZE LT PUSH1 0x28 JUMPI PUSH1 0x0 CALLDATALOAD PUSH1 0xE0 SHR DUP1 PUSH4 0x89035730 EQ PUSH1 0x2D JUMPI JUMPDEST PUSH1 0x0 DUP1 REVERT JUMPDEST PUSH1 0x33 PUSH1 0x82 JUMP JUMPDEST PUSH1 0x40 DUP1 MLOAD PUSH20 0xFFFFFFFFFFFFFFFFFFFFFFFFFFFFFFFFFFFFFFFF SWAP7 DUP8 AND DUP2 MSTORE SWAP5 DUP7 AND PUSH1 0x20 DUP7 ADD MSTORE SWAP3 SWAP1 SWAP5 AND DUP4 DUP4 ADD MSTORE PUSH3 0xFFFFFF AND PUSH1 0x60 DUP4 ADD MSTORE PUSH1 0x2 SWAP3 SWAP1 SWAP3 SIGNEXTEND PUSH1 0x80 DUP3 ADD MSTORE SWAP1 MLOAD SWAP1 DUP2 SWAP1 SUB PUSH1 0xA0 ADD SWAP1 RETURN JUMPDEST PUSH1 0x0 SLOAD PUSH1 0x1 SLOAD PUSH1 0x2 DUP1 SLOAD PUSH20 0xFFFFFFFFFFFFFFFFFFFFFFFFFFFFFFFFFFFFFFFF SWAP4 DUP5 AND SWAP4 SWAP3 DUP4 AND SWAP3 DUP2 AND SWAP2 PUSH3 0xFFFFFF PUSH21 0x10000000000000000000000000000000000000000 DUP4 DIV AND SWAP2 PUSH24 0x10000000000000000000000000000000000000000000000 SWAP1 DIV SWAP1 SIGNEXTEND DUP6 JUMP INVALID LOG1 PUSH5 0x736F6C6343 STOP SMOD MOD STOP EXP "},"methodIdentifiers":{"parameters()":"89035730"}}}}}