{
  "_format": "hh-sol-artifact-1",
  "contractName": "V3Migrator",
  "sourceName": "contracts/v3-periphery/V3Migrator.sol",
  "abi": [
    {
      "inputs": [
        {
          "internalType": "address",
          "name": "_factory",
          "type": "address"
        },
        {
          "internalType": "address",
          "name": "_WETH9",
          "type": "address"
        },
        {
          "internalType": "address",
          "name": "_nonfungiblePositionManager",
          "type": "address"
        }
      ],
      "stateMutability": "nonpayable",
      "type": "constructor"
    },
    {
      "inputs": [],
      "name": "WETH9",
      "outputs": [
        {
          "internalType": "address",
          "name": "",
          "type": "address"
        }
      ],
      "stateMutability": "view",
      "type": "function"
    },
    {
      "inputs": [
        {
          "internalType": "address",
          "name": "token0",
          "type": "address"
        },
        {
          "internalType": "address",
          "name": "token1",
          "type": "address"
        },
        {
          "internalType": "uint24",
          "name": "fee",
          "type": "uint24"
        },
        {
          "internalType": "uint160",
          "name": "sqrtPriceX96",
          "type": "uint160"
        }
      ],
      "name": "createAndInitializePoolIfNecessary",
      "outputs": [
        {
          "internalType": "address",
          "name": "pool",
          "type": "address"
        }
      ],
      "stateMutability": "payable",
      "type": "function"
    },
    {
      "inputs": [],
      "name": "factory",
      "outputs": [
        {
          "internalType": "address",
          "name": "",
          "type": "address"
        }
      ],
      "stateMutability": "view",
      "type": "function"
    },
    {
      "inputs": [
        {
          "components": [
            {
              "internalType": "address",
              "name": "pair",
              "type": "address"
            },
            {
              "internalType": "uint256",
              "name": "liquidityToMigrate",
              "type": "uint256"
            },
            {
              "internalType": "uint8",
              "name": "percentageToMigrate",
              "type": "uint8"
            },
            {
              "internalType": "address",
              "name": "token0",
              "type": "address"
            },
            {
              "internalType": "address",
              "name": "token1",
              "type": "address"
            },
            {
              "internalType": "uint24",
              "name": "fee",
              "type": "uint24"
            },
            {
              "internalType": "int24",
              "name": "tickLower",
              "type": "int24"
            },
            {
              "internalType": "int24",
              "name": "tickUpper",
              "type": "int24"
            },
            {
              "internalType": "uint256",
              "name": "amount0Min",
              "type": "uint256"
            },
            {
              "internalType": "uint256",
              "name": "amount1Min",
              "type": "uint256"
            },
            {
              "internalType": "address",
              "name": "recipient",
              "type": "address"
            },
            {
              "internalType": "uint256",
              "name": "deadline",
              "type": "uint256"
            },
            {
              "internalType": "bool",
              "name": "refundAsETH",
              "type": "bool"
            }
          ],
          "internalType": "struct IV3Migrator.MigrateParams",
          "name": "params",
          "type": "tuple"
        }
      ],
      "name": "migrate",
      "outputs": [],
      "stateMutability": "nonpayable",
      "type": "function"
    },
    {
      "inputs": [
        {
          "internalType": "bytes[]",
          "name": "data",
          "type": "bytes[]"
        }
      ],
      "name": "multicall",
      "outputs": [
        {
          "internalType": "bytes[]",
          "name": "results",
          "type": "bytes[]"
        }
      ],
      "stateMutability": "payable",
      "type": "function"
    },
    {
      "inputs": [],
      "name": "nonfungiblePositionManager",
      "outputs": [
        {
          "internalType": "address",
          "name": "",
          "type": "address"
        }
      ],
      "stateMutability": "view",
      "type": "function"
    },
    {
      "inputs": [
        {
          "internalType": "address",
          "name": "token",
          "type": "address"
        },
        {
          "internalType": "uint256",
          "name": "value",
          "type": "uint256"
        },
        {
          "internalType": "uint256",
          "name": "deadline",
          "type": "uint256"
        },
        {
          "internalType": "uint8",
          "name": "v",
          "type": "uint8"
        },
        {
          "internalType": "bytes32",
          "name": "r",
          "type": "bytes32"
        },
        {
          "internalType": "bytes32",
          "name": "s",
          "type": "bytes32"
        }
      ],
      "name": "selfPermit",
      "outputs": [],
      "stateMutability": "payable",
      "type": "function"
    },
    {
      "inputs": [
        {
          "internalType": "address",
          "name": "token",
          "type": "address"
        },
        {
          "internalType": "uint256",
          "name": "nonce",
          "type": "uint256"
        },
        {
          "internalType": "uint256",
          "name": "expiry",
          "type": "uint256"
        },
        {
          "internalType": "uint8",
          "name": "v",
          "type": "uint8"
        },
        {
          "internalType": "bytes32",
          "name": "r",
          "type": "bytes32"
        },
        {
          "internalType": "bytes32",
          "name": "s",
          "type": "bytes32"
        }
      ],
      "name": "selfPermitAllowed",
      "outputs": [],
      "stateMutability": "payable",
      "type": "function"
    },
    {
      "inputs": [
        {
          "internalType": "address",
          "name": "token",
          "type": "address"
        },
        {
          "internalType": "uint256",
          "name": "nonce",
          "type": "uint256"
        },
        {
          "internalType": "uint256",
          "name": "expiry",
          "type": "uint256"
        },
        {
          "internalType": "uint8",
          "name": "v",
          "type": "uint8"
        },
        {
          "internalType": "bytes32",
          "name": "r",
          "type": "bytes32"
        },
        {
          "internalType": "bytes32",
          "name": "s",
          "type": "bytes32"
        }
      ],
      "name": "selfPermitAllowedIfNecessary",
      "outputs": [],
      "stateMutability": "payable",
      "type": "function"
    },
    {
      "inputs": [
        {
          "internalType": "address",
          "name": "token",
          "type": "address"
        },
        {
          "internalType": "uint256",
          "name": "value",
          "type": "uint256"
        },
        {
          "internalType": "uint256",
          "name": "deadline",
          "type": "uint256"
        },
        {
          "internalType": "uint8",
          "name": "v",
          "type": "uint8"
        },
        {
          "internalType": "bytes32",
          "name": "r",
          "type": "bytes32"
        },
        {
          "internalType": "bytes32",
          "name": "s",
          "type": "bytes32"
        }
      ],
      "name": "selfPermitIfNecessary",
      "outputs": [],
      "stateMutability": "payable",
      "type": "function"
    },
    {
      "stateMutability": "payable",
      "type": "receive"
    }
  ],
  "bytecode": "0x60e06040523480156200001157600080fd5b5060405162001a7d38038062001a7d833981016040819052620000349162000079565b6001600160601b0319606093841b811660805291831b821660a05290911b1660c052620000c2565b80516001600160a01b03811681146200007457600080fd5b919050565b6000806000606084860312156200008e578283fd5b62000099846200005c565b9250620000a9602085016200005c565b9150620000b9604085016200005c565b90509250925092565b60805160601c60a05160601c60c05160601c61194f6200012e600039806107935280610a5e5280610a985280610ac25280610c6b52508060c552806105965280610cb75280610d0e5280610de95280610e4052508061022852806102ef5280610846525061194f6000f3fe6080604052600436106100b55760003560e01c8063b44a272211610069578063c45a01551161004e578063c45a0155146101be578063d44f2bf2146101d3578063f3995c67146101f35761010d565b8063b44a272214610196578063c2e3140a146101ab5761010d565b80634aa4a4fc1161009a5780634aa4a4fc1461014e578063a4a78f0c14610163578063ac9650d8146101765761010d565b806313ead562146101125780634659a4941461013b5761010d565b3661010d57336001600160a01b037f0000000000000000000000000000000000000000000000000000000000000000161461010b5760405162461bcd60e51b81526004016101029061177b565b60405180910390fd5b005b600080fd5b61012561012036600461136f565b610206565b6040516101329190611699565b60405180910390f35b61010b6101493660046113c8565b6104fa565b34801561015a57600080fd5b50610125610594565b61010b6101713660046113c8565b6105b8565b610189610184366004611421565b610651565b60405161013291906116d1565b3480156101a257600080fd5b50610125610791565b61010b6101b93660046113c8565b6107b5565b3480156101ca57600080fd5b50610125610844565b3480156101df57600080fd5b5061010b6101ee366004611580565b610868565b61010b6102013660046113c8565b610ed4565b6000836001600160a01b0316856001600160a01b03161061022657600080fd5b7f00000000000000000000000000000000000000000000000000000000000000006001600160a01b0316631698ee828686866040518463ffffffff1660e01b815260040180846001600160a01b03168152602001836001600160a01b031681526020018262ffffff168152602001935050505060206040518083038186803b1580156102b157600080fd5b505afa1580156102c5573d6000803e3d6000fd5b505050506040513d60208110156102db57600080fd5b505190506001600160a01b038116610411577f00000000000000000000000000000000000000000000000000000000000000006001600160a01b031663a16712958686866040518463ffffffff1660e01b815260040180846001600160a01b03168152602001836001600160a01b031681526020018262ffffff1681526020019350505050602060405180830381600087803b15801561037a57600080fd5b505af115801561038e573d6000803e3d6000fd5b505050506040513d60208110156103a457600080fd5b50516040805163f637731d60e01b81526001600160a01b03858116600483015291519293509083169163f637731d9160248082019260009290919082900301818387803b1580156103f457600080fd5b505af1158015610408573d6000803e3d6000fd5b505050506104f2565b6000816001600160a01b0316633850c7bd6040518163ffffffff1660e01b815260040160e06040518083038186803b15801561044c57600080fd5b505afa158015610460573d6000803e3d6000fd5b505050506040513d60e081101561047657600080fd5b505190506001600160a01b0381166104f057816001600160a01b031663f637731d846040518263ffffffff1660e01b815260040180826001600160a01b03168152602001915050600060405180830381600087803b1580156104d757600080fd5b505af11580156104eb573d6000803e3d6000fd5b505050505b505b949350505050565b604080516323f2ebc360e21b815233600482015230602482015260448101879052606481018690526001608482015260ff851660a482015260c4810184905260e4810183905290516001600160a01b03881691638fcbaf0c9161010480830192600092919082900301818387803b15801561057457600080fd5b505af1158015610588573d6000803e3d6000fd5b50505050505050505050565b7f000000000000000000000000000000000000000000000000000000000000000081565b60408051636eb1769f60e11b81523360048201523060248201529051600019916001600160a01b0389169163dd62ed3e91604480820192602092909190829003018186803b15801561060957600080fd5b505afa15801561061d573d6000803e3d6000fd5b505050506040513d602081101561063357600080fd5b50511015610649576106498686868686866104fa565b505050505050565b60608167ffffffffffffffff8111801561066a57600080fd5b5060405190808252806020026020018201604052801561069e57816020015b60608152602001906001900390816106895790505b50905060005b8281101561078a57600080308686858181106106bc57fe5b90506020028101906106ce91906118a0565b6040516106dc929190611689565b600060405180830381855af49150503d8060008114610717576040519150601f19603f3d011682016040523d82523d6000602084013e61071c565b606091505b5091509150816107685760448151101561073557600080fd5b6004810190508080602001905181019061074f91906114e9565b60405162461bcd60e51b81526004016101029190611731565b8084848151811061077557fe5b602090810291909101015250506001016106a4565b5092915050565b7f000000000000000000000000000000000000000000000000000000000000000081565b60408051636eb1769f60e11b8152336004820152306024820152905186916001600160a01b0389169163dd62ed3e91604480820192602092909190829003018186803b15801561080457600080fd5b505afa158015610818573d6000803e3d6000fd5b505050506040513d602081101561082e57600080fd5b5051101561064957610649868686868686610ed4565b7f000000000000000000000000000000000000000000000000000000000000000081565b600061087a6060830160408401611626565b60ff161161089a5760405162461bcd60e51b815260040161010290611744565b60646108ac6060830160408401611626565b60ff1611156108cd5760405162461bcd60e51b8152600401610102906117b2565b6108da602082018261134c565b6001600160a01b03166323b872dd336108f6602085018561134c565b84602001356040518463ffffffff1660e01b8152600401610919939291906116ad565b602060405180830381600087803b15801561093357600080fd5b505af1158015610947573d6000803e3d6000fd5b505050506040513d601f19601f8201168201806040525081019061096b91906114ac565b5060008061097c602084018461134c565b6001600160a01b03166389afcb44306040518263ffffffff1660e01b81526004016109a79190611699565b6040805180830381600087803b1580156109c057600080fd5b505af11580156109d4573d6000803e3d6000fd5b505050506040513d601f19601f820116820180604052508101906109f89190611603565b909250905060006064610a1e610a146060870160408801611626565b859060ff16610f46565b81610a2557fe5b04905060006064610a3f610a146060880160408901611626565b81610a4657fe5b049050610a83610a5c608087016060880161134c565b7f000000000000000000000000000000000000000000000000000000000000000084610f70565b610abd610a9660a087016080880161134c565b7f000000000000000000000000000000000000000000000000000000000000000083610f70565b6000807f00000000000000000000000000000000000000000000000000000000000000006001600160a01b031663883164566040518061016001604052808a6060016020810190610b0e919061134c565b6001600160a01b03168152602001610b2c60a08c0160808d0161134c565b6001600160a01b03168152602001610b4a60c08c0160a08d01611598565b62ffffff168152602001610b6460e08c0160c08d016114c8565b60020b8152602001610b7d6101008c0160e08d016114c8565b60020b815260208101889052604081018790526101008b013560608201526101208b0135608082015260a001610bbb6101608c016101408d0161134c565b6001600160a01b031681526020018a61016001358152506040518263ffffffff1660e01b8152600401610bee91906117e9565b608060405180830381600087803b158015610c0857600080fd5b505af1158015610c1c573d6000803e3d6000fd5b505050506040513d601f19601f82011682018060405250810190610c4091906115b2565b93509350505085821015610da05783821015610c9157610c91610c696080890160608a0161134c565b7f00000000000000000000000000000000000000000000000000000000000000006000610f70565b818603610ca66101a089016101808a01611490565b8015610cf257506001600160a01b037f000000000000000000000000000000000000000000000000000000000000000016610ce760808a0160608b0161134c565b6001600160a01b0316145b15610d8457604051632e1a7d4d60e01b81526001600160a01b037f00000000000000000000000000000000000000000000000000000000000000001690632e1a7d4d90610d43908490600401611897565b600060405180830381600087803b158015610d5d57600080fd5b505af1158015610d71573d6000803e3d6000fd5b50505050610d7f33826110d3565b610d9e565b610d9e610d9760808a0160608b0161134c565b33836111c7565b505b84811015610ecb5782811015610dc357610dc3610c6960a0890160808a0161134c565b808503610dd86101a089016101808a01611490565b8015610e2457506001600160a01b037f000000000000000000000000000000000000000000000000000000000000000016610e1960a08a0160808b0161134c565b6001600160a01b0316145b15610eb657604051632e1a7d4d60e01b81526001600160a01b037f00000000000000000000000000000000000000000000000000000000000000001690632e1a7d4d90610e75908490600401611897565b600060405180830381600087803b158015610e8f57600080fd5b505af1158015610ea3573d6000803e3d6000fd5b50505050610eb133826110d3565b610ec9565b610ec9610d9760a08a0160808b0161134c565b505b50505050505050565b6040805163d505accf60e01b8152336004820152306024820152604481018790526064810186905260ff8516608482015260a4810184905260c4810183905290516001600160a01b0388169163d505accf9160e480830192600092919082900301818387803b15801561057457600080fd5b6000821580610f6157505081810281838281610f5e57fe5b04145b610f6a57600080fd5b92915050565b604080516001600160a01b038481166024830152604480830185905283518084039091018152606490920183526020820180517bffffffffffffffffffffffffffffffffffffffffffffffffffffffff1663095ea7b360e01b1781529251825160009485949389169392918291908083835b602083106110015780518252601f199092019160209182019101610fe2565b6001836020036101000a0380198251168184511680821785525050505050509050019150506000604051808303816000865af19150503d8060008114611063576040519150601f19603f3d011682016040523d82523d6000602084013e611068565b606091505b5091509150818015611096575080511580611096575080806020019051602081101561109357600080fd5b50515b6110cc576040805162461bcd60e51b8152602060048201526002602482015261534160f01b604482015290519081900360640190fd5b5050505050565b604080516000808252602082019092526001600160a01b0384169083906040518082805190602001908083835b6020831061111f5780518252601f199092019160209182019101611100565b6001836020036101000a03801982511681845116808217855250505050505090500191505060006040518083038185875af1925050503d8060008114611181576040519150601f19603f3d011682016040523d82523d6000602084013e611186565b606091505b50509050806111c2576040805162461bcd60e51b815260206004820152600360248201526253544560e81b604482015290519081900360640190fd5b505050565b604080516001600160a01b038481166024830152604480830185905283518084039091018152606490920183526020820180517bffffffffffffffffffffffffffffffffffffffffffffffffffffffff1663a9059cbb60e01b1781529251825160009485949389169392918291908083835b602083106112585780518252601f199092019160209182019101611239565b6001836020036101000a0380198251168184511680821785525050505050509050019150506000604051808303816000865af19150503d80600081146112ba576040519150601f19603f3d011682016040523d82523d6000602084013e6112bf565b606091505b50915091508180156112ed5750805115806112ed57508080602001905160208110156112ea57600080fd5b50515b6110cc576040805162461bcd60e51b815260206004820152600260248201526114d560f21b604482015290519081900360640190fd5b803562ffffff8116811461133657600080fd5b919050565b803560ff8116811461133657600080fd5b60006020828403121561135d578081fd5b81356113688161191c565b9392505050565b60008060008060808587031215611384578283fd5b843561138f8161191c565b9350602085013561139f8161191c565b92506113ad60408601611323565b915060608501356113bd8161191c565b939692955090935050565b60008060008060008060c087890312156113e0578182fd5b86356113eb8161191c565b955060208701359450604087013593506114076060880161133b565b92506080870135915060a087013590509295509295509295565b60008060208385031215611433578182fd5b823567ffffffffffffffff8082111561144a578384fd5b818501915085601f83011261145d578384fd5b81358181111561146b578485fd5b866020808302850101111561147e578485fd5b60209290920196919550909350505050565b6000602082840312156114a1578081fd5b813561136881611934565b6000602082840312156114bd578081fd5b815161136881611934565b6000602082840312156114d9578081fd5b81358060020b8114611368578182fd5b6000602082840312156114fa578081fd5b815167ffffffffffffffff80821115611511578283fd5b818401915084601f830112611524578283fd5b81518181111561153057fe5b604051601f8201601f19168101602001838111828210171561154e57fe5b604052818152838201602001871015611565578485fd5b6115768260208301602087016118ec565b9695505050505050565b60006101a08284031215611592578081fd5b50919050565b6000602082840312156115a9578081fd5b61136882611323565b600080600080608085870312156115c7578384fd5b8451935060208501516fffffffffffffffffffffffffffffffff811681146115ed578384fd5b6040860151606090960151949790965092505050565b60008060408385031215611615578182fd5b505080516020909101519092909150565b600060208284031215611637578081fd5b6113688261133b565b6001600160a01b03169052565b600081518084526116658160208601602086016118ec565b601f01601f19169290920160200192915050565b60020b9052565b62ffffff169052565b6000828483379101908152919050565b6001600160a01b0391909116815260200190565b6001600160a01b039384168152919092166020820152604081019190915260600190565b6000602080830181845280855180835260408601915060408482028701019250838701855b8281101561172457603f1988860301845261171285835161164d565b945092850192908501906001016116f6565b5092979650505050505050565b600060208252611368602083018461164d565b60208082526014908201527f50657263656e7461676520746f6f20736d616c6c000000000000000000000000604082015260600190565b60208082526009908201527f4e6f742057455448390000000000000000000000000000000000000000000000604082015260600190565b60208082526014908201527f50657263656e7461676520746f6f206c61726765000000000000000000000000604082015260600190565b6000610160820190506117fd828451611640565b602083015161180f6020840182611640565b5060408301516118226040840182611680565b5060608301516118356060840182611679565b5060808301516118486080840182611679565b5060a083015160a083015260c083015160c083015260e083015160e08301526101008084015181840152506101208084015161188682850182611640565b505061014092830151919092015290565b90815260200190565b6000808335601e198436030181126118b6578283fd5b83018035915067ffffffffffffffff8211156118d0578283fd5b6020019150368190038213156118e557600080fd5b9250929050565b60005b838110156119075781810151838201526020016118ef565b83811115611916576000848401525b50505050565b6001600160a01b038116811461193157600080fd5b50565b801515811461193157600080fdfea164736f6c6343000706000a",
  "linkReferences": {},
  "deployedLinkReferences": {}
}